:020000040800F2
:100000006004002045010008D1050008C105000872
:10001000CD0500083D0300082F0A0008000000007D
:10002000000000000000000000000000CD080008F3
:100030008B0400080000000013060008CF08000829
:10004000330A000811060008D1080008C308000898
:100050009B0400082D0800088D0400089104000886
:10006000930400089504000897040008450300085D
:1000700047030008490300084B0300084D0300082C
:100080004F030008510300080B0200082B0A000868
:100090002D0A0008410300084303000899040008E2
:1000A000D3080008D9080008D7080008D5080008B8
:1000B000DB080008DD080008DF080008C7050008A5
:1000C000C5050008CB050008C9050008C7080008D9
:1000D000C9080008F3080008F5080008F708000838
:1000E0008F040008C1080008290A0008E708000872
:1000F000ED080008EB080008E90800080D020008F8
:10010000CD040008C5080008E1080008CB08000875
:10011000EF080008F1080008E3080008E5080008F7
:10012000530300085503000857030008590300084B
:10013000DFF80CD000F038F800480047390F00080D
:100140006004002000480047310100082DE9F04715
:10015000002591469A46074688462E46402418E0D8
:1001600022464146384600F041F8B0EB090071EBF9
:100170000A010ED322465146484600F027F83F1A9E
:1001800068EB010822460021012000F01FF8451904
:100190004E41201EA4F10104E2DC284631463A46D5
:1001A0004346BDE8F0870000064C074D06E0E068D6
:1001B00040F0010394E8070098471034AC42F6D3AE
:1001C000FFF7BAFFE410000804110008202A04DB3E
:1001D0000023203A00FA02F106E000FA02F391400F
:1001E000C2F12002D040014318467047202A04DBA8
:1001F000203A21FA02F000217047D040C2F12003DA
:1002000001FA03F31843D140704770477047002943
:10021000816802D041F0010101E021F0010181601B
:1002200070470029816802D041F4807101E021F417
:10023000807181607047014689680020490700D5B8
:1002400001207047C06C80B2704701468968002069
:10025000090700D50120704730B542680E4B0C7974
:100260001A400B6842EA04221343436082680B4B36
:100270004D791A40D1E9024342EA45022343134330
:100280008360C26A097C22F47002491EC9B242EA44
:100290000151C16230BD0000FFFEF0FFFDF7F1FF2C
:1002A00070B5072609290AD9C568A1F10A0404EB2B
:1002B0004404A640B543A3401D43C56007E005695B
:1002C00001EB4104A640B543A3401D4305611F2334
:1002D000072A09D2446B521E02EB820293409C43D0
:1002E00091400C43446370BD0D2A09D2046BD21FA8
:1002F00002EB820293409C4391400C43046370BD27
:10030000C46A0D3A02EB820293409C4391400C4335
:10031000C46270BD816841F00801816070470029A6
:10032000816802D041F4A00101E021F4A0018160C4
:100330007047816841F004018160704700BFFEE7AB
:1003400070477047704770477047704770477047F5
:10035000704770477047704770470029016802D0A6
:1003600041F0010101E021F001010160704700004E
:100370000268002122F00102026001604160816098
:10038000C160304B2F49C21A8039984245D018DCE1
:100390002D4BA0EB0302984237D00ADC2B4A801881
:1003A0002BD014282DD0282826D1486840F470601E
:1003B00036E0142A2DD0282A1ED1486840F4700057
:1003C0002EE0B2F56C7F32D00ADCB2F5627F29D024
:1003D000B2F5677F10D1D1F8040440F0F00009E0D5
:1003E000B2F5717F28D0B2F5767F05D1D1F804043B
:1003F00040F47020C1F804047047486840F00F00D2
:100400000EE0486840F0F0000AE0486840F47040B0
:1004100006E0486840F4702002E0486840F07060F0
:1004200048607047D1F8040440F00F00E2E7D1F8CB
:10043000040440F47060DDE7D1F8040440F4704037
:10044000D8E700008000024044000240F8FFFDBFF2
:1004500070B5026847F6F0739A430E6A8B680C69B0
:100460003343D1E905562C432343CC69334323431B
:10047000D1E909542B43234313430360CA68426004
:100480000A6882604968C16070BD704770477047F4
:1004900070477047704770477047704704490A6853
:1004A00022F010020A600A6802430A6070470000E6
:1004B0000020024004490A6802F038020A600A6813
:1004C00002430A60704700000020024070470000AD
:1004D00008B50420ADF8000000208DF8030069463F
:1004E0000E4800F01DF84FF40070ADF80000182021
:1004F0008DF8030003208DF802006946074800F0DC
:100500000FF84FF48060ADF8000004208DF8030070
:100510006946024800F004F808BD000000080140E8
:10052000F0B5CB780022DC0603F00F0301D58C7800
:1005300023430C880F2714F0FF0F4FF0010C1CD041
:10054000D0F800500E880CFA02F42640A64210D1D2
:10055000960007FA06FE25EA0E0E03FA06F5CE7897
:1005600045EA0E05282E00D14461CE78482E00D1F0
:100570000461521C082AE5D305600A88FF2A1ED9A7
:100580004568002202F108060CFA06F40E8826409F
:10059000A64210D1960007FA06FE25EA0E0E03FACF
:1005A00006F5CE7845EA0E05282E00D14461CE78B6
:1005B000482E00D10461521C082AE3D34560F0BDE7
:1005C00000BFFEE7704770477047704700BFFEE707
:1005D000704710B500214FF0006000F00FF84FF4A5
:1005E000E06000F001F810BD0249084302490860CC
:1005F000704700000000FA050CED00E0024A1140CF
:10060000014302480160704780FFFF1F08ED00E0D2
:1006100070477047044A0029516901D0014300E046
:10062000814351617047000000100240044A0029D4
:10063000916901D0014300E081439161704700005E
:100640000010024010B500F045F84FF4803000F083
:10065000D3F800F01BF91E490870084600780128FD
:1006600026D11020FFF71AFF0220FFF723FF0020FA
:1006700000F0B8F8002000F0E5F84FF4806000F0DA
:10068000D7F84FF4E0114FF4803000F0EBF8012080
:1006900000F0E2F800BF392000F084F80028FAD01A
:1006A000022000F0E9F800BF00F094F80828FBD120
:1006B00001210846FFF7AEFF01214FF40170FFF75B
:1006C000B5FF012144F20400FFF7B0FF10BD0000A8
:1006D0000C0000200B48016841F0010101604168F5
:1006E000094A114041600168084A114001600168EF
:1006F00021F4802101604268002122F4FE02426060
:1007000081607047001002400000FFF8FFFFF6FE16
:1007100030B5204A5168204B11F00C0103D0042958
:1007200001D0082901D0036011E05168022401F4CE
:10073000701104EB91415468184D14F4803F02D0BD
:100740005468A40301D5694300E05943016051682E
:10075000134B01F0F00109095C5C0168E140416064
:10076000546804F4E064240A1C5D21FA04F48460F3
:10077000546804F46054E40A1B5DD940C1605268B7
:10078000074B02F44042920B1B1F9A5CB1FBF2F143
:10079000016130BD0010024000127A0000093D00E6
:1007A000D4100008034600205909094A012901D143
:1007B000116804E0022901D1116A00E0516A03F0D6
:1007C0001F02012393400B4200D00120704700001C
:1007D000001002400248406800F00C007047000022
:1007E00000100240034A516821F0F00101435160BA
:1007F00070470000001002400B490A6822F4803262
:100800000A600A68B0F5803F22F480220A6007D0AF
:10081000B0F5802F03D1086840F4A020086070472D
:10082000086840F48030F9E700100240704700008B
:10083000034A516821F4E0610143516070470000B0
:1008400000100240034A516821F4605141EAC0009F
:100850005060704700100240014908667047000070
:1008600000004242034B5A68084322F47C121043B2
:100870005860704700100240034A516821F003019C
:1008800001435160704700000010024030B50B4C2E
:1008900040F2FF153120FFF785FF20706068401C93
:1008A0006060207810B96068A842F3D13120FFF76A
:1008B00079FF002800D0012030BD0000100000208A
:1008C0007047704770477047704770477047704770
:1008D0007047704770477047704770477047704760
:1008E0007047704770477047704770477047704750
:1008F000704770477047704730B5028A4FF2FF0368
:100900001A400B884D888C88C9882B430C4323439D
:100910001343038230BD0029818902D041F4005184
:1009200001E021F4005181817047000000B587B0DB
:100930000020ADF80400ADF806004FF40070ADF8EB
:1009400008000020ADF80A0001A90E48FFF7D4FF07
:100950004FF4E13003900020ADF81000ADF8120024
:10096000ADF81400ADF818000C20ADF8160003A97E
:10097000044800F011F801210248FFF7CCFF07B04E
:1009800000BD0000003801400246128800200A42E3
:1009900000D001207047000030B50446008A85B0C1
:1009A0000D464CF6FF710840E98801432182A08979
:1009B0004EF6F3110840A9882A8911436A89024337
:1009C0001143A181A08A4FF6FF410840A989014344
:1009D000A1826846FFF79CFE1048844201D103982B
:1009E00000E0029819214843296864228900B0FB7D
:1009F000F1F0B0FBF2F109010B096FF018056B4340
:100A0000322500EB830005EB0010B0FBF2F000F0A4
:100A10000F000843208105B030BD000000380140C0
:100A2000C1F308018180704770477047704700BF6D
:100A3000FEE770470FB410B503A9044B044A0298AF
:100A400000F018F810BC5DF814FB0000150F00084A
:100A50001800002002E008C8121F08C1002AFAD1BD
:100A600070477047002001E001C1121F002AFBD12E
:100A7000704700002DE9FF4F93B005460F46002652
:100A8000FBE1252875D100246D1CA346A146012158
:100A9000FE4A2B78203B01FA03F0104202D00443B7
:100AA0006D1CF6E728782A2816D157F804BBBBF14D
:100AB000000F03DA44F40054CBF1000B44F00204BD
:100AC0006D1C10E00BEB8B0002EB400044F00204C5
:100AD00001EB000B6D1C01E06FF02F022978A1F1F2
:100AE00030000928EED928782E2818D115F8010FE2
:100AF00044F004042A280BD157F8049B6D1C0EE027
:100B000009EB890002EB400001EB00096D1C01E0DC
:100B10006FF02F022978A1F130000928F0D9287848
:100B20006C280ED008DC4C2816D068280CD06A2817
:100B300013D144F400140FE074280DD07A280CD19E
:100B40000AE044F4801401E044F4401469788142DE
:100B500002D16D1C04F580146D1C28786E2833D0EA
:100B60001CDC632846D005DC002878D0582889D1C1
:100B700028E0A1E1642801D06928F8D10A200021E9
:100B8000CDE90C01C4F30250022878D1FF1D27F0F3
:100B90000707D7E9008108370F9182E0732833D027
:100BA0000CDC6F287ED07028E1D110210022CDE925
:100BB0000C1244F004044FF0080997E0752872D035
:100BC0007828D4D110218EE0C4F30250022804D139
:100BD0003868F117C0E900610AE0032802D13868DB
:100BE000068005E00428386801D1067000E0066040
:100BF0003F1D41E101CF8DF83C0000208DF83D0004
:100C00000DF13C0A012003E057F804AB4FF0FF3030
:100C100061074FF000010CD501E008F101018846A1
:100C2000494510DA8045F8DB1AF808100029F4D19C
:100C300009E001E008F1010188468142FADB1AF877
:100C400008100029F6D1DDE91523ABEB0809214690
:100C5000484600F048F9304400EB080606E010E191
:100C60000DE0DDE915121AF8010B9047B8F101000B
:100C70008046F6D2DDE9152321464846F9E002CF49
:100C8000CA1788460F92032804D10FFA88F1CA17B1
:100C900088460F92042804D14FFA88F0C117804685
:100CA0000F9101E01EE01BE000230F99B8EB030059
:100CB000994108DA0F99D8F1000861EB41014FF032
:100CC0002D000F9102E0200504D52B208DF808009F
:100CD000012003E0E00701D02020F7E7824653E03F
:100CE0000A2100E008210022CDE90C12C4F30251D0
:100CF000022907D1FF1D27F00707D7E9008208372F
:100D00000F920BE0002357F8048B0F93032901D1B6
:100D10001FFA88F8042901D108F0FF084FF0000AF3
:100D2000210731D5702804D140208DF8080001201A
:100D300013E0DDE90C011022504008430ED10023DE
:100D40000F9988EA03005940084307D030208DF8F6
:100D5000080028788DF8090002208246DDE90C01A0
:100D60000822504008430FD100230F9988EA03005E
:100D70005940084301D1600706D530208DF808009E
:100D80004FF0010AA9F10109297841A0582900D0A2
:100D900044A001900CA803900DE0DDE90C2340462F
:100DA0000F99FFF7D3F9019B80469B5C039A521E73
:100DB000039213700F9100230F9988EA03005940A2
:100DC0000843EAD1039904A8401A00F120086007FB
:100DD00002D524F4803401E04FF001090020C14520
:100DE00001DDA9EB080000EB080151441090ABEBCA
:100DF00001001190E00306D4DDE915232146119886
:100E000000F071F806444FF000090DF1080B07E0FF
:100E1000DDE915121BF809009047761C09F101095C
:100E2000D145F5DBE0030CD5DDE91523214611980A
:100E300000F059F8064404E0DDE91512302090472F
:100E4000761C1098411E10910028F5DC08E00398EC
:100E500003990078491C0391DDE915129047761C2F
:100E6000B8F10000A8F10108F1DCDDE91523214605
:100E7000119800F026F806446D1C287800287FF4AD
:100E800000AE304617B0BDE8F08F00000928010021
:100E900030313233343536373839414243444546B0
:100EA0000000000030313233343536373839616272
:100EB0006364656600000000DDE915129047761C4A
:100EC000DAE72DE9F0410446002517461E4688045E
:100ED00006D503E039462020B0476D1C641EF9D5C5
:100EE0002846BDE8F0812DE9F04104460025302771
:100EF00090461E46C80300D42027880406D403E089
:100F000041463846B0476D1C641EF9D52846BDE8F9
:100F1000F081000070B504460D46E1B20548FFF7C8
:100F20007FFD00BF40210348FFF72EFD0028F9D0C8
:100F3000204670BD0038014010B5FFF783FBFFF776
:100F400048FBFFF7C5FAFFF7F1FC41A0FFF772FD80
:100F50004D48FFF70DFA4D484D4908604D4848602F
:100F6000002088600120C8600020086148614FF4BB
:100F7000807088618000C861202008620002486299
:100F8000002088624048FFF763FA01213E48FFF7DE
:100F9000E4F90020404908600120087148714FF4CD
:100FA000602088600020C8600120087437484C38F1
:100FB000FFF752F905230122022134484C38FFF78C
:100FC0006FF9012131484C38FFF72BF901212F48E7
:100FD0004C38FFF71CF92D484C38FFF79BF900BF40
:100FE0002A484C38FFF731F90028F9D127484C3806
:100FF000FFF79FF900BF25484C38FFF71CF9002880
:10100000F9D1012121484C38FFF789F91FE01F4829
:101010004C38FFF717F9214908602148016800683A
:10102000401C1F4A10601F48814205D30020114612
:10103000086001201C4908701B48007838B1002066
:10104000194908701548016818A0FFF7F3FCDEE79E
:101050000D0A20555341525431207072696E74202C
:1010600041445F76616C7565202D2D2D2D2D2D2D24
:101070002D2D2D2D2D2D2D2D2D2D2D2D2D2D2D2DA0
:101080002D2D2D200D0A0000080002404C240140A7
:10109000300000200A0000201C000020000000207A
:1010A00004000020A0BB0D0008000020546865204B
:1010B00063757272656E742041442076616C75654B
:1010C000203D20307825303458200D0A00000000E3
:1010D00002040608000000000102030401020304E8
:1010E0000607080904110008000000201C00000089
:1010F000540A0008201100081C00002044040000CD
:10110000640A000800000000000000000000000069
:1011100000000000000000000000000000000000CF
:0400000508000131BD
:00000001FF
