:020000040800F2
:1000000000040020450100083D0600082305000803
:10001000390600080D020008070B00080000000068
:10002000000000000000000000000000D50A0008E9
:100030008B020008000000009B070008D70A000898
:100040000B0B000899070008D90A000847090008A7
:1000500063030008A50800085503000859030008B9
:100060005B0300085D0300085F03000875020008D9
:1000700077020008790200087B0200087D02000870
:100080007F0200088102000809020008030B000833
:10009000050B0008110200081302000861030008A4
:1000A000DB0A0008E10A0008DF0A0008DD0A000890
:1000B000E30A0008E50A0008E70A00082905000825
:1000C000270500082D0500082B050008CF0A0008A9
:1000D000D10A0008FB0A0008FD0A0008FF0A000810
:1000E0005703000845090008010B0008EF0A000843
:1000F000F50A0008F30A0008F10A00080B020008DC
:1001000095030008CD0A0008E90A0008D30A000890
:10011000F70A0008F90A0008EB0A0008ED0A0008CF
:10012000830200088502000887020008890200088F
:10013000DFF80CD000F056F800480047391A0008E4
:10014000000400204FF48A70144908604FF4F070E6
:10015000134908601348144908604FF0BB30134935
:1001600008601348134908604FF0BB30124908601B
:100170001248134908601348134908600F4813498F
:10018000086013481349086041F2110012490860E1
:100190004FF40070114908601148004714100240E4
:1001A00018100240BB44BB44001401400414014039
:1001B000BB4444B40018014004180140BBBBBB441D
:1001C000001C01404444BBBB041C01400020014012
:1001D000444B444404200140100000A0140000A03F
:1001E00031010008064C074D06E0E06840F00103CD
:1001F00094E8070098471034AC42F6D3FFF79CFF11
:100200002C2100083C2100087047704700BFFEE722
:100210007047704708B50121042000F0D5FA4FF46B
:100220008070ADF8000001208DF8020010208DF8DC
:1002300003006946014800F01FF908BD00080140AD
:1002400008B50121042000F0BFFA4FF48070ADF82A
:10025000000001208DF8020018208DF80300694687
:10026000034800F009F9062000F01EFB08BD00005D
:1002700000080140704770477047704770477047EB
:1002800070477047704770477047704706E000211D
:1002900000E0491C42F210729142FAD30200A0F130
:1002A0000100F4D17047000010B500F099FA4FF446
:1002B000803000F0DDFA00F02BFB2549087008467D
:1002C000007801282BD1102000F04CF8022000F01B
:1002D00055F8002000F0C2FA002000F0F5FA4FF4C3
:1002E000806000F0E7FA4FF460114FF4803000F0C6
:1002F000FBFA012000F0F2FA00BF392000F08EFA7C
:100300000028FAD0022000F0F9FA00BF00F09EFAAF
:100310000828FBD1012144F2040000F055FA012124
:1003200040F2FD1000F050FA4FF4404000F036FA71
:100330000121084600F03CFA01214FF6FD7000F063
:1003400043FA0348007810B91F2000F079F910BD76
:100350000C000068704770477047704770477047DF
:100360007047704704490A6822F010020A600A6860
:1003700002430A60704700000020024004490A68F6
:1003800002F038020A600A6802430A6070470000FF
:1003900000200240704700004FF0204202EB800036
:1003A0000029016802D041F0010101E0014A114039
:1003B00001607047FEFF0F00F0B5D0E902324168DE
:1003C0001943D0E90443224311431943D0E90623DA
:1003D00011431943D0E9082311431943D0E90A23F3
:1003E00011431943026B036811434FF0204242F856
:1003F00023108168082906D1016802EB81010B688E
:1004000043F040030B60416BD1E90134D1E903565D
:100410000F68240247EA031344EA05442343D1E961
:10042000057443EA065343EA07610368214302EB7C
:1004300083035960816AB1F5804F14D1816B0068E4
:10044000D1E90134D1E903560F68240247EA0313C6
:1004500044EA05442343D1E9057443EA065343EAD9
:100460000761214302E000686FF0704102EB8000F9
:10047000C0F80411F0BD0000F0B5CB780022DC0616
:1004800003F00F0301D58C7823430C880F2714F059
:10049000FF0F4FF0010C1CD0D0F800500E880CFA62
:1004A00002F42640A64210D1960007FA06FE25EA7D
:1004B0000E0E03FA06F5CE7845EA0E05282E00D179
:1004C0004461CE78482E00D10461521C082AE5D33D
:1004D00005600A88FF2A1ED94568002202F1080635
:1004E0000CFA06F40E882640A64210D1960007FAB0
:1004F00006FE25EA0E0E03FA06F5CE7845EA0E054D
:10050000282E00D14461CE78482E00D10461521CBF
:10051000082AE3D34560F0BD0AB10161704741612B
:10052000704700BFFEE77047704770477047000094
:1005300008B50121080200F03BF9012140F2E11069
:1005400000F042F94CF23370ADF8000003208DF852
:10055000020018208DF8030069461048FFF78CFF51
:100560004FF6C070ADF8000069460D48FFF784FFF4
:10057000012240210A48FFF7CFFF0120ADF800001B
:1005800069460848FFF778FF4FF48050ADF8000047
:1005900069460548FFF770FF08BD000000140140E0
:1005A00000180140001C01400020014000B597B038
:1005B00000200190029002200390002004900590FA
:1005C0000690079006200890002009900A901020BD
:1005D0000B9000200C900D900E900F904FF48050D7
:1005E00010900020119012901390149001A8159073
:1005F000169008A8FFF7E0FE01210620FFF7CCFEC9
:1006000017B000BD01464FF0D840018040887047C8
:100610004FF0D8414880704722204FF0D8410880E1
:1006200070474FF0D84210805180704710B5FFF7E7
:100630007FFFFFF7BBFF10BD00BFFEE77047000064
:10064000044900F01F000B680122824013430B6035
:100650007047000004ED00E008B50121042000F01F
:10066000B3F84FF43060ADF8000004208DF80300BB
:1006700069460348FFF700FF062000F015F908BDA2
:100680000010014008B50121102000F09DF840F64F
:10069000FF30ADF8000028208DF8030069460248BD
:1006A000FFF7EAFE08BD0000001001402DE9FC47FD
:1006B00004460D4616461F464FF0000A04EB060896
:1006C000E81900EB070901A9032001F05DFA9DF884
:1006D000040000F0F00001906946322001F054FA65
:1006E0009DF8000000F0C000009008F007009DF8A1
:1006F000001041EAC00004F0070140EA010A514637
:10070000322001F0EBFCC4F3C70A5146172001F078
:10071000E5FCC8F3C70A5146182001F0DFFC09F0D8
:1007200003009DF8041041EA800005F0030140EA4F
:10073000010A5146032001F0D1FCC5F3870A514656
:10074000192001F0CBFCC9F3870A51461A2001F0A9
:10075000C5FCBDE8FC8770B50025FFF793FFFFF7E8
:100760007BFF00F0F1F8FFF76BFD8024214612209B
:1007700001F0B4FC08B9002070BD642000F0D5F988
:1007800001F035FAF0234FF4A0720C214FF4887079
:10079000FFF78CFF0120EFE770477047034A51686D
:1007A00021F44041014351607047000000100240B5
:1007B000044A0029516901D0014300E0814351619D
:1007C0007047000000100240044A0029916901D0DE
:1007D000014300E081439161704700000010024036
:1007E0000B48016841F0010101604168094A11406C
:1007F00041600168084A11400160016821F48021CC
:1008000001604268002122F4FE024260816070476C
:10081000001002400000FFF8FFFFF6FE0346002034
:100820005909094A012901D1116804E0022901D1BD
:10083000116A00E0516A03F01F02012393400B424A
:1008400000D00120704700000010024002484068BC
:1008500000F00C007047000000100240034A51688D
:1008600021F0F00101435160704700000010024088
:100870000B490A6822F480320A600A68B0F5803FAA
:1008800022F480220A6007D0B0F5802F03D10868D7
:1008900040F4A02008607047086840F48030F9E711
:1008A00000100240704700000149C8717047000005
:1008B00000100240034A516821F4E0610143516095
:1008C0007047000000100240034A516821F4605153
:1008D00041EAC000506070470010024001490866BC
:1008E0007047000000004242034B5A68084322F45C
:1008F0007C1210435860704700100240034A516850
:1009000021F00301014351607047000000100240D4
:1009100030B50B4C40F2FF153120FFF77FFF207000
:100920006068401C6060207810B96068A842F3D10C
:100930003120FFF773FF002800D0012030BD0000F8
:10094000100000687047704708B501210420FFF7C8
:100950003BFF3020ADF8000010208DF8030001208F
:100960008DF8020069460248FFF786FD08BD0000C9
:100970000008014008B501210420FFF725FF2020D1
:10098000ADF8000004208DF8030069460148FFF728
:1009900073FD08BD0008014008B501210420FFF7E0
:1009A00013FF2020ADF8000010208DF80300012077
:1009B0008DF8020069460248FFF75EFD08BD0000A1
:1009C0000008014070B50024FFF7D4FF4FF4FA701F
:1009D00000F0B7F808251DE04FF4FA7000F0B1F808
:1009E00010200E4908604FF4FA7000F0AAF8600673
:1009F000040E0B48D0F8080810F0400F01D0601C1E
:100A0000C4B21020074908604FF4FA7000F099F85A
:100A1000681EC5B2002DDFDC204670BD1008014005
:100A2000000001401408014070B50446002520E094
:100A300004FA05F010F0800F03D020202049086050
:100A400002E020201F4908604FF4FA7000F079F8A6
:100A500010201B4908604FF4FA7000F072F8102063
:100A60001949C1F814084FF4FA7000F06AF8681CCC
:100A7000C5B2082DDCDB642000F063F8FFF77AFFD5
:100A80004FF4FA7000F05DF810200D4908604FF047
:100A9000640000F056F80C48D0F8080810F0400F39
:100AA00001D0002600E001261020064908604FF41E
:100AB000FA7000F046F8FFF76FFF304670BD000097
:100AC00010080140140801400000014070477047C1
:100AD000704770477047704770477047704770475E
:100AE000704770477047704770477047704770474E
:100AF000704770477047704770477047704770473E
:100B000070477047704700BFFEE7704702E008C8B3
:100B1000121F08C1002AFAD170477047002001E077
:100B200001C1121F002AFBD1704700B5034603E044
:100B30004FF47A7000F005F81800A3F10103F7D123
:100B400000BD00BF0100A0F10100FBD1704730B52E
:100B5000014601F01F04C1F34513CA0AE50205EB83
:100B600043151544A8B230BD30B505460024002118
:100B7000084600F01FFFFFF74FFD00BF03E04FF0F6
:100B8000D8404580641CB4F5963FF8D330BD00E0F2
:100B9000401E0028FCD1704710B5FFF747FD052027
:100BA000FFF774FB0520FFF771FB0020FFF72AFD1C
:100BB000FF49088008460088A0F51341253905D073
:100BC000FB480088A0F51341283970D11021E72097
:100BD000FFF727FD01210020FFF723FD4FF480716F
:100BE0000120FFF71EFD4FF4E0610220FFF719FD21
:100BF00041F230010320FFF714FD00210420FFF72C
:100C000010FD40F207210820FFF70BFD002109200D
:100C1000FFF707FD00210A20FFF703FD01210C204B
:100C2000FFF7FFFC00210D20FFF7FBFC00210F2048
:100C3000FFF7F7FC00211020FFF7F3FC072111203C
:100C4000FFF7EFFC00211220FFF7EBFC002113203F
:100C5000FFF7E7FC4CF2503401E0601E84B2002C38
:100C6000FBDC4CF2503401E0601E84B2002CFBDC53
:100C700041F290511020FFF7D4FC40F227211120BF
:100C8000FFF7CFFC4CF2503401E0601E84B2002C20
:100C9000FBDC4CF2503401E0601E84B2002CFBDC23
:100CA0009C211220FFF7BDFC4CF2503402E0D3E04F
:100CB000601E84B2002CFBDC4CF2503401E0601E5C
:100CC00084B2002CFBDC4FF4C8511320FFF7A9FCC1
:100CD00023212920FFF7A5FC0E212B20FFF7A1FCE3
:100CE0004CF2503401E0601E84B2002CFBDC4CF26C
:100CF000503401E0601E84B2002CFBDC0021202077
:100D0000FFF78FFC00212120FFF78BFC4CF25034C1
:100D100001E0601E84B2002CFBDC4CF2503401E098
:100D2000601E84B2002CFBDC07213020FFF779FC29
:100D300040F207713120FFF774FC06213220FFF7E3
:100D400070FC40F204713520FFF76BFC41F6047132
:100D50003620FFF766FC04213720FFF762FC0021F4
:100D60003820FFF75EFC40F206713920FFF759FC8E
:100D700040F201713C20FFF754FC0F213D20FFF7AA
:100D800050FC4CF2503401E0601E84B2002CFBDCBD
:100D90004CF2503401E0601E84B2002CFBDC0021D8
:100DA0005020FFF73EFCEF215120FFF73AFC0021D5
:100DB0005220FFF736FC40F23F115320FFF731FC81
:100DC0004FF427416020FFF72CFC01216120FFF741
:100DD00028FC00216A20FFF724FC00218020FFF777
:100DE00020FC00218120FFF71CFC00218220FFF75E
:100DF00018FC00218320FFF714FC00218420FFF75A
:100E000010FC00218520FFF70CFC10219020FFF73B
:100E100008FC00219220FFF704FC03219320FFF738
:100E200000FC4FF488719520FFF7FBFB0021972011
:100E3000FFF7F7FB00219820FFF7F3FB40F2331197
:100E40000720FFF7EEFB00212020FFF7EAFB00213F
:100E50002120FFF7E6FB5EE255480088A0F513412C
:100E6000203904D052480088B0F5134F7ED10021BC
:100E70000846FFF7D6FB4FF480710120FFF7D1FB46
:100E80004FF4E0610220FFF7CCFB41F21801032090
:100E9000FFF7C7FB00210420FFF7C3FB40F202214C
:100EA0000820FFF7BEFB00210920FFF7BAFB002155
:100EB0000A20FFF7B6FB01210C20FFF7B2FB00214F
:100EC0000D20FFF7AEFB00210F20FFF7AAFB4CF22D
:100ED000503401E0601E84B2002CFBDC4CF2503434
:100EE00001E0601E84B2002CFBDC40F201110720FF
:100EF000FFF797FB4CF2503401E0601E84B2002CE7
:100F0000FBDC4CF2503401E0601E84B2002CFBDCB0
:100F10004FF486511020FFF784FB07211120FFF7C3
:100F200080FB4FF488711220FFF77BFB4FF4306198
:100F30001320FFF776FB00212920FFF772FB44F214
:100F400010012B20FFF76DFB00215020FFF769FBFC
:100F5000EF215120FFF765FB00215220FFF761FBD5
:100F600040F23F115320FFF75CFB00E047E04FF4F5
:100F70001C516020FFF755FB01216120FFF751FB59
:100F800000216A20FFF74DFB00218020FFF749FB7D
:100F900000218120FFF745FB00218220FFF741FB64
:100FA00000218320FFF73DFB0021842002E00000A8
:100FB00000000068FFF735FB00218520FFF731FBBB
:100FC00010219020FFF72DFB00219220FFF729FB35
:100FD00001219320FFF725FB4FF488719520FFF73F
:100FE00020FB00219720FFF71CFB00219820FFF732
:100FF00018FB40F273110720FFF713FB2BE7FF48A4
:101000000088A0F5134131397ED141F21401E72067
:10101000FFF707FB4FF480710120FFF702FB4FF44D
:1010200000710220FFF7FDFA41F230010320FFF7C3
:10103000F8FA40F202210820FFF7F3FA0021092014
:10104000FFF7EFFA00210A20FFF7EBFA00210C204E
:10105000FFF7E7FA00210D20FFF7E3FA00210F2048
:10106000FFF7DFFA00211020FFF7DBFA072111203C
:10107000FFF7D7FA00211220FFF7D3FA002113203F
:10108000FFF7CFFAC820FFF782FD41F290611020F0
:10109000FFF7C7FA40F227211120FFF7C2FA3220EA
:1010A000FFF775FD0C211220FFF7BBFA3220FFF786
:1010B0006EFD4FF400611320FFF7B3FA11212920D0
:1010C000FFF7AFFA0B212B20FFF7ABFA3220FFF727
:1010D0005EFD00212020FFF7A4FA00212120FFF768
:1010E000A0FA00213020FFF79CFA4FF483713120E1
:1010F000FFF797FA00213220FFF793FA4FF40171BE
:101100003520FFF78EFA00E073E041F20A613620E5
:10111000FFF787FA40F207713720FFF782FA4FF4A2
:1011200083713820FFF77DFA40F207713920FFF70D
:1011300078FA40F202413C20FFF773FA40F60F4183
:101140003D20FFF76EFA00215020FFF76AFAEF21E9
:101150005120FFF766FA00215220FFF762FA40F2B1
:101160003F115320FFF75DFA4FF41C516020FFF749
:1011700058FA01216120FFF754FA00216A20FFF795
:1011800050FA00218020FFF74CFA00218120FFF760
:1011900048FA00218220FFF744FA00218320FFF75C
:1011A00040FA00218420FFF73CFA00218520FFF758
:1011B00038FA10219020FFF734FA4FF4C0619220E2
:1011C000FFF72FFA21210720FFF72BFA3220FFF734
:1011D000DEFC61210720FFF724FA3220FFF7D7FC5D
:1011E00040F233110720FFF71CFA3220FFF7CFFC43
:1011F000D8E382480088A0F5194119397ED106212B
:101200002820FFF70EFA01210020FFF70AFA00213B
:101210001020FFF706FA47F2EF210120FFF701FA4D
:101220004FF4C0610220FFF7FCF946F63821032095
:10123000FFF7F7F946F674011120FFF7F2F90021E4
:101240000F20FFF7EEF945F208310B20FFF7E9F91F
:1012500003210C20FFF7E5F90A210D20FFF7E1F942
:101260004FF438510E20FFF7DCF9BE211E20FFF7A6
:10127000D8F94FF400412520FFF7D3F94FF4F0419E
:101280002620FFF7CEF978212720FFF7CAF90021A1
:101290004E20FFF7C6F900214F20FFF7C2F940F6B4
:1012A000D9011220FFF7BDF900213020FFF7B9F96D
:1012B0004FF482713120FFF7B4F94FF4807132207E
:1012C000FFF7AFF940F205313320FFF7AAF940F2FA
:1012D00005513420FFF7A5F940F205313520FFF71D
:1012E000A0F940F207713620FFF79BF94FF44071E7
:1012F0003720FFF796F94FF4905100E00CE03A20C8
:10130000FFF78FF94FF400613B20FFF78AF9332193
:101310000720FFF786F945E338480088A0F5A85173
:1013200005396DD10720FFF77CF90520FFF72FFC69
:101330004FF48E711220FFF774F90121A420FFF7FA
:1013400070F90F210820FFF76CF908210A20FFF738
:1013500068F908210D20FFF764F940F20771302089
:10136000FFF75FF907213120FFF75BF940F20361D6
:101370003220FFF756F94FF4E0613320FFF751F9BF
:1013800040F202213420FFF74CF902213520FFF70B
:1013900048F941F60F713620FFF743F940F2077123
:1013A0003720FFF73EF900213820FFF73AF90021F6
:1013B0003920FFF736F940F207713A20FFF731F98B
:1013C00000213B20FFF72DF907213C20FFF729F9E9
:1013D00000213D20FFF725F90520FFF7D8FB01216B
:1013E0000720FFF71EF901211720FFF71AF9052042
:1013F000FFF7CDFB4FF4BD51102002E00000006864
:10140000A6E0FFF70EF940F217211120FFF709F9C6
:101410004FF48F711220FFF704F94FF4706113201D
:10142000FFF7FFF800212A20FFF7FBF80A21292007
:10143000FFF7F7F84FF49F711220FFF7F2F8002141
:101440005020FFF7EEF8EF215120FFF7EAF80021D6
:101450005220FFF7E6F840F23F115320FFF7E1F882
:101460004FF41C516020FFF7DCF801216120FFF7E9
:10147000D8F800216A20FFF7D4F800218020FFF778
:10148000D0F800218120FFF7CCF800218220FFF75F
:10149000C8F800218320FFF7C4F800218420FFF75B
:1014A000C0F800218520FFF7BCF813219020FFF73A
:1014B000B8F84FF440719220FFF7B3F8052193205C
:1014C000FFF7AFF800219520FFF7ABF80021972038
:1014D000FFF7A7F800219820FFF7A3F84FF48071D9
:1014E0000120FFF79EF84FF4E0610220FFF799F822
:1014F00041F230010320FFF794F800210420FFF7A8
:1015000090F800210C20FFF78CF800210F20FFF746
:1015100088F800212020FFF784F800212120FFF720
:1015200080F821210720FFF77CF81420FFF72FFB1C
:1015300061210720FFF775F81420FFF728FB40F220
:1015400073110720FFF76DF81420FFF720FB29E245
:10155000FF480088A0F5094189397ED1012100208A
:10156000FFF75FF84CF25030FFF711FB4AF6A40189
:101570000320FFF756F84CF25030FFF708FB00212C
:101580000C20FFF74EF84CF25030FFF700FB40F60E
:101590000C010D20FFF745F84CF25030FFF7F7FA39
:1015A0004FF42C510E20FFF73CF84CF25030FFF76F
:1015B000EEFAB0211E20FFF734F84CF25030FFF75E
:1015C000E6FA42F63F310120FFF72BF84CF250309B
:1015D000FFF7DDFA4FF4C0610220FFF722F84CF26A
:1015E0005030FFF7D4FA00211020FFF71AF84CF220
:1015F0005030FFF7CCFA46F270011120FFF711F8D6
:101600004CF25030FFF7C3FA00210520FFF709F82C
:101610004CF25030FFF7BBFA00210620FFF701F82B
:101620004CF25030FFF7B3FA4EF61C711620FEF75D
:10163000F8FF4CF25030FFF7AAFA03211720FEF70B
:10164000F0FF4CF25030FFF7A2FA40F233210720AE
:10165000FEF7E7FF4CF2503000E0D8E0FFF797FAD2
:1016600000210B20FEF7DDFF4CF25030FFF78FFA20
:1016700000210F20FEF7D5FF4CF25030FFF787FA1C
:1016800000214120FEF7CDFF4CF25030FFF77FFAEA
:1016900000214220FEF7C5FF4CF25030FFF777FAE9
:1016A00000214820FEF7BDFF4CF25030FFF76FFAE3
:1016B00040F23F114920FEF7B4FF4CF25030FFF7E3
:1016C00066FA00214A20FEF7ACFF4CF25030FFF7DB
:1016D0005EFA00214B20FEF7A4FF4CF25030FFF7DA
:1016E00056FA4FF46F414420FEF79BFF4CF2503006
:1016F000FFF74DFA00214520FEF793FF4CF25030E2
:10170000FFF745FA40F23F114620FEF78AFF4CF200
:101710005030FFF73CFA40F207713020FEF781FFAE
:101720004CF25030FFF733FA4FF401713120FEF7DD
:1017300078FF4CF25030FFF72AFA4FF40171322053
:10174000FEF76FFF4CF25030FFF721FA40F20251E2
:101750003320FEF766FF4CF25030FFF718FA40F2E4
:1017600007513420FEF75DFF4CF25030FFF70FFABF
:101770004FF401713520FEF754FF4CF25030FFF763
:1017800006FA4FF401713620FEF74BFF4CF2503051
:10179000FFF7FDF940F202513720FEF742FF4CF20D
:1017A0005030FFF7F4F940F202313A20FEF739FFEA
:1017B0004CF25030FFF7EBF940F202313B20FEF7DC
:1017C00030FF4CF25030FFF7E2F900212320FEF702
:1017D00028FF4CF25030FFF7DAF900212420FEF701
:1017E00020FF4CF25030FFF7D2F94FF40041252092
:1017F000FEF717FF4CF25030FFF7C9F900214F20D8
:10180000FEF70FFF00214E20FEF70BFFCAE0504805
:101810000088A0F5EE418339F8D10121FF20FEF7C1
:1018200000FF0821F320FEF7FCFE4FF48071012039
:10183000FEF7F7FE4FF4E0610220FEF7F2FE41F200
:1018400038010320FEF7EDFE40F202310820FEF7DA
:10185000E8FE40F207210820FEF7E3FE0021092000
:10186000FEF7DFFE00210A20FEF7DBFE002110203C
:10187000FEF7D7FE05211120FEF7D3FE002112202E
:10188000FEF7CFFE00211320FEF7CBFE3220FFF73C
:101890007EF941F2B0211020FEF7C3FE3220FFF79F
:1018A00076F907211120FEF7BCFE3220FFF76FF911
:1018B0008B211220FEF7B5FE3220FFF768F94FF4B6
:1018C000B8511320FEF7ADFE3220FFF760F900217A
:1018D0002020FEF7A6FE00212120FEF7A2FE2221F5
:1018E0002920FEF79EFE00213020FEF79AFE40F2EE
:1018F00007713120FEF795FE40F205513220FEF7C8
:1019000090FE40F207113520FEF78BFE08213620AD
:10191000FEF787FE00213720FEF783FE40F202210A
:101920003820FEF77EFE4FF483713920FEF779FEF2
:1019300040F202213C20FEF774FE4FF481613D200D
:10194000FEF76FFE3220FFF722F90021502001E060
:1019500000000068FEF765FEEF215120FEF761FEF2
:1019600000215220FEF75DFE40F23F115320FEF7AA
:1019700058FE4FF427416020FEF753FE01216120FD
:10198000FEF74FFE33219020FEF74BFE0B212B205C
:10199000FEF747FE40F233110720FEF742FE3220E9
:1019A000FFF7F5F84CF2503401E0601E84B2002CD1
:1019B000FBDC10BD10B503460C461E480088A0F5A0
:1019C000094189390BD121464E20FEF72AFE40F20B
:1019D0003F10C01A81B24F20FEF723FE28E01548C1
:1019E0000088A0F51941193908D119464E20FEF793
:1019F00018FE21464F20FEF714FE19E00D4800881E
:101A0000A0F5EE41833908D119462020FEF709FEE2
:101A100021462120FEF705FE0AE021462020FEF7A0
:101A200000FE40F23F10C01A81B22120FEF7F9FDFE
:101A300010BD0000000000682DE9F041FEF734FC05
:101A4000FFF7AAF84FF6FF70FFF78EF86420FFF754
:101A50006CF800210846FFF7ADFF00215020FEF78B
:101A6000E0FD00215220FEF7DCFDEF215120FEF7C2
:101A7000D8FD40F23F115320FEF7D3FDFEF7CCFD19
:101A800000BFFEF768FE0128FBD14DE0002027498A
:101A90000860091D0860FEF7D3FB02E02448806857
:101AA00084B214F4006FF9D102E02148806884B256
:101AB0004FF40060A043F8D1FEF7ACFB2FE04FF4E9
:101AC00080701C4908601C49C1F8100818488068DB
:101AD00084B2164800F10400006800F101001349C7
:101AE00001F10401086014F4807F18D008460068F2
:101AF000012801D1E5B212E02006060C45EA0600F5
:101B0000FFF725F8074600200849091D08603846F8
:101B1000FEF77EFD05480068401C04490860034844
:101B20000068B0F5963FCAD3B0E700000400006833
:101B300000100140140801400000014010B52020B1
:101B40000E4908604FF4FA70FEF7FBFF10200C49B5
:101B5000C1F810084FF4FA70FEF7F3FF102009499E
:101B600008604FF4FA70FEF7ECFF20200449C1F83A
:101B700014084FF4FA70FEF7E4FF10BD100801409E
:101B8000000001401408014070B504460D4600F005
:101B900061FA4220FEF748FF18B900F081FA0020F0
:101BA00070BD6420FEF7CDFF2046FEF73DFF18B95B
:101BB00000F076FA0020F3E700F072FA6420FEF7F6
:101BC000C0FF00F047FA4320FEF72EFF18B900F0DF
:101BD00067FA0020E4E76420FEF7B3FFFEF7F2FEA9
:101BE0002870FFF7ABFF00F05BFA0120D8E710B5D3
:101BF00000218C2000F072FA04213A2000F06EFAE5
:101C0000D021402000F06AFA00218C2000F066FA12
:101C10001421122000F062FA8021322000F05EFAD6
:101C20001621172000F05AFA0421182000F056FA65
:101C30000221192000F052FA7B211A2000F04EFAFE
:101C40000621032000F04AFA04210C2000F046FA95
:101C500000213E2000F042FA3A21702000F03EFAC6
:101C60003521712000F03AFA1121722000F036FA85
:101C70000021732000F032FA0021A22000F02EFA99
:101C8000FF21112000F02AFA20217A2000F026FA04
:101C90001C217B2000F022FA28217C2000F01EFA73
:101CA0003C217D2000F01AFA55217E2000F016FA22
:101CB00068217F2000F012FA7621802000F00EFAD1
:101CC0008021812000F00AFA8821822000F006FAA3
:101CD0008F21832000F002FA9621842000F0FEF983
:101CE000A321852000F0FAF9AF21862000F0F6F953
:101CF000C421872000F0F2F9D721882000F0EEF906
:101D0000E821892000F0EAF9B621322000F0E6F956
:101D1000FF21132000F0E2F90021084600F0DEF96F
:101D20000021102000F0DAF900210D2000F0D6F992
:101D30004E21142000F0D2F90521A52000F0CEF9A3
:101D40000721AB2000F0CAF97521242000F0C6F964
:101D50006321252000F0C2F9A521262000F0BEF95C
:101D600078219F2000F0BAF96821A02000F0B6F990
:101D7000DF21A62000F0B2F9DF21A72000F0AEF9A4
:101D8000F021A82000F0AAF99021A92000F0A6F9DE
:101D90009421AA2000F0A2F961210E2000F09EF902
:101DA00043210F2000F09AF90221162000F096F945
:101DB00037211E2000F092F90221212000F08EF937
:101DC0009121222000F08AF90721292000F086F9CC
:101DD0000B21332000F082F90B21352000F07EF931
:101DE0003F21372000F07AF90121382000F076F900
:101DF0000021392000F072F978213C2000F06EF9C2
:101E000040214D2000F06AF920214E2000F066F9B3
:101E10000021692000F062F94A216B2000F05EF990
:101E20001921742000F05AF94F218D2000F056F945
:101E300000218E2000F052F900218F2000F04EF991
:101E40000021902000F04AF90021912000F046F98D
:101E50000021922000F042F90021962000F03EF986
:101E600080219A2000F03AF98421B02000F036F960
:101E70000C21B12000F032F90E21B22000F02EF931
:101E80008221B32000F02AF90A21B82000F026F9B7
:101E90001421432000F022F9F021442000F01EF923
:101EA0003421452000F01AF95821462000F016F997
:101EB0002821472000F012F93A21482000F00EF9BD
:101EC0008821592000F00AF988215A2000F006F9EB
:101ED00044215B2000F002F967215C2000F0FEF84D
:101EE00049215D2000F0FAF80E215E2000F0F6F89E
:101EF0000421642000F0F2F82021652000F0EEF8C3
:101F00000521662000F0EAF80421942000F0E6F8AC
:101F10000821952000F0E2F80A216C2000F0DEF89C
:101F200055216D2000F0DAF811216E2000F0D6F86E
:101F30009F216F2000F0D2F840216A2000F0CEF8F7
:101F40004021012000F0CAF84021022000F0C6F82C
:101F50000021152000F0C2F880214F2000F0BEF8CB
:101F60008021502000F0BAF80021512000F0B6F88E
:101F70002221522000F0B2F85E21532000F0AEF88A
:101F80008021542000F0AAF89E21582000F0A6F8E5
:101F90000821412000F0A2F800213F2000F09EF827
:101FA0000521752000F09AF8E121762000F096F8DE
:101FB00000214C2000F092F80121772000F08EF8EB
:101FC000C1213D2000F08AF809214B2000F086F85D
:101FD0006021C92000F082F84021562000F07EF8F0
:101FE0001121342000F07AF802213B2000F076F82D
:101FF0008921A42000F072F80021962000F06EF8EC
:102000003021972000F06AF82021982000F066F82F
:102010003021992000F062F884219A2000F05EF8C7
:1020200029219B2000F05AF803219C2000F056F84B
:102030004C219D2000F052F83F219E2000F04EF8E8
:102040000021092000F04AF8C2213B2000F046F8A8
:1020500010BD000010B520200E4908604FF4FA7042
:10206000FEF76FFD10200C49C1F810084FF4FA700C
:10207000FEF767FD2020094908604FF4FA70FEF76B
:1020800060FD10200449C1F814084FF4FA70FEF7FF
:1020900058FD10BD10080140000001401408014027
:1020A00010B520200A4908604FF4FA70FEF749FD88
:1020B00010200849C1F810084FF4FA70FEF741FDEE
:1020C0002020054908604FF4FA70FEF73AFD10BD74
:1020D00014080140000001401008014070B504469A
:1020E0000D46FFF7B7FF4220FEF79EFC18B9FFF739
:1020F000D7FF002070BD6420FEF723FD2046FEF7C9
:1021000093FC18B9FFF7CCFF0020F3E76420FEF73B
:1021100018FD2846FEF788FC18B9FFF7C1FF00201C
:10212000E8E7FFF7BDFF0120E4E700003C210008DD
:1021300000000068180000000C0B00080000000000
:10214000000000000000000000000000000000008F
:04215000000000008B
:0400000508000131BD
:00000001FF
