:020000040800F2
:1000000000040020E31B0008AD0A0008AF0A000846
:10001000B30A0008B70A0008BB0A00080000000085
:10002000000000000000000000000000BF0A0008FF
:10003000C10A000800000000C30A0008C50A000841
:10004000CB060008031C0008031C0008031C000862
:10005000031C0008031C0008031C0008031C000804
:10006000031C0008031C0008031C0008031C0008F4
:10007000031C0008031C0008031C0008031C0008E4
:10008000031C0008031C0008031C0008031C0008D4
:10009000031C0008031C0008031C0008031C0008C4
:1000A000031C0008031C0008031C0008031C0008B4
:1000B000031C0008031C0008031C0008031C0008A4
:1000C000031C0008031C0008031C0008031C000894
:1000D000031C0008031C0008031C0008031C000884
:1000E000031C0008031C0008031C0008031C000874
:1000F000031C0008031C0008031C0008031C000864
:10010000031C0008031C0008031C0008031C000853
:10011000031C0008031C0008031C0008031C000843
:10012000031C0008031C0008031C0008031C000833
:1001300000F002F800F03AF80AA090E8000C8244BF
:100140008344AAF10107DA4501D100F02FF8AFF29C
:10015000090EBAE80F0013F0010F18BFFB1A43F0A5
:1001600001031847201F0000401F0000103A24BF61
:1001700078C878C1FAD8520724BF30C830C144BF0C
:1001800004680C607047000000230024002500264E
:10019000103A28BF78C1FBD8520728BF30C148BFEA
:1001A0000B6070471FB51FBD10B510BD01F041FDBC
:1001B0001146FFF7F7FF00F0EBFB01F05FFD03B422
:1001C000FFF7F2FF03BC01F063FD0000002904DA31
:1001D0004A4211B22D22027001E0202202706422F4
:1001E00091FBF2F23032D3B2421C104613706422FB
:1001F00091FBF2F302FB13110A2291FBF2F230326F
:10020000D3B2421C104613700A2291FBF2F302FB98
:10021000131101F13002D3B2421C10461370704723
:1002200008B54020ADF8000003208DF8020014202E
:100230008DF803006946FE4801F0FCF88020ADF817
:10024000000003208DF8020014208DF80300694699
:10025000F74801F0EFF808BD1E2001E0411EC8B2CA
:100260000028FBD1704741F2883000E0401E002892
:10027000FCD1704700B58020ED4910310860402066
:100280000860FFF7E9FFEA480830006808B9012074
:1002900000E0002010F0800F01D0002000BD802081
:1002A000E34914310860FFF7D7FFE14808300068E0
:1002B00010F0800F01D00020F0E78020DC491431DD
:1002C0000860FFF7C9FF0120E8E700B54020D849E2
:1002D00014310860FFF7C0FF8020D5491431086051
:1002E000FFF7BAFF4020D24910310860FFF7B4FF92
:1002F0008020CF4910310860FFF7AEFF00BD00B588
:100300004020CB4914310860FFF7A6FF8020C84980
:1003100014310860FFF7A0FF4020C5491031086084
:10032000FFF79AFF4020C24914310860FFF794FF9D
:1003300000BD00B54020BE4914310860FFF78CFFB6
:100340008020BB4910310860FFF786FF4020B84984
:1003500010310860FFF780FF4020B5491431086074
:10036000FFF77AFF00BD00B54020B14914310860A5
:10037000FFF772FF8020AE4910310860FFF76CFF75
:100380004020AB4910310860FFF766FFA8480830ED
:10039000006810F0800F07D04020A5491431086094
:1003A000FFF75AFF002000BD4020A149143108602A
:1003B000FFF752FF0120F6E700B5024608231BE0D5
:1003C00040209B4914310860FFF746FF12F0800F70
:1003D00004D0802096491031086003E080209449C1
:1003E000143108605006020EFFF736FF4020904996
:1003F00010310860FFF730FF1800A3F10101CBB204
:10040000DED140208A491431086000BD00B50823C0
:100410000022802086491031086015E05006020E47
:100420004020834914310860FFF716FF40208049BF
:1004300010310860FFF710FF7D480830006810F0A9
:10044000800F01D042F001021800A3F10101CBB2EC
:10045000E4D14020764914310860104600BD70B5E3
:1004600006460C461546FFF705FF08B9002070BD8B
:100470003046FFF7A1FFFFF776FF18B9FFF725FF1A
:100480000020F4E72046FFF797FFFFF76CFF2846B0
:10049000FFF792FFFFF767FFFFF717FFFFF7E3FE96
:1004A0000120E4E770B504460D46FFF7E3FE08B906
:1004B000002070BD2046FFF77FFFFFF754FF30B9E3
:1004C000FFF703FF01205B4908700020F1E7284691
:1004D000FFF772FFFFF747FFFFF7CCFE611CC8B2C2
:1004E000FFF76AFFFFF73FFFFFF790FF0646FFF7B2
:1004F00020FFFFF7EAFE3046DBE710B500F0E4FA34
:100500004FF4803000F000FB00F03DFB4A490870DA
:1005100008460078012826D1002000F07AFB002050
:1005200000F089FB4FF4806000F07CFB022001F0BA
:10053000BDF8102001F0CEF84FF4E0114FF48030F8
:1005400000F04AFB012000F053FB00BF392000F00F
:10055000FEFA0028FAD0022000F04DFB00BF00F0A8
:1005600053FB0828FBD101210C2000F017FC0121CE
:10057000302000F013FC0121C02000F00FFC01210D
:1005800040F2011000F00AFC10BD08B501213C202A
:1005900000F004FC4FF40070ADF8000018208DF856
:1005A000030003208DF802006946244800F042FF52
:1005B0004FF48060ADF8000004208DF80300694618
:1005C0001E4800F037FF08BD00B587B001214FF489
:1005D000904000F0E3FB0020ADF80400ADF8060009
:1005E0004FF40070ADF808000020ADF80A0001A932
:1005F000134800F0D8FC4FF4E13003900020ADF830
:100600001000ADF81200ADF81400ADF818000C2081
:10061000ADF8160003A90A4800F06BFC40F2255122
:10062000074800F0A8FD012240F22551044809E0E6
:10063000000C0140000000200600002000080140DE
:100640000038014000F0D2FC0121FE4800F0C2FC5D
:1006500007B000BD08B54FF4E06000F01DFE0020BB
:100660008DF800008DF80100684600F01AFE08BD04
:1006700010B50121C80200F09EFB4FF4C07000F0DD
:10068000D2FD412000F0D8FD502000F0F0FD00F038
:10069000F9FD00F0E2FD10BD01B502E00098401E3A
:1006A000009000980028F9D108BD01B509E00020AC
:1006B00000E0401C4CF250318842FAD30099491EA8
:1006C000009100990029F2D108BD10B5502000F02A
:1006D000C8FD00F0D7FD10BD10B504462146D9482D
:1006E00000F0E5FC0120FFF7E0FF10BD00B500229F
:1006F0006B21D020FFF7B3FE07221921D020FFF78E
:10070000AEFE06221A21D020FFF7A9FE18221B21D7
:10071000D020FFF7A4FE01221C21D020FFF79FFE6E
:1007200000BD00B53C21D020FFF7BCFEC6490870D3
:100730003B21D020FFF7B6FEC34948700846007839
:10074000497840EA012000B2C04908800846B0F963
:100750000000A42190FBF1F000B2BC4908803E21CA
:10076000D020FFF79FFEB84988703D21D020FFF7C9
:1007700099FEB549C87008468078C97840EA0120DA
:1007800000B2B34908800846B0F90000A42190FBEC
:10079000F1F000B2AE4908804021D020FFF782FE80
:1007A000A94908713F21D020FFF77CFEA649487176
:1007B00008460079497940EA012000B2A54908803D
:1007C0000846B0F90000A42190FBF1F000B2A14965
:1007D000088000BD2DE9F0414421D020FFF762FEE2
:1007E000994908704321D020FFF75CFE9649487074
:1007F00008460078497840EA012000B29349088011
:100800000846B0F9000001F0D2FB06464FF0663210
:10081000914B01F045FA044601F09AFB00B28B4976
:1008200008804621D020FFF73DFE8749887045218A
:10083000D020FFF737FE8449C87008468078C97811
:1008400040EA012000B2824908800846B0F9000061
:1008500001F0ADFB06464FF066327F4B01F020FA07
:10086000044601F075FB00B2794908804821D02088
:10087000FFF718FE744908714721D020FFF712FED8
:100880007149487108460079497940EA012000B26F
:10089000704908800846B0F9000001F088FB064660
:1008A0004FF066326C4B01F0FBF9044601F050FB4F
:1008B00000B268490880BDE8F08100B50222372106
:1008C000D020FFF7CCFD0A20FFF7EFFE01220A211E
:1008D0001820FFF7C4FD0A20FFF7E7FE03211820C8
:1008E000FFF7E0FD5849087004211820FFF7DAFDF2
:1008F0005549487008460078497840EA012000B21E
:100900005249088005211820FFF7CCFD4E49887018
:1009100006211820FFF7C6FD4B49C87008468078AD
:10092000C97840EA012000B249490880072118200F
:10093000FFF7B8FD4449087108211820FFF7B2FD00
:100940004149487108460079497940EA012000B2DE
:100950004049088000BD70B506460D463046FFF799
:10096000BBFE2846FFF7B8FE3A20FFF7B5FE00248D
:1009700005E03A49085DFFF7AFFE601CC4B2042CE5
:10098000F7DB2020FFF7A8FE2020FFF7A5FE70BDB3
:10099000FFF7B3FDFFF7F9FDFFF716FEFFF740FC89
:1009A0000A20FFF782FEFFF7A1FE78E0FFF7B9FE0D
:1009B0002648B0F900102948FFF708FC58214120CB
:1009C000FFF7C9FF2248B0F900102448FFF7FEFBEB
:1009D00059214120FFF7BFFF1E48B0F900101F4802
:1009E000FFF7F4FB5A214120FFF7B5FFFFF7F2FEB6
:1009F0001648B0F900101948FFF7E8FB58214720C6
:100A0000FFF7A9FF1248B0F900101448FFF7DEFB0A
:100A100059214720FFF79FFF0E48B0F900100F48FB
:100A2000FFF7D4FB5A214720FFF795FFFFF745FF5B
:100A30000648B0F900100948FFF7C8FB58214D20BF
:100A40000EE0000000380140280000200C000020CB
:100A50000E000020100000206666304007000020D5
:100A6000FFF779FF0E48B0F900100E48FFF7AEFB14
:100A700059214D20FFF76FFF0B48B0F900100948CE
:100A8000FFF7A4FB5A214D20FFF765FF0D20FFF76C
:100A900023FE0A20FFF720FE0A20FFF706FE85E767
:100AA0000E0000200700002010000020704700BF4B
:100AB000FEE700BFFEE700BFFEE700BFFEE77047AE
:100AC0007047704770470000DD48006840F0010043
:100AD000DB49086008464068DA490840D849486060
:100AE00008460068D8490840D549086008460068AB
:100AF00020F4802008600846406820F4FE0048602A
:100B00004FF41F0088607047CD49096821F4803197
:100B1000CB4A11601146096821F480211160B0F5BB
:100B2000803F03D0B0F5802F0ED106E0C44909689C
:100B300041F48031C24A116007E0C149096841F4BB
:100B4000A021BF4A116000E000BF00BF704710B590
:100B500001460022002300204A11012A02D1B84C8C
:100B6000236806E0022A02D1B54C236A01E0B44CA6
:100B7000636A01F01F02012494401C4201D001204D
:100B800000E0002010BD38B50020009000240025B2
:100B900000BF3120FFF7DBFF05460098401C0090A6
:100BA0000098B0F5A06F01D0002DF2D03120FFF7F2
:100BB000CEFF08B1012400E00024204638BD0146E4
:100BC00000209F4A106820F0F80040EAC100106041
:100BD00070479E490860704702460020984B58684D
:100BE00020F47C1042EA01031843954B586070478B
:100BF00096490866704701460020914A506820F0E7
:100C000003000843506070478D48406800F00C00B6
:100C10007047014600208A4A506820F0F0000843DF
:100C20005060704701460020854A506820F4E0601B
:100C300008435060704701460020814A506820F404
:100C4000605040EAC1005060704729B17C4A527A36
:100C500002437B4B5A7204E0794A527A8243784BC2
:100C60005A7270477A490860704701460020744AFA
:100C7000506820F440400843506070470021754A96
:100C800011706F4A82F82010012802D0042808D180
:100C900003E001216F4A117004E005216D4A1170D3
:100CA00000E000BF00BF70476B49086070476449AF
:100CB000096A0143624A1162704767494439086012
:100CC000704730B500210022002400235C4D6D6880
:100CD00005F00C0121B1042905D0082923D105E034
:100CE0005E4D056022E05D4D05601FE0544D6D686E
:100CF00005F47012524D6D6805F48034022505EB41
:100D000092421CB9564D554305600BE04C4D6D6841
:100D100015F4003F03D0524D5543056002E04F4D9E
:100D20005543056002E04D4D056000BF00BF444DD6
:100D30006D6805F0F00109094A4D6B5C0568DD40FE
:100D400045603F4D6D6805F4E061090A454D6B5CF7
:100D50004568DD4085603A4D6D6805F46051C90A0B
:100D6000404D6B5C4568DD40C560354D6D6805F4F0
:100D70004041890B3C4D6B5CC568B5FBF3F50561E3
:100D800030BD29B12E4A526902432D4B5A6104E00D
:100D90002B4A526982432A4B5A61704729B1284A2B
:100DA00092690243264B9A6104E0254A9269824384
:100DB000234B9A61704729B1214AD2690243204BE3
:100DC000DA6104E01E4AD26982431D4BDA61704742
:100DD00029B11B4AD2680243194BDA6004E0184A71
:100DE000D2688243164BDA60704729B1144A1269FF
:100DF0000243134B1A6104E0114A12698243104BFB
:100E00001A61704714494039086070470F49C86437
:100E100070470B49C87170470948406A40F08070BC
:100E200007494862704701460020054A92680A4215
:100E300001D0012000E0002070470149887270470E
:100E4000001002400000FFF8FFFFF6FE00004242E3
:100E5000D8004242201002408004424200127A0030
:100E600000093D00140000202400002010B50446B5
:100E7000E248844209D101218803FFF7A9FF00213C
:100E80004FF48040FFF7A4FF32E0DD48844209D1EF
:100E900001214804FFF7A9FF00214FF40030FFF7BC
:100EA000A4FF25E0D748844209D101218804FFF737
:100EB0009CFF00214FF48020FFF797FF18E0D248F5
:100EC000844209D10121C804FFF78FFF00214FF4AC
:100ED0000020FFF78AFF0BE0CC48844208D10121B3
:100EE0000805FFF782FF00214FF48010FFF77DFF18
:100EF00010BD2DE9F04786B005460E460024A246F7
:100F000000BF00BF0027B08900B100BF2F462C8A68
:100F10004CF6FF700440F08804432C82AC894EF6F6
:100F2000F3100440B08831890843718908430443B1
:100F3000AC81AC8A4FF6FF400440B0890443AC82D8
:100F400001A8FFF7BEFEAD48874202D1DDF810A030
:100F500001E0DDF80CA00AEBCA0000EB0A103168D2
:100F60008900B0FBF1F86420B8FBF0F0040120091F
:100F7000642101FB1089322000EB0910B0FBF1F075
:100F800000F00F0004432C8106B0BDE8F0874FF459
:100F90001651016000218180C18001810C214181B5
:100FA00000218181704710B502460020108A4FF25F
:100FB000FF0318400B884C8823438C882343CC883C
:100FC00023431843108210BD00210180418081809D
:100FD000C180704721B1828942F40052828104E0CD
:100FE00082894DF6FF731A4082817047F0B503463F
:100FF0000024002600250020A1F510676A3F00D1DB
:1010000000BF1846C1F3421401F01F06012707FA7A
:1010100006F5012C01D10C3004E0022C01D1103076
:1010200000E014301AB107682F43076002E0076838
:10103000AF430760F0BD1AB1838A0B43838202E09D
:10104000838A8B4383827047028A4FF6F0731A407B
:101050000282028A0A430282704782894FF2FF733A
:101060001A40828182890A438281704721B1828934
:1010700042F00202828104E082894FF6FD731A4039
:1010800082817047028A4FF6DF731A400282028A19
:101090000A430282704721B1028A42F480420282EE
:1010A00004E0028A4BF6FF731A4002827047C1F3D4
:1010B00008028280704701468888C0F308007047A4
:1010C000818941F0010181817047028BD2B2028394
:1010D000028B42EA012202837047028B02F47F42B4
:1010E0000283028B0A430283704721B1828A42F055
:1010F0002002828204E0828A4FF6DF731A408282E5
:10110000704721B1828A42F01002828204E0828A12
:101110004FF6EF731A408282704721B1828A42F003
:101120000802828204E0828A4FF6F7731A408282B4
:101130007047828A4FF6FB731A408282828A0A4382
:101140008282704721B1828A42F00202828204E0E8
:10115000828A4FF6FD731A40828270470246002051
:10116000B1F5007F00D100BF13880B4201D00120F0
:1011700000E00020704701F40072B2F5007F00D15A
:1011800000BFCA430280704770B5024600240023A6
:1011900000250020A1F510666A3E00D100BFC1F312
:1011A000421501F01F03012606FA03F3012D02D1B7
:1011B0009689334006E0022D02D1168A334001E0C1
:1011C000968A33400C12012606FA04F4168834403D
:1011D00013B10CB1012000E0002070BD10B5002259
:1011E0000023A1F510646A3C00D100BF0A1201245B
:1011F0009440A3B2DC43048010BD000000380140DD
:101200000044004000480040004C004000500040B6
:1012100010B50121C802FFF7E8FD00214FF400607E
:10122000FFF7E3FD10BD0021194A126822F4C071D6
:101230000143174A1160704708B500210091144915
:10124000096821F07F01009100F07F01009A1143AD
:1012500000910F4A0099116008BD01200D490860F6
:10126000704700F07F010A4A121F1160704740F07A
:101270008001074A121F116070470548001D006871
:10128000C0B2704700200249091D08607047000085
:10129000042C0040A480054231490143314A1160C9
:1012A000704770B5002100230F22C4780CB32D4C79
:1012B000246804F4E064C4F5E064210AC1F1040385
:1012C000CA40447804FA03F18478144021430901A8
:1012D000254C0678A155047804F01F050124AC4084
:1012E00005786D114FF0E02606EB8505C5F8004145
:1012F00009E0047804F01F050124AC401B4D06787A
:10130000761145F8264070BD194A0A400243154B34
:101310001B1F1A60704739B1124A121D126802432E
:10132000104B1B1D1A6006E00E4A121D1268824304
:101330000C4B1B1D1A607047042808D14FF0E021A8
:10134000096941F004014FF0E022116107E04FF01C
:10135000E021096921F004014FF0E022116170479A
:101360000000FA050CED00E000E400E080E100E0A0
:1013700080FFFF1F10B50446C248844208D10121F6
:101380000420FFF725FD00210420FFF721FD46E0A2
:10139000BD48844208D101210820FFF719FD002132
:1013A0000820FFF715FD3AE0B848844208D1012132
:1013B0001020FFF70DFD00211020FFF709FD2EE0A2
:1013C000B348844208D101212020FFF701FD00210C
:1013D0002020FFF7FDFC22E0AE48844208D1012125
:1013E0004020FFF7F5FC00214020FFF7F1FC16E05C
:1013F000A948844208D101218020FFF7E9FC00219F
:101400008020FFF7E5FC0AE0A448844207D10121CF
:101410008015FFF7DDFC0021A015FFF7D9FC10BDFA
:1014200010B501210846FFF7D3FC00210120FFF78A
:10143000CFFC10BD2DE9F04102460025002600201A
:1014400000230024002791F803C00CF00F0591F849
:1014500003C01CF0100F03D091F802C04CEA050540
:1014600091F800C0BCF1000F31D0146800202BE0CF
:101470004FF0010C0CFA00F3B1F800C00CEA0306BF
:101480009E4220D183004FF00F0C0CFA03F7BC43AF
:1014900005FA03FC4CEA040491F803C0BCF1280FE0
:1014A00006D14FF0010C0CFA00FCC2F814C00AE09F
:1014B00091F803C0BCF1480F05D14FF0010C0CFAB4
:1014C00000FCC2F810C0401C0828D1D31460B1F849
:1014D00000C0BCF1FF0F34DD546800202EE000F1A5
:1014E000080C4FF0010808FA0CF3B1F800C00CEA40
:1014F00003069E4221D183004FF00F0C0CFA03F734
:10150000BC4305FA03FC4CEA040491F803C0BCF1A7
:10151000280F05D100F1080C08FA0CF8C2F8148065
:1015200091F803C0BCF1480F07D100F1080C4FF04F
:10153000010808FA0CF8C2F81080401C0828CED325
:101540005460BDE8F0814FF6FF7101800221817087
:101550000421C17070470246002093680B4201D0FD
:10156000012000E0002070470146886880B2704783
:1015700002460020D3680B4201D0012000E0002089
:1015800070470146C86880B2704701617047416189
:1015900070470AB1016100E041617047C160704766
:1015A0004FF480320A43826181618261826982697B
:1015B0007047024600203A4B18684FF68073184077
:1015C00040EA02100843364B186070473549C8613D
:1015D0007047F0B50A460023002400210025304E54
:1015E0007168C0F3034583B200F44016B6F5401F9E
:1015F00008D121F070612A4E766826F07066284F77
:101600007E6012E000F48016B6F5801F06D1032636
:1016100006FA05F4A14341F0706106E0460D36017B
:1016200003FA06F6B14341F0706122B1460D36016E
:1016300003FA06F631431A4E7160F0BD30B5002250
:101640008B071C0F0F2303FA04F2154B08338C1081
:1016500053F824309343124C08348D1044F825304D
:1016600023468C1053F824308C07240F00FA04F41E
:1016700023430B4C08348D1044F8253030BD0A4903
:101680000860704700080140000C01400010014054
:101690000014014000180140001C014000200140DE
:1016A0000000014000002042DC00204201460020F2
:1016B000FD4A106800F03800084310607047FA498E
:1016C000096821F00801F84A1160114609680143D0
:1016D00011607047F449096821F01001F24A116065
:1016E00011460968014311607047F048EE494860AF
:1016F000EF4848607047EC48006940F08000EA49D4
:10170000086170470420E849C96811F0010F01D051
:1017100001200EE0E449C96811F0040F01D0022055
:1017200007E0E149C96811F0100F01D0032000E083
:101730000420704708B500200090FF20009002E0D0
:101740000098401E009000980028F9D108BD70B59F
:1017500004460425FFF7D6FF054605E0FFF7EAFF3C
:10176000FFF7D0FF0546641E012D01D1002CF5D1F5
:1017700004B90525284670BD70B50546042440F619
:10178000FF70FFF7E4FF0446042C19D1C648006936
:1017900040F00200C449086108464561006940F014
:1017A0004000086140F6FF70FFF7D1FF0446052CAA
:1017B00006D0BD48006941F6FD710840BA4908618C
:1017C000204670BD10B5042440F6FF70FFF7BFFF40
:1017D0000446042C18D1B448006940F00400B24912
:1017E00008610846006940F04000086140F6FF705B
:1017F000FFF7ADFF0446052C06D0AB48006941F663
:10180000FB710840A8490861204610BD10B50424AA
:1018100040F6FF70FFF79BFF0446042C3BD1A34822
:10182000A1498860A24888600846006940F020000D
:1018300008610846006940F04000086140F6FF700A
:10184000FFF785FF0446042C1CD19748006941F638
:10185000DF710840944908610846006940F01000B3
:101860000861A520934908800F20FFF770FF044608
:10187000052C10D08C48006941F6EF7108408A4968
:10188000086108E0052C06D08748006941F6EF7131
:10189000084085490861204610BDF8B506460D464A
:1018A0000424002000900F20FFF751FF0446042C71
:1018B00028D17D48006940F001007B4908613580EE
:1018C0000F20FFF744FF0446042C12D1B01C0090F7
:1018D000280C009908800F20FFF739FF0446052CDB
:1018E00010D07148006941F6FE7108406E490861E8
:1018F00008E0052C06D06C48006941F6FE710840EE
:10190000694908612046F8BD70B505460E460424B5
:101910000F20FFF71CFF0446042C13D16248006916
:1019200040F00100604908612E800F20FFF70FFF93
:101930000446052C06D05C48006941F6FE7108405B
:1019400059490861204670BD70B505460E4604240D
:101950000F20FFF7FCFE0446042C17D153485249D0
:101960008860534888600846006940F010000861AC
:101970002E800F20FFF7EBFE0446052C06D04A48C8
:10198000006941F6EF71084047490861204670BD83
:101990002DE9F04704464FF6FF763746B046B1468C
:1019A0000425E443E6B2C4F30727C4F307484FEA2B
:1019B00014690F20FFF7CBFE0546042D40D13B48AC
:1019C000394988603A4888600846006940F010004C
:1019D0000861FF2E06D03748083006800F20FFF739
:1019E000B6FE0546042D08D1FF2F06D031480A3037
:1019F00007800F20FFF7ABFE0546042D0AD1B8F192
:101A0000FF0F07D02B480C30A0F800800F20FFF705
:101A10009EFE0546042D0AD1B9F1FF0F07D02548D7
:101A20000E30A0F800900F20FFF791FE0546052D1F
:101A300006D01D48006941F6EF7108401A49086157
:101A40002846BDE8F08770B50546042440F6FF70CF
:101A5000FFF77DFE0446042C49D1144812498860E2
:101A6000134888600846006940F020000861084675
:101A7000006940F04000086140F6FF70FFF767FE24
:101A80000446042C2AD10848006941F6DF71084059
:101A9000054908610846006940F0100008615DB121
:101AA0000020044908800AE0002002402301674525
:101AB000AB89EFCD00F8FF1FA5204549088040F60F
:101AC000FF70FFF744FE0446052C10D04148006922
:101AD00041F6EF7108403F49086108E0052C06D047
:101AE0003C48006941F6DF7108403A4908612046E8
:101AF00070BD2DE9F04105460E46174604243648D0
:101B000034498860354888600F20FFF720FE04467E
:101B1000042C19D12F48006940F010002D490861AC
:101B200047F0F800304328432949891C08800F20DA
:101B3000FFF70DFE0446052C06D02648006941F645
:101B4000EF710840234908612046BDE8F081214833
:101B5000C069800870471F48006A704700201D490F
:101B6000C96911F0020F01D0012000E00020704788
:101B700000201849096811F0200F01D0012000E071
:101B80000020704729B1134A12690243114B1A61B0
:101B900004E0104A126982430E4B1A6170470146F5
:101BA0000020012908D10B4AD26912F0010F01D09F
:101BB000012008E0002006E0064AD2680A4201D06F
:101BC000012000E0002070470249C8607047000013
:101BD00000F8FF1F0020024023016745AB89EFCDCD
:101BE00070470B4880470B4981F308880A48004733
:101BF000FEE7FEE7FEE7FEE7FEE7FEE7FEE7FEE7BD
:101C0000FEE7FEE705480649064A074B7047000015
:101C1000E11B000898060020310100089800002010
:101C20009806002098020020980200207047704714
:101C30007047754600F028F8AE46050069465346E1
:101C400020F00700854618B020B5FFF7DBFFBDE8A0
:101C500020404FF000064FF000074FF000084FF013
:101C6000000B21F00701AC46ACE8C009ACE8C009A4
:101C7000ACE8C009ACE8C0098D4670470446AFF334
:101C800000802046FEF79BFA004870473400002091
:101C900001491820ABBEFEE7260002007047000095
:101CA0002DE9C04130B4DFF8A0C23CEA111418BFDE
:101CB0003CEA131400F0EC8081EA03051CEA1114DD
:101CC00044EAD57418BF1CEA131500F0C780A4EBD2
:101CD00005044FF0004545EAC12145EAC32341EA26
:101CE000505143EA525304F17F74994204F5003491
:101CF0004FEAC0204FEAC22208BF904200F09C8009
:101D00004FEA13650FF24016765D4FEA134506FB66
:101D100005F7C7F1807706FB07F74FEAD737A7FB30
:101D200003687642C8F58038A7FB06CE38BFA8F115
:101D3000010807FB08E64FF0000EA6FB028CE6FB4D
:101D400003CEDCF1000CCEF1004E38BFAEF1010E37
:101D5000A6FB0C584FF000074FF00005E6FB0E877E
:101D6000A1FB08C6A0FB07CE16EB0E0645F1000549
:101D7000E1FB076515F1E04E7EBFA4F580345FEA14
:101D800046066D4116F1800745F100054FEA172719
:101D90004FEA066647EA0567A6F1DE46B6F1805FC0
:101DA0004FEA15251FD9384624F0010C05EBC47104
:101DB000BCF1FE6F01EB0C1102D8F0BCBDE8008154
:101DC00024425CBF01F5801E9EEAC47F02D4F0BCB1
:101DD000BDE80081244238D4F0BCA1F1C041BDE887
:101DE000004100F049B94FEAD22242EA43524FEA99
:101DF000D323A7FB02864FEAD02040EA415007FBDD
:101E000003661EEA0E0F4FEAD12105FB026658BF9A
:101E1000A6EB0056B6EB00564FEA520E4EEAC37ED2
:101E200018EB0E0E56EB530EBDD518EB02085E41B3
:101E30007F1C55F10005B6E74FF480154FF0000701
:101E40004FF000064FF00008ADE7F0BC4FF0000087
:101E500001F1C04101F00041BDE8008111EA0C1F11
:101E60000CEA131500D00CE013EA0C1F00F02580DB
:101E70004FF00000F0BC81EA030101F00041BDE831
:101E80000081F0BCBDE8004181EA030100F0F4B834
:101E9000F0BCBDE8004170B500F0A0F8097EFC3E42
:101EA00000F007B881EA03014FF0000001F00041A3
:101EB000704781EA030100F0DFB8F0BCBDE80041E3
:101EC0004FF0000021497047FFFDFBF9F7F5F4F2F0
:101ED000F0EEEDEBE9E8E6E4E3E1E0DEDDDBDAD8C5
:101EE000D7D5D4D3D1D0CFCDCCCBCAC8C7C6C5C423
:101EF000C2C1C0BFBEBDBCBBBAB9B8B7B6B5B4B33A
:101F0000B2B1B0AFAEADACABAAA9A8A8A7A6A5A424
:101F1000A3A3A2A1A09F9F9E9D9C9C9B9A999998E8
:101F20009797969595949393929191908F8F8E8E8B
:101F30008D8C8C8B8B8A8989888887878685858418
:101F400084838382828181800000FF070000F87F04
:101F50004FEA41034FEA5353A3F58063D3F11E03C5
:101F6000C8BFD3F1210C0CDD4FF0004242EAC12280
:101F700042EA505232FA03FC8CEAE17CACEBE170AD
:101F80007047102BC4BF0020704703F5787CBCF16C
:101F9000FF3F04D06FF0004282EA2100704770B525
:101FA00000F01CF84992248000207047F2E710F0FE
:101FB000004248BF4042B0FA80F310FA03F10AD061
:101FC000C3F11D0303F580634FEA415002EB035256
:101FD00002EBD12170474FF0000070470EF1020E66
:101FE0002EF0030E5EF8046B364205D4012A43EB53
:101FF000030515F5001F12D8012841EB010C1CF553
:10200000001F0CD80ED14FEAD17C15F5001F0CEB48
:102010004C0C0CF1020C08BF4CEBD37C04E04FF0ED
:10202000080C01E04FEAD37C0CEB4C0526FA05F6D0
:1020300006F00706B6F1040C06D20EEB860CBDE8DE
:1020400070404CF0010C6047DFE80CF0090B020215
:102050004FF000414FF00000A1F5002170BD19467E
:102060001046012851EB010418BFD4F5001484BFB9
:10207000002001F0004170BD0808A0F500114FEAF2
:1020800031017047A4200008000000202800000053
:102090006C010008CC200008280000207006000019
:1020A000880100080000000000000000000000009F
:1020B0000000000000000000000000000102030416
:0C20C000010203040607080902040608D8
:0400000508000131BD
:00000001FF
