:020000040800F2
:1000000098040020B52700084501000847010008B2
:100010004B0100084F0100085301000800000000D8
:100020000000000000000000000000005701000870
:1000300059010008000000005B0100085D01000894
:10004000CF270008CF270008CF270008CF270008B8
:10005000CF270008CF270008CF270008CF270008A8
:10006000CF270008CF27000875010008CF27000818
:10007000CF270008CF270008CF270008CF27000888
:10008000CF270008CF270008CF2700085F0100080E
:1000900061010008CF270008CF270008CF270008FC
:1000A000CF270008CF270008CF270008CF27000858
:1000B000CF270008CF270008CF270008CF27000848
:1000C000CF270008CF270008CF270008CF27000838
:1000D000CF270008650100086D010008CF27000840
:1000E000CF270008CF270008CF270008CF27000818
:1000F000CF270008CF270008CF270008CF27000808
:10010000CF27000863010008CF270008CF27000889
:10011000CF270008CF270008CF270008CF270008E7
:10012000CF270008CF270008CF270008CF270008D7
:10013000DFF80CD002F062FC00480047E50200083E
:1001400098040020704700BFFEE700BFFEE700BF35
:10015000FEE700BFFEE77047704770477047704783
:100160007047704710B500F018FA10BD10B500F0D8
:1001700033FA10BD10B53048006820F010002F4948
:10018000C1F800040846D0F8040420F01000C1F8BB
:1001900004040846D0F80C0880F0080028490860DC
:1001A0004FF00100274908602749C1F8B40141F226
:1001B00018014FF0030000F0B9FC0021502000F0BE
:1001C000B5FCEF21512000F0B1FC0021522000F0DD
:1001D000ADFC40F23F11532000F0A8FC002120208C
:1001E00000F0A4FC40F23F11212000F09FFC00F041
:1001F000E5FC012015490860154908604FF0000032
:1002000001F1040108600F4908600F49C1F8B40109
:100210000A48D0F8040440F010000849C1F804046A
:100220000846D0F8000440F01000034908604FF081
:10023000100002F0AEFA10BD0004014000000140C1
:100240000C080140AC01214200002242A0012242E0
:100250009801224200B587B04FF48070ADF81800C5
:1002600018208DF81B0003208DF81A0006A95148AC
:1002700001F0EEFC01A801F024FF062001F0C9FF07
:1002800007B000BD10B501F029FE4FF4803001F039
:1002900045FE01F082FE0446012C1ED1002001F033
:1002A000BBFE002001F0C8FEA00201F0BDFE4FF42D
:1002B000E011200401F095FE012001F09DFE00BF39
:1002C000392001F04EFE0028FAD0022001F097FEFE
:1002D00000BF01F09CFE0828FBD10121052001F0A0
:1002E0005EFF10BD1CB5FFF7CDFF482000F07CFB82
:1002F0004FF4E13000F029F9FFF7ACFF2EA002F037
:10030000CDFB03231022D1012A4800F0FAFA03237F
:10031000102251022E4800F0F4FA03231022910219
:100320002B4800F0EEFA03231022D102284800F0F7
:10033000E8FA0120274908602749C1F8B40100F014
:100340005BFC1F2000F045FC4FF6E070234908805D
:100350001F202349088023A23221142001F071F8C4
:1003600023A26421142001F06CF825A29621142008
:1003700001F067F80020284908601749C1F8BC015E
:100380004FF0140000F047FB01202449086001F001
:1003900079F800BF01F037FB0128FBD105230222C9
:1003A000CDE900230C2348221021094800F0C9FAA6
:1003B00000BFFEE70008014051463A20596F752002
:1003C0006172652077656C636F6D210D0A00000016
:1003D00000100140AC0121420000224240000020F8
:1003E0004200002051462057656C636F6D0000008D
:1003F00053544D33322043616D657261000000003B
:100400004F563737323520496E6974696E672E2E24
:100410002E2E2E2E00000000B8012242BC012242E6
:10042000014600BF704770B504460D4600BF40212D
:10043000FD4802F0C8F80028F9D0E1B2FA4802F00D
:1004400054F8204670BD38B504460D46E0B28DF82C
:10045000000000208DF801008DF8025001208DF879
:100460000300684601F01DFB38BD38B504460D4653
:10047000EE4A115DEE4A32F81400FFF7E4FFED4951
:1004800051F82410EC4A52F8242041EA02000121DC
:1004900001F085FE34B9E94951F82400012101F049
:1004A0007EFE05E0E54951F82400012101F084FEBB
:1004B00018208DF80300E24830F81400ADF8000071
:1004C00003208DF80200DF4951F82400694601F04D
:1004D000BFFB04208DF80300DB4830F81400ADF8B2
:1004E0000000D849083151F82400694601F0B0FBFA
:1004F000D449083951F82400294601F0FCFED149BD
:10050000083951F82400012240F2255101F08AFFF8
:10051000CC49083951F82400012101F077FF38BD9A
:1005200070B504460D4600BFC649083951F824008D
:10053000402102F048F80028F6D0C249083951F8A5
:100540002400294601F0D1FF70BD1FB50446009478
:100550000020ADF80400ADF80600ADF80800ADF8D5
:100560000C000C20ADF80A0069460020FFF77DFF63
:100570001FBD1FB5044600940020ADF80400ADF87F
:100580000600ADF80800ADF80C000C20ADF80A002C
:1005900069460120FFF769FF1FBD10B540F22551E4
:1005A000A14802F026F838B19F4801F0A2FFA74900
:1005B000A44A103212788854A24810300078A14919
:1005C00011310978884206DA9E4810300078401CC4
:1005D0009C491031087010BD10B540F225519C485F
:1005E00002F007F870B19A4801F083FFC1B2954854
:1005F000123002780078401C924B123318709348E6
:100600001E30815410BD10B5044600BF40218648FD
:1006100001F0D9FF0028F9D02146834801F065FF99
:1006200010BD10B5044600BF4021894801F0CBFF42
:100630000028F9D02146864801F057FF10BD10B5BB
:100640000446AA20FFF7DFFF2046FFF7DCFF552016
:10065000FFF7D9FF10BD2DE9F05F04460D461646A1
:100660004FF0000BE7B2C4F30728C4F307494FEA81
:10067000246A8BF0090B8BEA060B8BEA0A0000F068
:10068000FF0B8BEA090B8BEA080B8BEA070BAA20FE
:10069000FFF7B9FF0920FFF7B6FF3046FFF7B3FFBA
:1006A0006DB10AF0FF00FFF7AEFF4846FFF7ABFF62
:1006B0004046FFF7A8FF3846FFF7A5FF0CE0384695
:1006C000FFF7A1FF4046FFF79EFF4846FFF79BFF5D
:1006D0000AF0FF00FFF797FF5846FFF794FF5520F9
:1006E000FFF791FFBDE8F09F10B5044603E014F852
:1006F000010BFFF788FF20780028F8D110BD10B556
:10070000024600234F4811300078884202D04D48FD
:10071000113001704B48103000784A4C1134247865
:10072000A04211D1002304E04848C05CD054581CBA
:10073000C3B24448113000788342F5DB0020414CBD
:1007400010342070012010BD0020FCE77EB5044667
:10075000684600210A460B460EC0002500260921E6
:100760006846FFF7CCFFC8B19DF80000AA2815D154
:100770009DF80800552811D1032507E01DF8050054
:10078000E91EC90088400643681CC5B2072DF5DB89
:100790009DF802002B491331087026602948133058
:1007A00000787EBD10B5044603E02078FFF72BFFEC
:1007B000641C20780028F8D110BD3EB504460925F8
:1007C0000DE00A20B4FBF0F100FB11403030C0B264
:1007D0000DF805000A20B4FBF0F4681E45B2002DA8
:1007E000EFDA002506E01DF80500302800D003E010
:1007F000681C45B2092DF6DB00BF05E01DF80500B9
:10080000FFF701FF681C45B20A2DF7DB3EBD7CB542
:10081000044600208DF8060030208DF80000782076
:100820008DF8010005251EE000380140E82D000884
:10083000E42D0008CC2D0008D42D0008C42D00089C
:10084000DC2D000808000020E02D000870000020CA
:100850000044004004F00F001249085C0DF8050048
:100860002411681EC5B2022DF4DA6846FFF79AFF1C
:100870007CBD10B504463020FFF7C5FE7820FFF799
:10088000C2FE084901EB24110878FFF7BCFE04F012
:100890000F01044A505CFFF7B6FE2020FFF7B3FEBD
:1008A00010BD0000EA2D000810B50446204601F0F6
:1008B000F3F800214FF0006001F02EF910BD024660
:1008C000002100BF08E0414850F82100904201D1CA
:1008D00008467047481CC1B20629F4DB0020F8E73F
:1008E0000246002100BF08E0394830F8110090426C
:1008F00001D108467047481CC1B21029F4DB002022
:10090000F8E72DE9F84304460D46174698460026B9
:100910002046FFF7D4FF06462E4951F82600012154
:1009200001F03DFC8DF80370ADF80050B8F1000FF8
:1009300001D08DF802806946204601F089F9BDE8B2
:10094000F8832DE9FE4F04460D4616461F46DDE9A5
:100950000C894FF0000AD3462046FFF7B0FF8246CD
:100960002846FFF7BDFF834600233246294620462E
:10097000FFF7C7FF0121084601F011FC164A12F8E3
:100980000B10164A12F80A0001F073FA144850F8D6
:100990002B00019000208DF808008DF809700120CF
:1009A0008DF80A0001A801F076FE0E4810F80B0041
:1009B0008DF800008DF801808DF8029001208DF8EF
:1009C0000300684601F06DF8BDE8FE8F20000020AE
:1009D000FC2D00081C2E00083F2E0008382E0008B1
:1009E000502E0008902E00084FF0E021096921F0F8
:1009F00004014FF0E02211610146C21700EB527270
:100A0000D2101F4B1A70194609784FF47A7251436D
:100A10009A1C118070471A4A921C128842434FF068
:100A2000E0235A6100229A6101221A6100BF4FF04F
:100A3000E022116911F0010F02D011F4803FF6D0CD
:100A400000224FF0E0231A619A6170470C4A127835
:100A500042434FF0E0235A6100229A6101221A6159
:100A600000BF4FF0E022116911F0010F02D011F424
:100A7000803FF6D000224FF0E0231A619A61704760
:100A80003C0000200121FF4A1160FF4AC2F8981182
:100A90004FF00001C2F89C11FC49096841F47F4104
:100AA00001EA0001F94A11604FF00101F84A1160B2
:100AB0004FF00001F44AC2F89C11F449096841F46E
:100AC0007F4101EA0021F14A11604FF00101EE4A35
:100AD000C2F89C1170470021EA4A11604FF00101F1
:100AE000E94AC2F898114FF00001C2F89C11E74999
:100AF000096841F47F4101EA0001E44A11604FF0C6
:100B00000101E34A11604FF00001DF4AC2F89C1175
:100B1000DE49096841F47F4101EA0021DB4A1160A6
:100B20004FF00101D84AC2F89C11704710B5034636
:100B30000C461846FFF7CFFF2046FFF7A3FF10BD76
:100B400070B503461846FFF7C6FF4FF08830D1490D
:100B50000860D149C1F8040C4FF6FF70CB4908601A
:100B60004FF00100C74908604FF00000CB49086012
:100B70004FF00100C449C1F89801C948006800F469
:100B80007F444FF00000C54908604FF00100BE49A6
:100B9000C1F89801C048D0F8080C00F47F4544EA39
:100BA00025264FF03330BB49086001F1040108608D
:100BB0004FF6FF70B5490860304670BD00B5222081
:100BC000FFF789FF00BD00B503461846FFF75AFF3F
:100BD00000BD70B5054600240021084601F040FF25
:100BE000FFF7ECFF00BF03E02846FFF74BFF641C54
:100BF000B4F5963FF8D370BD10B5AA48806940F0AF
:100C00000800A84988610846806940F010008861A2
:100C10000846806940F0010088614FF03330A249F6
:100C200008609D49C1F8000C4FF6FF7097490860B5
:100C30004FF033309D49486008604FF6FF70C86040
:100C40004FF000009049C1F894014FF47A70FFF71B
:100C5000E2FE0120964908604FF03200FFF7DBFE0C
:100C600001210020FFF762FF3220FFF7D4FE0020B1
:100C7000FFF766FF8F490880084601888EA001F0C3
:100C80000DFF1021E720FFF751FF01210020FFF7A2
:100C90004DFF4FF480710120FFF748FF4FF4E061F2
:100CA0000220FFF743FF41F230010320FFF73EFF30
:100CB00000210420FFF73AFF40F207210820FFF748
:100CC00035FF00210920FFF731FF00210A20FFF73F
:100CD0002DFF01210C20FFF729FF00210D20FFF738
:100CE00025FF00210F20FFF721FF00211020FFF733
:100CF0001DFF07211120FFF719FF00211220FFF728
:100D000015FF00211320FFF711FF3220FFF783FEAC
:100D100041F290511020FFF709FF40F227211120E6
:100D2000FFF704FF3220FFF776FE9C211220FFF729
:100D3000FDFE3220FFF76FFE4FF4C8511320FFF77E
:100D4000F5FE23212920FFF7F1FE0E212B20FFF7CE
:100D5000EDFE3220FFF75FFE00212020FFF7E6FEC8
:100D600040F23F112120FFF7E1FE3220FFF753FE52
:100D700007213020FFF7DAFE40F207713120FFF73C
:100D8000D5FE06213220FFF7D1FE40F20471352056
:100D9000FFF7CCFE41F604713620FFF7C7FE0421B1
:100DA0003720FFF7C3FE00213820FFF7BFFE40F2D7
:100DB00006713920FFF7BAFE40F201713C20FFF7BF
:100DC000B5FE0F213D20FFF7B1FE3220FFF723FED5
:100DD00000215020FFF7AAFEEF215120FFF7A6FEC9
:100DE00000215220FFF7A2FE40F23F115320FFF7EF
:100DF0009DFE4FF427416020FFF798FE01216120FE
:100E0000FFF794FE00216A20FFF790FE002180206A
:100E1000FFF78CFE00218120FFF788FE0021822051
:100E2000FFF784FE00218320FFF780FE002184204D
:100E3000FFF77CFE00218520FFF778FE102190202F
:100E4000FFF774FE00219220FFF770FE032193202C
:100E5000FFF76CFE4FF488719520FFF767FE0021C5
:100E60009720FFF763FE00219820FFF75FFE40F216
:100E700033110720FFF75AFE00212020FFF756FE0E
:100E800020E00000A0012242000022420C0C0140A0
:100E90009C012242000C01400000014098012242C6
:100EA000080C014000100240040C014000100140F9
:100EB0009401224244000020204C43442049443AFB
:100EC00025780A0040F23F112120FFF72FFE002075
:100ED000FFF77FFE10BD30B5014601F01F04C1F3DE
:100EE0004513CA0AE50205EB43151544A8B230BD07
:100EF00070B504460D46F02C02DAB5F5A07F01DB93
:100F0000002070BD2946204601F0AAFD2220FFF7EF
:100F1000E2FD4FF08830F9490860F949C1F8040C46
:100F20004FF6FF70F74908604FF00100F64908607E
:100F30004FF00000F54908604FF0010008604FF0E5
:100F4000000008604FF00100F149C1F89801EC4839
:100F5000D0F8080C86B24FF03330E849086001F150
:100F6000040108604FF6FF70E549C1F80C0CE94830
:100F70000088A0F58A41313905D0E6480088A0F5FF
:100F80000941893901D13046BBE73046FFF7A3FF5D
:100F9000B7E700B540F273110720FFF7C7FD00BDAA
:100FA00000B500210720FFF7C1FD00BD70B5044664
:100FB0000D462946204601F053FD2220FFF78BFD08
:100FC000D5480088FFF75EFD70BD2DE9F05F04464F
:100FD0000D4616461F46DDF828804FF0000B301BEB
:100FE000401C1FFA80FBA94615E04946204601F047
:100FF00037FDFFF7E3FD4FF0000A06E04046FFF73C
:1010000041FD0AF101001FFA80FADA45F6DB09F129
:1010100001001FFA80F9B945E7DDBDE8F09F2DE931
:10102000FF4F85B004460D461646002004900390FD
:10103000A6EB04080898A0EB0509A3460095B8F1B3
:10104000000F02DD012001900AE0B8F1000F02D18B
:101050000020019004E04FF0FF300190C8F100083B
:10106000B9F1000F02DD4FF0010A09E0B9F1000FFC
:1010700002D14FF0000A03E04FF0FF3AC9F1000936
:10108000C84502DDCDF8088001E0CDF808900027C2
:1010900022E0009881B21FFA8BF0FFF787FF0498D7
:1010A000404404900398484403900299049888426D
:1010B00005DD04990298081A049001988344DDE93B
:1010C0000210884206DDDDE90210401A0390009804
:1010D00050440090781C87B20298401C8742D8DDAB
:1010E00009B0BDE8F08F2DE9F04104460D461646E3
:1010F0001F462B46324629462046FFF790FF3B46C7
:10110000224629462046FFF78AFF3B4632463946AB
:101110002046FFF784FF3B46324629463046FFF71C
:101120007EFFBDE8F0812DE9F04704460D461646E6
:101130000027B0460320A0EB460954E0EA1B91B219
:10114000A4EB080290B2FFF731FFEA1B91B204EB67
:10115000080290B2FFF72AFF05EB080291B2E21BEA
:1011600090B2FFF723FFEA1B91B2A4EB080290B202
:10117000FFF71CFFA5EB080291B2E21B90B2FFF74C
:1011800015FFEA1991B204EB080290B2FFF70EFFC7
:10119000A5EB080291B2E21990B2FFF707FF05EB49
:1011A000080291B2E21990B2FFF700FFEA1991B27A
:1011B000A4EB080290B2FFF7F9FE7F1CB9F1000F13
:1011C00003DAB800801D814406E0A7EB0800800028
:1011D0000A308144A8F1010805EB080291B2E21936
:1011E00090B2FFF7E3FE4745A8DDBDE8F0872DE9A3
:1011F000F84F04460D4616461F46A346464800884B
:101200000090E82C02DCB5F59C7F01DDBDE8F88F8D
:10121000A6F12000C6B20A98002839D1814634E0F0
:101220000C2F07D106EB46003C4901EB800010F87B
:10123000098004E03A4800EB061010F809804FF0EE
:10124000000A16E018F0010F03D033490098088017
:1012500003E0344800883049088029462046FFF7DB
:10126000A5FE4FEA6808601C84B20AF1010000F094
:10127000FF0A07EBD771BAEB610FE3DB5C46681C32
:1012800085B209F1010000F0FF09B945C8DB30E083
:101290004FF000092BE00C2F07D106EB46001F4949
:1012A00001EB800010F8098004E01D4800EB0610F7
:1012B00010F809804FF0000A10E018F0010F07D075
:1012C00005EB090291B204EB0A0290B2FFF76EFE41
:1012D0004FEA68080AF1010000F0FF0A07EBD77136
:1012E000BAEB610FE9DB09F1010000F0FF09B94534
:1012F000D1DB09490098088088E70000000C014014
:10130000000001400C0C0140A00122429801224241
:10131000000022424400002040000020A02E0008CF
:10132000143300084200002010B50246012000E0FE
:1013300050430B00A1F10104E1B2F9D110BD2DE938
:10134000FF4F81B0044615461E460E9F4FF0000A1F
:10135000D0463EE0A6EB0800401EC1B20A20FFF7CF
:10136000E3FFB5FBF0F00A21B0FBF1F201FB120044
:1013700000F0FF09BAF1000F16D1701E404513DDD1
:10138000B9F1000F0ED10023BB4607EBD77149100E
:1013900001FB084188B200933B4620220299FFF7E7
:1013A00026FF12E04FF0010A0023BB4607EBD7717E
:1013B000491001FB084188B200933B4609F1300116
:1013C000CAB20299FFF713FF00BF08F1010000F055
:1013D000FF08B045BEDB05B0BDE8F08F2DE9F84F42
:1013E00004460D4616461F46DDF828804FF00009DA
:1013F00023E0A7EB0900401EC1B20A20FFF794FFCB
:10140000B6FBF0F00A21B0FBF1F201FB120000F094
:10141000FF0A0B9BC34608EBD871491001FB094139
:1014200088B2009343460AF13001CAB22946FFF759
:10143000DEFE09F1010000F0FF09B945D9DBBDE886
:10144000F88FF8B504460D46164617E0E82C03DD84
:10145000002405F1100085B2B5F59C7F02DD002067
:10146000044605460023009332781023294620467F
:10147000FFF7BDFE04F1080084B2761C3078002826
:10148000E4D1F8BDA048806940F010009E49886111
:101490009E48406820F47F209C4948600846406888
:1014A00040F44C3048600846C06840F4C050C86002
:1014B000704710B50120964908604FF06400FFF7AF
:1014C000C5FA01209349C1F8B0016420FFF7BEFAC4
:1014D00000208F4908604FF06400FFF7B7FA002042
:1014E0008C49C1F8B0016420FFF7B0FA10BD10B507
:1014F0000020874908604FF06400FFF7A7FA012039
:101500008449C1F8B0016420FFF7A0FA01208049A6
:1015100008604FF06400FFF799FA10BD10B5012084
:101520007B4908604FF06400FFF790FA0120794989
:10153000C1F8B0016420FFF789FA002076490860FD
:101540004FF06400FFF782FA00207249C1F8AC0145
:101550006420FFF77BFA10BD10B56C48406820F49A
:1015600070406A4948600846406840F4405048600E
:101570000120674908604FF06400FFF767FA012017
:101580006449C1F8B0016420FFF760FA00206249A5
:1015900008604FF06400FFF759FA01205D49C1F877
:1015A000AC0110BD10B501205B4908604FF064002C
:1015B000FFF74CFA5548406820F4704053494860A2
:1015C0000846406840F4004048606420FFF73EFA57
:1015D0005048D0F82C01C4B26420FFF737FA00203D
:1015E0004D4908604FF06400FFF730FA204610BD07
:1015F00070B5044600251EE004FA05F010F0800FD7
:1016000003D001204249086002E000204049086000
:101610006420FFF71BFA01203F4908604FF0640087
:10162000FFF714FA00203B49C1F8B0016420FFF72E
:101630000DFA681CC5B2082DDEDB6420FFF706FA40
:101640003248406820F4704030494860084640689D
:1016500040F4004048606420FFF7F8F901202E496B
:1016600008604FF47A70FFF7F1F92A48D0F82C019E
:10167000012801D1002600E001260020264908604B
:101680004FF06400FFF7E2F92048406820F4704012
:101690001E4948600846406840F440504860304663
:1016A00070BD70B500241948406820F47040174997
:1016B00048600846406840F4004048606420FFF7F6
:1016C000C5F908251BE06420FFF7C0F90120124985
:1016D00008604FF06400FFF7B9F96006040E0D488A
:1016E000D0F82C01012801D1601CC4B200200A49A5
:1016F00008604FF06400FFF7A9F9681EC5B2002D1D
:10170000E1DC204670BD00000010024000100140E6
:10171000AC01224200002242B001224270B50446D0
:101720000D46FFF7C6FE4220FFF762FF18B9FFF72C
:10173000DEFE002070BD6420FFF788F9E0B2FFF7FD
:1017400057FF18B9FFF7D3FE0020F3E76420FFF737
:101750007DF92846FFF74CFF18B9FFF7C8FE0020B7
:10176000E8E7FFF7C4FE0120E4E710B500213220CE
:10177000FFF7D4FF00212A20FFF7D0FF002111201E
:10178000FFF7CCFF46211220FFF7C8FF7F21422040
:10179000FFF7C4FF00214D20FFF7C0FFF0216320B9
:1017A000FFF7BCFF1F216420FFF7B8FFFF21652072
:1017B000FFF7B4FF00216620FFF7B0FF002167208C
:1017C000FFF7ACFF00216920FFF7A8FFFF211320DE
:1017D000FFF7A4FF01210D20FFF7A0FFC5210F2077
:1017E000FFF79CFF11211420FFF798FFFF21222013
:1017F000FFF794FF01212320FFF790FF762124209B
:10180000FFF78CFF50212520FFF788FFA12126201C
:10181000FFF784FF00212B20FFF780FFAA216B2018
:10182000FFF77CFFFF211320FFF778FF0A219020AC
:10183000FFF774FF01219120FFF770FF0121922033
:10184000FFF76CFF01219320FFF768FF5F219420D1
:10185000FFF764FF53219520FFF760FF11219620C9
:10186000FFF75CFF1A219720FFF758FF3D219820D2
:10187000FFF754FF5A219920FFF750FF9E219A202D
:10188000FFF74CFF00219B20FFF748FF30219C20F1
:10189000FFF744FF4021A720FFF740FF4021A82089
:1018A000FFF73CFF8021A920FFF738FF8021AA2005
:1018B000FFF734FF11219E20FFF730FF02219F2008
:1018C000FFF72CFF0621A620FFF728FF0C217E2022
:1018D000FFF724FF16217F20FFF720FF2A21802019
:1018E000FFF71CFF4E218120FFF718FF61218220A6
:1018F000FFF714FF6F218320FFF710FF7B21842067
:10190000FFF70CFF86218520FFF708FF8E21862038
:10191000FFF704FF97218720FFF700FFA42188200D
:10192000FFF7FCFEAF218920FFF7F8FEC5218A20D2
:10193000FFF7F4FED7218B20FFF7F0FEE8218C2083
:10194000FFF7ECFE20218D20FFF7E8FEEF214E206F
:10195000FFF7E4FE10214F20FFF7E0FE602150204A
:10196000FFF7DCFE00215120FFF7D8FE00215220B6
:10197000FFF7D4FE24215320FFF7D0FE7A21542014
:10198000FFF7CCFEFC215520FFF7C8FE00213320D5
:10199000FFF7C4FE99212220FFF7C0FE0321232078
:1019A000FFF7BCFE00214A20FFF7B8FE13214920B3
:1019B000FFF7B4FE08214720FFF7B0FE14214B20AB
:1019C000FFF7ACFE17214C20FFF7A8FE05214620AB
:1019D000FFF7A4FE75210E20FFF7A0FE82213D2017
:1019E000FFF79CFE50210C20FFF798FEE2213E20DD
:1019F000FFF794FE50212920FFF790FE78212C203C
:101A0000FFF78CFE10BD10B5FFF73CFD0121FF2054
:101A1000FFF784FE802421461220FFF77FFE08B9DD
:101A2000002010BD0A20FEF7F6FFFFF79EFE012002
:101A3000F7E770B50446FFF73CFD4220FFF7D8FDFD
:101A400018B9FFF754FD002070BD6420FEF7FEFFBB
:101A5000E0B2FFF7CDFD18B9FFF749FD0020F3E72D
:101A6000FFF745FD6420FEF7F1FFFFF722FD41205F
:101A7000FFF7BEFD18B9FFF73AFD0020E4E7642048
:101A8000FEF7E4FFFFF70DFE0546FFF747FDFFF702
:101A90002EFD2846D8E7000036490143364A11603A
:101AA000704770B5002100230F22C4784CB3324C2C
:101AB000246804F4E064C4F5E0644FEA1421C1F141
:101AC000040322FA01F2447804FA03F1847804EA68
:101AD000020444EA01014FEA0111284C0678A1559D
:101AE000047804F01F054FF0010404FA05F40578AA
:101AF0004FEA65154FF0E02606EB8505C5F8004175
:101B000009E0047804F01F040125A5401C4C067868
:101B1000761144F8265070BD1A4A0A4002431A4B07
:101B20001A60704741B1194A126842EA00024FF048
:101B3000E023C3F8102D07E0144A126822EA0002DD
:101B40004FF0E023C3F8102D7047042808D14FF060
:101B5000E021096941F004014FF0E022116107E042
:101B60004FF0E021096921F004014FF0E0221161FA
:101B7000704700000000FA050CED00E000E400E012
:101B800080E100E080FFFF1F08ED00E010ED00E0C5
:101B900010B50446C748844208D10121042000F052
:101BA00018FB0021042000F014FB46E0C2488442E8
:101BB00008D10121082000F00CFB0021082000F0D2
:101BC00008FB3AE0BD48844208D10121102000F012
:101BD00000FB0021102000F0FCFA2EE0B8488442FF
:101BE00008D10121202000F0F4FA0021202000F08B
:101BF000F0FA22E0B348844208D10121402000F0ED
:101C0000E8FA0021402000F0E4FA16E0AE488442F1
:101C100008D10121802000F0DCFA0021802000F0B2
:101C2000D8FA0AE0A948844207D10121801500F0C2
:101C3000D0FA0021A01500F0CCFA10BD10B501219A
:101C4000084600F0C6FA0021012000F0C2FA10BDDB
:101C50002DE9F04100220023002400250026002762
:101C600091F803C00CF00F0291F803C01CF0100FA4
:101C700003D091F802C04CEA0202B1F800C01CF097
:101C8000FF0F31D0066800242BE04FF0010C0CFA56
:101C900004F5B1F800C00CEA0503AB4220D1A50061
:101CA0004FF00F0C0CFA05F7BE4302FA05FC4CEAA4
:101CB000060691F803C0BCF1280F06D14FF0010CC5
:101CC0000CFA04FCC0F814C00AE091F803C0BCF19F
:101CD000480F05D14FF0010C0CFA04FCC0F810C0FD
:101CE000641C082CD1D30660B1F800C0BCF1FF0F12
:101CF00034DD466800242EE004F1080C4FF00108A2
:101D000008FA0CF5B1F800C00CEA0503AB4221D18A
:101D1000A5004FF00F0C0CFA05F7BE4302FA05FCC4
:101D20004CEA060691F803C0BCF1280F05D104F176
:101D3000080C08FA0CF8C0F8148091F803C0BCF144
:101D4000480F07D104F1080C4FF0010808FA0CF80D
:101D5000C0F81080641C082CCED34660BDE8F0812A
:101D60004FF6FF710180022181700421C17070471C
:101D70000246002093680B4201D0012000E00020C1
:101D800070470146886880B2704702460020D368D9
:101D90000B4201D0012000E0002070470146C868D6
:101DA00080B2704701617047416170470AB10161BB
:101DB00000E041617047C16070474FF480320A43D0
:101DC0008261816182618269826970470022404B31
:101DD0001A684FF680731A4042EA00120A433C4BDD
:101DE0001A6070473B49C8617047F0B50022002374
:101DF0000024002500F00046B6F1004F02D1344E19
:101E0000F46901E0324E7468C0F3034582B200F415
:101E10004016B6F5401F08D124F070642C4E766849
:101E200026F070662A4F7E6012E000F48016B6F548
:101E3000801F06D1032606FA05F39C4344F0706424
:101E400006E0460D360102FA06F6B44344F070642B
:101E500021B1460D360102FA06F6344300F0004681
:101E6000B6F1004F02D11A4EF46101E0184E7460D1
:101E7000F0BD30B500228B071C0F0F2303FA04F2CC
:101E8000134B08338C1053F8244094438D1043F8BF
:101E900025408C1053F824308C07240F00FA04F4EA
:101EA00023430B4C08348D1044F8253030BD0A49CB
:101EB0000860704700080140000C0140001001401C
:101EC0000014014000180140001C014000200140A6
:101ED0000000014000002042DC002042D848006899
:101EE00040F00100D649086008464068D5490840DE
:101EF000D349486008460068D3490840D049086083
:101F00000846006820F4802008600846406820F4F5
:101F1000FE0048604FF41F0088607047C849096898
:101F200021F48031C64A11601146096821F48021EC
:101F30001160B0F5803F03D0B0F5802F0ED106E0E0
:101F4000BF49096841F48031BD4A116007E0BC49CE
:101F5000096841F4A021BA4A116000E000BF00BF47
:101F6000704710B501460022002300204A11012AC3
:101F700002D1B34C236806E0022A02D1B04C236A96
:101F800001E0AF4C636A01F01F02012494401C423F
:101F900001D0012000E0002010BD70B50024002514
:101FA000002600BF3120FFF7DCFF0646641CB4F5B5
:101FB000A06F01D0002EF5D03120FFF7D2FF08B17D
:101FC000012500E00025284670BD00219C4A1168CB
:101FD00021F0F80141EAC001116070479B49086097
:101FE00070470022964B5A6822F47C1240EA0103A3
:101FF0001A43934B5A607047944908667047002112
:102000008F4A516821F003010143516070478C48A9
:10201000406800F00C0070470021894A516821F0A7
:10202000F0010143516070470021854A516821F455
:10203000E0610143516070470021814A516821F4F9
:10204000605141EAC0015160704729B17C4A527A1F
:1020500002437B4B5A7206E0794A527AC343DBB2A1
:102060001A40774B5A7270477949086070470021CF
:10207000734A516821F44041014351607047002187
:10208000744A11706E4A82F82010012802D0042888
:1020900008D103E001216F4A117004E005216D4A67
:1020A000117000E000BF00BF70476B4908607047C7
:1020B0006349096A0143624A1162704767490860CF
:1020C000704730B500210022002300245C4D6D686C
:1020D00005F00C0121B1042905D0082923D105E020
:1020E0005F4D056022E05E4D05601FE0544D6D6858
:1020F00005F47012524D6D6805F48033022505EB2E
:1021000092421BB9574D554305600BE04C4D6D682D
:1021100015F4003F03D0534D5543056002E0504D88
:102120005543056002E04E4D056000BF00BF444DC1
:102130006D6805F0F00109094B4D6C5C0568E540E0
:1021400045603F4D6D6805F4E061090A464D6C5CE1
:102150004568E54085603A4D6D6805F46051C90AEF
:10216000414D6C5C4568E540C560354D6D6805F4D2
:102170004041890B3C4D10356C5CC568B5FBF4F5EE
:10218000056130BD29B12E4A526902432C4B5A6178
:1021900004E02B4A52698243294B5A61704729B1A6
:1021A000274A92690243264B9A6104E0244A9269C5
:1021B0008243234B9A61704729B1214AD269024375
:1021C0001F4BDA6104E01E4AD26982431C4BDA617C
:1021D000704729B11A4AD2680243194BDA6004E009
:1021E000174AD2688243164BDA60704729B1144A05
:1021F00012690243124B1A6104E0114A12698243C8
:102200000F4B1A6170471949086070470F49C8643D
:1022100070470B49C87170470948406A40F08070A8
:1022200007494862704701460020054A92680A4201
:1022300001D0012000E000207047014988727047FA
:10224000001002400000FFF8FFFFF6FE00004242CF
:10225000D800424220100240800442423C044242E4
:1022600000127A0000093D0046000020400442426E
:1022700010B50446FB48844209D101218803FFF7C9
:10228000A8FF00214FF48040FFF7A3FF32E0F6489B
:10229000844209D101214804FFF7A8FF00214FF42F
:1022A0000030FFF7A3FF25E0F048844209D1012167
:1022B0008804FFF79BFF00214FF48020FFF796FF73
:1022C00018E0EB48844209D10121C804FFF78EFFD2
:1022D00000214FF40020FFF789FF0BE0E54884421E
:1022E00008D101210805FFF781FF00214FF480107C
:1022F000FFF77CFF10BD2DE9F04786B004460D4680
:102300000026002700BFB146B246A88900B100BF31
:10231000A246268A4CF6FF700640E88806432682CD
:10232000A6894EF6F3100640A888298908436989D2
:1023300008430643A681A68A4FF6FF400640A889B7
:102340000643A68201A8FFF7BCFE5446C548824555
:1023500001D1049F00E0039FA08910F4004F08D032
:1023600007EBC70000EB071029684900B0FBF1F844
:1023700007E007EBC70000EB071029688900B0FBF6
:10238000F1F86420B8FBF0F006013009642101FB8C
:102390001089A08910F4004F09D0322101EBC90047
:1023A0006421B0FBF1F000F00700064308E03221A1
:1023B00001EB09106421B0FBF1F000F00F000643BF
:1023C000268106B0BDE8F0874FF416510160002168
:1023D0008180C18001810C21418100218181704770
:1023E00010B50022028A4FF2FF031A400B884C8876
:1023F00023438C882343CC8823431A43028210BD95
:102400000021018041808180C180704721B1828993
:1024100042F40052828104E082894DF6FF731A4033
:1024200082817047F0B50024002500260023A1F525
:1024300010676A3F00D100BF0346C1F3421401F0A8
:102440001F05012707FA05F6012C01D10C3304E022
:10245000022C01D1103300E014331AB11F68374346
:102460001F6002E01F68B7431F60F0BD10B51AB1CE
:10247000838A0B43838204E0838ACC43A4B2234043
:10248000838210BD028A4FF6F0731A400282028ADC
:102490000A430282704782894FF2FF731A40828199
:1024A00082890A438281704721B1828942F0020207
:1024B000828104E082894FF6FD731A408281704761
:1024C000028A4FF6DF731A400282028A0A430282AE
:1024D000704721B1028A42F48042028204E0028AFB
:1024E0004BF6FF731A4002827047C1F308028280E4
:1024F000704701468888C0F308007047818941F021
:10250000010181817047028BD2B20283028B42EAC1
:10251000012202837047028B02F47F420283028B06
:102520000A430283704721B1828A42F020028282EC
:1025300004E0828A4FF6DF731A408282704721B12D
:10254000828A42F01002828204E0828A4FF6EF73A0
:102550001A408282704721B1828A42F00802828248
:1025600004E0828A4FF6F7731A408282704721B1E5
:10257000828942F40042828103E08289C2F30E0222
:102580008281704721B1828A42F40062828204E033
:10259000828A4FF2FF731A4082827047828A4FF616
:1025A000FB731A408282828A0A438282704721B179
:1025B000828A42F00202828204E0828A4FF6FD7330
:1025C0001A408282704702460020B1F5007F00D198
:1025D00000BF13880B4201D0012000E000207047AB
:1025E00001F40072B2F5007F00D100BFCA4302803F
:1025F000704770B502460023002400250020A1F595
:1026000010666A3E00D100BFC1F3421501F01F04FD
:10261000012606FA04F4012D02D19689344006E021
:10262000022D02D1168A344001E0968A34400B1202
:10263000012606FA03F31688334014B10BB10120CA
:1026400000E0002070BD10B500220023A1F5106449
:102650006A3C00D100BF0A1201249440A3B2DC43BB
:10266000048010BD00380140004400400048004094
:10267000004C004000500040002047490860474996
:10268000C1F804044649086001F1040108604548A6
:1026900045490860704700213F498279002A43D0AC
:1026A0003E4AD2F8002403689A433C4BC3F8002406
:1026B0001A46D2F8042403689A4301F104031A600D
:1026C000027911440A68036842EA03020A60334A45
:1026D000D2F80824036822EA0302304BC3F8082426
:1026E0001A46D2F80C24036822EA03022F4B1A6020
:1026F0004279102A10D1294AD2F8082403681A43D3
:10270000264BC3F808241A46D2F80C2403681A434F
:10271000224BC3F80C240DE01F49427911440A688A
:1027200003681A430A6005E0027911440A680368E5
:102730009A430A6070470021016001710C214171C8
:102740000021817170471A49096841EA0001134A62
:10275000C2F81014704701460020134A12680A425A
:1027600001D0012000E0002070470F490860704749
:10277000014600200022084B1B6803EA0102074BB8
:10278000D3F814340B4202D00AB1012000E000203B
:10279000704705490860704700040140000001408F
:1027A00008040140FFFF0F00140401400C04014025
:1027B000100401400648804706480047FEE7FEE750
:1027C000FEE7FEE7FEE7FEE7FEE7FEE7FEE7FEE7E1
:1027D000A12800083101000800200021674A126882
:1027E00042F48032654B1A6000BF644A126802F4FA
:1027F0000031401C11B9B0F5A06FF6D15F4A1268E4
:1028000012F4003F01D0012100E00021012942D152
:102810005B4A126842F01002594B1A601A4612685D
:1028200022F003021A601A46126842F002021A608D
:10283000524A5268514B5A601A4652685A601A46B8
:10284000526842F480625A601A46526822F47C123E
:102850005A601A46526842F4E8125A601A461268E0
:1028600042F080721A6000BF444A126812F0007F82
:10287000FAD0424A526822F00302404B5A601A468C
:10288000526842F002025A6000BF3C4A526802F0AD
:102890000C02082AF9D1704710B5FFF79DFF10BD53
:1028A00010B53648006840F0010034490860084619
:1028B0004068344908403149486008460068324958
:1028C00008402E4908600846006820F4802008600F
:1028D0000846406820F4FE0048604FF41F008860FE
:1028E000FFF7DAFF4FF000602849086010BD10B50F
:1028F000002000210022214B5B6803F00C0020B176
:10290000042806D0082828D107E0214B214C236059
:1029100027E01F4B1F4C236023E0184B5B6803F438
:102920007011164B5B6803F48032022303EB914174
:1029300022B9194B4B43174C23600DE00F4B5B68DA
:1029400013F4003F04D0144B4B43124C236003E0BC
:102950000F4B4B430F4C236003E00D4B0D4C23609A
:1029600000BF00BF054B5B68C3F303130B4CE05C77
:10297000084B1B68C340074C236010BD0010024089
:10298000002002400000FFF8FFFFF6FE08ED00E027
:1029900000127A005C00002000093D006000002069
:1029A0002DE9F047002591469A46074688462E466F
:1029B000402418E022464146384600F041F8B0EB8A
:1029C000090071EB0A010ED322465146484600F039
:1029D00027F83F1A68EB010822460021012000F089
:1029E0001FF845194E41201EA4F10104E2DC2846DF
:1029F00031463A464346BDE8F0870000064C074D95
:102A000006E0E06840F0010394E8070098471034BE
:102A1000AC42F6D3FDF790FB0439000824390008D6
:102A2000202A04DB0023203A00FA02F106E000FA33
:102A300002F39140C2F12002D04001431846704792
:102A4000202A04DB203A21FA02F000217047D0400E
:102A5000C2F1200301FA03F31843D140704700008C
:102A600030B504460D460C480088A0F50941893967
:102A700008D121464E20FEF759F829464F20FEF78F
:102A800055F807E021462020FEF750F8294621207E
:102A9000FEF74CF830BD0000440000200FB410B524
:102AA00003A9044B044A029800F018F810BC5DF822
:102AB00014FB0000270400081C00002002E008C8E6
:102AC000121F08C1002AFAD170477047002001E0A8
:102AD00001C1121F002AFBD1704700002DE9FF4FF2
:102AE00091B004469B460F46002648E1252876D142
:102AF0000025641CA84AA84601212378203B01FA3E
:102B000003F0104202D00543641CF6E720782E281B
:102B100018D114F8010F45F004052A280BD157F8F5
:102B2000048B641C0EE008EB880002EB400001EB14
:102B30000008641C01E06FF02F022178A1F1300041
:102B40000928F0D920786C280CD006DC4C2811D04C
:102B50006A2810D145F400150CE074280AD07A28B0
:102B600009D107E0617845F48015814202D1641CE7
:102B700005F58015641C2078692808D018DC002829
:102B800070D058281CD063281FD06428AFD10A21E8
:102B90000020CDE90C10C5F30250022845D1FF1DDD
:102BA00027F00707D7E900010837CDE90E0140E01B
:102BB00070285AD0732813D0752854D0782896D10D
:102BC00010210022CDE90C1257E001CF8DF83C0016
:102BD00000208DF83D000DF13C09012004E0D6E015
:102BE00057F8049B4FF0FF3069074FF000050AD5F6
:102BF00000E06D1C45450EDA8542FADB19F8051038
:102C00000029F6D107E000E06D1C8542FCDB19F8D5
:102C100005100029F8D12E4404E019F8010B5A469A
:102C2000139990476D1EF8D2A8E001CFC117CDE9E6
:102C30000E010023C01A994109DADDE90E01404274
:102C400061EB4101CDE90E014FF02D0002E02805B6
:102C500004D52B208DF80C0001203DE0E8073BD087
:102C60002020F7E78FE00A21ABE710210022CDE911
:102C70000C1245F004054FF00808C5F30251022973
:102C80000AD107F1070727F00707D7E90012CDE9B6
:102C90000E1207F1080703E002CF0022CDE90E1261
:102CA0004FF0000A290718D5702801D14020D1E73C
:102CB000DDE90C011022504008430ED1DDE90E0180
:102CC000002359405840084307D030208DF80C00AD
:102CD00020788DF80D000220824621782FA05829F7
:102CE00000D033A00DF1300901900DE0DDE90C2397
:102CF000DDE90E01FFF754FE019B9B5CA9F1010287
:102D000013709146CDE90E01DDE90E010023594013
:102D100058400843EAD104A9A1EB090000F12000C2
:102D20000290680701D44FF00108029900208845FD
:102D300001DDA8EB01008046002506E003A8405D08
:102D40005A4613999047761C6D1C5545F6DB04E0F6
:102D500030205A4613999047761CB8F10000A8F12C
:102D60000108F5DC05E019F8010B5A461399904764
:102D7000761C0298411E02910028F4DC641C207825
:102D800000287FF4B3AE304615B0BDE8F08F5A4648
:102D900013999047761CF1E709280100303132334E
:102DA0003435363738394142434445460000000047
:102DB00030313233343536373839616263646566B1
:102DC00000000000004000000000020004000000BD
:102DD00004000000040000000400000000020400E1
:102DE000000408002500260000013031323334355C
:102DF000363738394142434445460000010002005D
:102E000004000800100020004000800000010002C3
:102E100000040008001000200040008004000000B2
:102E2000080000001000000020000000400000002A
:102E300080000000000100000001020304050600FC
:102E40000102030405060708090A0B0C0D0E0F000A
:102E50000100000002000000040000000800000063
:102E60001000000020000000400000008000000072
:102E70000001000000020000000400000008000043
:102E80000010000000200000004000000080000052
:102E9000060708090A1717171717282828282828A7
:102EA000000000000000000000000000000004041A
:102EB000040404040004000000140A0A00000000D6
:102EC00000000000000014143F140A3F0A0A00002A
:102ED00000041E1505060C14150F04000000121541
:102EE0000D0A142C2A1200000000040A0A1E1515EF
:102EF000093600000002020100000000000000008E
:102F00000020100808080808081020000002040823
:102F1000080808080804020000000004150E0E1539
:102F20000400000000000404041F04040400000066
:102F3000000000000000000000020201000000008C
:102F4000001F000000000000000000000000000062
:102F50000002000000100808080404020202010038
:102F600000000E1111111111110E000000000406D5
:102F700004040404040E000000000E1111080402F1
:102F8000011F000000000E11100C1010110E0000A7
:102F90000000080C0A0A091E0818000000001F01A2
:102FA000010F1010110E000000000E09010F111189
:102FB000110E000000001F090804040404040000AE
:102FC00000000E11110E1111110E000000000E1163
:102FD00011111E10120E000000000000040000007D
:102FE00000040000000000000004000000040400D1
:102FF0000020100804020408102000000000000057
:103000001F00001F0000000000020408102010082C
:103010000402000000000E11110804040004000066
:1030200000000E111915151D011E000000000404FA
:103030000C0A0A1E1233000000000F12120E1212A8
:10304000120F000000001E1101010101110E00000D
:1030500000000F1212121212120F000000001F12B5
:103060000A0E0A02121F000000001F120A0E0A02B6
:103070000207000000001C1201013911120C0000AF
:1030800000003312121E12121233000000001F043F
:1030900004040404041F000000003E080808080897
:1030A00008090700000037120A060A0A1237000052
:1030B0000000070202020202223F000000001B1B68
:1030C0001B1B15151515000000003B1216161A1AC9
:1030D0001217000000000E1111111111110E000045
:1030E00000000F12120E02020207000000000E1173
:1030F00011111117190E180000000F12120E0A12EA
:103100001237000000001E1101060810110F000008
:1031100000001F1504040404040E00000000331214
:1031200012121212120C000000003312120A0A0CC2
:103130000404000000001515150E0A0A0A0A000012
:1031400000001B0A0A04040A0A1B000000001B0AF4
:103150000A040404040E000000001F09080404020D
:10316000121F0000001C04040404040404041C00D6
:10317000000202020404080808100000000E0808FB
:103180000808080808080E0000040A0000000000F3
:103190000000000000000000000000000000003FF0
:1031A000000400000000000000000000000000001B
:1031B000000C121C123C000000000302020E12124E
:1031C000120E000000000000001C1202021C000091
:1031D00000001810101C1212123C00000000000029
:1031E000000C121E021C000000003804041E04041F
:1031F000041E000000000000003C120C021E221CF5
:1032000000000302020E1212123700000000040038
:1032100000060404040E000000000800000C08086A
:103220000808080700000302023A0A0E12370000DD
:103230000000070404040404041F00000000000050
:10324000000F15151515000000000000000F1212E8
:103250001237000000000000000C1212120C0000D7
:1032600000000000000F1212120E02070000000002
:10327000001C1212121C103800000000001B060275
:103280000207000000000000001E020C101E0000DB
:1032900000000004040E04040418000000000000F4
:1032A000001B1212123C0000000000000037120A3E
:1032B0000C040000000000000015150E0A0A0000B2
:1032C00000000000001B0A040A1B000000000000B0
:1032D0000037120A0C04040300000000001E08045A
:1032E000041E000000180808080408080808180050
:1032F0000808080808080808080808080006040460
:10330000040804040404060002251800000000005C
:1033100000000000000000000000000000000000AD
:103320000000000000000008080808080808000065
:103330001818000000486C24120000000000000073
:10334000000000000000002424247F1212127F12CB
:10335000121200000000081C2A2A0A0C1828282A29
:103360002A1C080800000022251515152A58545457
:10337000542200000000000C1212120A76252911B6
:10338000916E00000006060403000000000000002B
:10339000000000000040201010080808080808106D
:1033A000102040000002040808101010101010082F
:1033B000080402000000000008086B1C1C6B0808D1
:1033C0000000000000000000080808087F08080846
:1033D00008000000000000000000000000000000E5
:1033E000060604030000000000000000FE000000CC
:1033F00000000000000000000000000000000000CD
:10340000060600000000804040202010100808043C
:10341000040202000000001824424242424242429A
:1034200024180000000000080E0808080808080812
:10343000083E00000000003C4242422020100804E8
:10344000427E00000000003C4242201820404042E2
:10345000221C0000000000203028242422227E208C
:10346000207800000000007E0202021A264040423E
:10347000221C0000000000382402021A26424242A8
:10348000241800000000007E2222101008080808FE
:10349000080800000000003C424242241824424236
:1034A000423C000000000018244242426458404060
:1034B000241C00000000000000001818000000009C
:1034C00018180000000000000000000800000000C4
:1034D000000808040000004020100804020408103E
:1034E000204000000000000000007F0000007F007E
:1034F0000000000000000002040810204020100816
:10350000040200000000003C42424640201010002F
:10351000181800000000001C225A555555552D4220
:10352000221C00000000000808181414243C224249
:1035300042E700000000001F2222221E22424242D7
:10354000221F00000000007C4242010101010142F3
:10355000221C00000000001F22424242424242421E
:10356000221F00000000003F4212121E12120242EF
:10357000423F00000000003F4212121E12120202DF
:10358000020700000000003C2222010101712122FB
:10359000221C0000000000E7424242427E424242BA
:1035A00042E700000000003E080808080808080874
:1035B000083E00000000007C1010101010101010C9
:1035C0001010110F0000007722120A0E0A121222A8
:1035D000227700000000000702020202020202023B
:1035E000427F000000000077363636362A2A2A2A23
:1035F0002A6B0000000000E346464A4A52525262DB
:10360000624700000000001C22414141414141410C
:10361000221C00000000003F424242423E020202E1
:10362000020700000000001C2241414141414D536E
:10363000321C60000000003F4242423E1212222231
:1036400042C700000000007C4242020418204042B1
:10365000423E00000000007F4908080808080808EA
:10366000081C0000000000E742424242424242423F
:10367000423C0000000000E74242222424141418B7
:10368000080800000000006B494949495555362299
:1036900022220000000000E74224241818182424E5
:1036A00042E70000000000772222141408080808EE
:1036B000081C00000000007E2120101008040442B5
:1036C000423F0000007808080808080808080808B1
:1036D00008087800000002020404080808101020FE
:1036E00020204040001E101010101010101010105C
:1036F00010101E0000384400000000000000000010
:1037000000000000000000000000000000000000B9
:10371000000000FF0006080000000000000000009C
:1037200000000000000000000000003C427844421D
:1037300042FC0000000000030202021A264242423C
:10374000261A0000000000000000003844020202B7
:10375000443800000000006040404078444242424B
:1037600064D80000000000000000003C427E02021D
:10377000423C0000000000F08808087E08080808A5
:10378000083E0000000000000000007C22221C0215
:103790003C42423C000000030202023A46424242DE
:1037A00042E700000000000C0C00000E08080808AA
:1037B000083E0000000000303000003820202020AB
:1037C0002020221E0000000302020272120A1612BA
:1037D000227700000000000E080808080808080802
:1037E000083E0000000000000000007F92929292CC
:1037F00092B70000000000000000003B4642424239
:1038000042E70000000000000000003C424242424B
:10381000423C0000000000000000001B2642424223
:10382000221E0207000000000000007844424242CD
:10383000447840E000000000000000774C040404DD
:10384000041F0000000000000000007C42023C4019
:10385000423E0000000000000008083E080808087A
:1038600008300000000000000000006342424242B5
:1038700062DC000000000000000000E74224241485
:103880000808000000000000000000EB4949555501
:103890002222000000000000000000762418181802
:1038A000246E000000000000000000E74224241401
:1038B00018080807000000000000007E2210080819
:1038C000447E000000C02020202020102020202046
:1038D0002020C00010101010101010101010101028
:1038E000101010100006080808080810080808083A
:1038F000080806000C32C2000000000000000000B2
:1039000000000000243900080000002070000000C2
:10391000BC2A000894390008700000202804000028
:10392000CC2A000800380140004400400008014053
:1039300000080140000801400008014000000000AC
:103940000000000000080140000C01400010014090
:103950000014014000180140001C014000200140FB
:10396000000000000000FFFF000000000000010256
:103970000304010203040607080902040608000004
:1039800000A24A040000000000000000010203043D
:043990000607080915
:0400000508000131BD
:00000001FF
