:020000040800F2
:1000000040460020450100088D1A00088D110008A7
:10001000891A0008E30800085D36000800000000A7
:10002000000000000000000000000000F5300008A3
:10003000450B0008000000003B1F0008A533000826
:100040005F0100085F0100085F0100085F01000810
:100050005F0100085F0100085F0100085F01000800
:100060005F010008490B00085F0100085F010008FC
:100070005F0100085F0100085F0100085F010008E0
:100080005F0100085F0100085F0100085F010008D0
:100090005F0100085F0100085F0100085F010008C0
:1000A0005F0100085F0100085F0100085F010008B0
:1000B0005F0100085F0100085F0100085F010008A0
:1000C0005F0100085F0100085F0100085F01000890
:1000D0005F0100085F0100085F0100085F01000880
:1000E0005F0100085F0100085F0100085F01000870
:1000F0005F0100085F0100085F0100085F01000860
:100100005F0100083D2500085F0100085F0100084D
:100110005F0100085F0100085F0100085F0100083F
:100120005F0100085F0100085F0100085F0100082F
:10013000DFF80CD000F00AFB004800478D5700089C
:10014000404600200648804706480047FEE7FEE795
:10015000FEE7FEE7FEE7FEE7FEE7FEE7FEE7FEE777
:10016000413400083101000840EA01039B0703D035
:1001700009E008C9121F08C0042AFAD203E011F8E6
:10018000013B00F8013B521EF9D27047F0B480EAFF
:100190000102D40F4200B2EB410F02D202460846E0
:1001A00011464A0042D0C30DDDB2C1F3C752AD1AA9
:1001B000202D35DAC1F3160141F4000204B1524298
:1001C000C5F1200602FA06F12A411044B3EBD05FD4
:1001D00023D0C4B1012DA0EBC35009DCF0BC4FF01B
:1001E000004202EAC352DBB200F5000000F0C7B8DB
:1001F000400000F1807000EBC350A0F1807040EA35
:10020000D170490009E0490841EAC071A0EBC35030
:1002100000F50000400800EBC350F0BC00F0A6B8A9
:100220006142012202EB4101001BF6E7F0BC70477E
:1002300081F00041AAE780F00040A7E730B480EAEF
:10024000010202F0004530F0004221F0004013D0DE
:1002500090B1C30DD40DC2F31601C0F31600E41A19
:1002600041F4000140F400027D34914201D3641C4A
:1002700000E04900002C02DA30BC002070474FF447
:1002800000000023914201D3891A034340084FEA3A
:100290004101F7D151B1914202D14FF0004105E047
:1002A00002D24FF0010101E06FF0010103EBC450F5
:1002B000284430BC00F05AB800F0004230F0004052
:1002C0000AD0C10D01F56071C0F3160042EA015178
:1002D000C20840071143704700200146704730B5FF
:1002E0000B46014600202022012409E021FA02F5F4
:1002F0009D4205D303FA02F5491B04FA02F528448E
:10030000151EA2F10102F1DC30BD2DE9F05F0546BA
:10031000002092469B4688460646814640241BE0C4
:10032000284641464746224600F031FA53465A468F
:10033000C01A914110D311461846224600F018FA0F
:100340002D1A67EB01084F4622460120002100F0DC
:100350000FFA17EB00094E41201EA4F10104DFDC67
:10036000484631462A464346BDE8F09F0029A8BFCB
:100370007047401C490008BF20F00100704710B4CE
:10038000B0FA80FC00FA0CF050EA010404BF10BC83
:10039000704749B1CCF1200421FA04F411FA0CF1B0
:1003A00018BF012121430843A3EB0C01CB1D4FEAE9
:1003B00000614FEA102042BF002010BC704700EBE4
:1003C000C35010440029A4BF10BC7047401C490012
:1003D00008BF20F0010010BC70472DE9FE4F804699
:1003E00081EA0300C00F0C46009021F0004123F089
:1003F0000045B8EB0200A94105D24046214690468F
:100400001C460B46024623F00040104347D0270D00
:10041000C7F30A00C3F30A510290401A0190402822
:100420006BDAC3F3130040F4801B0098924620B1AE
:100430000023D2EB030A63EB0B0B01985946C0F182
:100440004002504600F094F906460D465046594683
:10045000019A00F0ACF910EB08006141002487EA32
:10046000115284EAE7731A4340D0009A62B3019AAA
:10047000012A4FEA075215DC001B61EB02014FF025
:10048000004202EA0752CDE90042001C41F580110A
:1004900032462B4600F0ACF903B0BDE8F08F404681
:1004A0002146F9E7001B61EB0201001C41F58013B6
:1004B00000185B412018A2F5001747EB030140EA42
:1004C000D570B6196D4111E06D084FEA360645EA60
:1004D000C0754FEA0752001B61EB0201001C41F599
:1004E000801149084FEA30000019514132462B462D
:1004F00003B0BDE8F04F00F06CB900980122400055
:100500000023D0EB020263EBE073009821464FEA30
:10051000E074B8EB000061EB0401E9E783F000430D
:100520005BE781F0004158E72DE9FE4F81EA0304C3
:1005300004F0004421F0004100944FF0000B23F040
:10054000004350EA01045ED052EA03045BD0C3F3D7
:100550000A54C1F30A552C44A4F2F3340194A0FBCD
:100560000254C1F3130141F48011C3F3130343F4A4
:10057000801301FB024400FB034E840A970A44EAFD
:10058000815447EA8357A4FB076802958D0A05FB4F
:1005900007854FEA932C04FB0C542705029D4FEA74
:1005A000065847EA1637B5EB08056EEB070C870EC1
:1005B000920E47EA811742EA8312A7FB0201B6EBCB
:1005C0000B0164EB00042B0D43EA0C335E1844EB83
:1005D0001C50DA465146E7FB0201C5F313044FEA0B
:1005E0000B3343EA14534FEA0432019C43EA0603F7
:1005F000A4F10C040294009CCDE900B400F0F8F8DA
:1006000003B0BDE8F08F00200146F9E72DE9F04D79
:1006100081EA030404F0004B21F0004514464FF03A
:10062000000A23F0004150EA050220D054EA0102FA
:100630001DD0C5F30A570246C5F31303C1F31300D7
:10064000C1F30A5640F4801543F48013A7EB060863
:10065000101BD64608F2FD3873EB050002D308F1F3
:10066000010801E092185B41B8F1000F03DA0020A5
:100670000146BDE8F08D00204FF480110646844607
:100680000EE0171B73EB050705D3121B63EB050385
:1006900006434CEA010C49084FEA300092185B41CE
:1006A00050EA0107EDD152EA030012D082EA0400B9
:1006B00083EA0501084305D0101BAB4106D2012295
:1006C000002306E000224FF0004302E06FF0010239
:1006D00053101AEB06004CEB085110EB0A0041EBEB
:1006E0000B01BDE8F04D00F074B8C1F30A52C1F33C
:1006F000130140F2FF3341F480119A4202DA0020E4
:100700000146704740F233439A42A2F2334202DC80
:10071000524200F03CB800F02BB8000030B5041E87
:1007200071F1000404DB4FF00044404264EB01012E
:10073000141E73F1000405DB1C464FF000435242C7
:1007400063EB0403994208BF904230BD064C074D4D
:1007500006E0E06840F0010394E807009847103491
:10076000AC42F6D3FFF7E8FC74A4000894A4000898
:10077000202A04DB203A00FA02F100207047914061
:10078000C2F1200320FA03F3194390407047202A56
:1007900004DB203A21FA02F00021704721FA02F32B
:1007A000D040C2F120029140084319467047202AE8
:1007B00006DBCB17203A41FA02F043EAE07306E089
:1007C00041FA02F3D040C2F1200291400843194699
:1007D000704710B5141E73F1000408DA401C41F193
:1007E000000192185B411A4301D120F0010010BDB5
:1007F0002DE9F04D92469B4611B1B1FA81F202E02B
:10080000B0FA80F220329046FFF7B2FF04460F465E
:1008100040EA0A0041EA0B0153465A46084313D006
:10082000114653EA010019D0C8F140025046FFF7C3
:10083000AEFF05460E46504659464246FFF798FF22
:10084000084305D0012004E020463946BDE8F08D7C
:100850000020054346EAE0762C4337430A986305B7
:10086000E40AA0EB08000022FD0A44EA47540A30DB
:1008700002D500200146E9E7010510196941DDE9CB
:10088000084500196941BDE8F04DA2E770B58C1824
:1008900010F8015B15F0070301D110F8013B2A1194
:1008A00006D110F8012B03E010F8016B01F8016B81
:1008B0005B1EF9D12B0705D40023521E0DD401F87D
:1008C000013BFAE710F8013BCB1A921C03E013F846
:1008D000015B01F8015B521EF9D5A142D8D300207B
:1008E00070BD00BFFEE770B500254FF4803400E016
:1008F000641E24B1802001F001FE0028F8D014B954
:100900000325284670BD40F2FF5001F0AFFD284698
:10091000F8E70000014600BF0748406B00F04500C3
:100920000028F9D040F2FF50034A90631046406916
:1009300008221040C0B270470080014070B5002509
:100940001048446B01E00F48446B04F04500002858
:10095000F9D004F0040028B10325042001F086FD3D
:10096000284670BD04F0010028B10125012001F0E6
:100970007DFD2846F5E740F2FF5001F077FD28465F
:10098000EFE700000080014070B500250B48446B84
:1009900001E00A48446B04F045000028F9D004F057
:1009A000040028B10325042001F060FD284670BD35
:1009B00040F2FF5001F05AFD2846F8E70080014060
:1009C0002DE9F04106460F464FF000082248456BDE
:1009D00001E02148456B05F045000028F9D005F0FD
:1009E000040038B14FF00308042001F03FFD4046F9
:1009F000BDE8F08105F0010030B14FF001080120A1
:100A000001F034FD4046F3E701F072FDB04203D03F
:100A10004FF010084046EBE740F2FF5001F026FD92
:100A2000002001F07FFD044604F4604018B9200C5A
:100A300038804046DCE704F4005008B11320D7E7C3
:100A400004F4804008B11020D2E704F4004008B15B
:100A50000F20CDE74046CBE70080014070B500266F
:100A60004FF480350F48446B02E06D1E0D48446B17
:100A700004F0450008B9002DF7D115B104F00400C9
:100A800028B10326042001F0F1FC304670BD04F0CB
:100A9000400028B10026402001F0E8FC3046F5E790
:100AA0003046F3E70080014000F0805111B1034966
:100AB000086001E0024948607047000004040240F9
:100AC0000000024021B1026842F00102026004E02D
:100AD00002684FF6FE731A4002607047014600201C
:100AE000002201F0805313B1054B1A6801E0054B59
:100AF0001A6802EA01030BB1012000E000207047F0
:100B0000000402400000024010B50022026847F6CF
:100B1000F0739A430C6A8B6823430C6923434C6936
:100B200023438C692343CC6923434C6A23438C6A57
:100B300023431A430260CB6843600B6883604B68B1
:100B4000C36010BD7047000010B5082000F038F8F1
:100B500000B31148007878B9102010494861082086
:100B60000F49086001200C49087008200C490860F2
:100B700010200A4908610AE007480078012806D1D8
:100B800008200749091D0860022003490870082051
:100B900000F008F810BD0000D9000020001001404E
:100BA000101401400149086070470000140401401E
:100BB000024909680143014A11607047100401406D
:100BC000014600200022074B1B6803EA0102054B87
:100BD00014331B680B4013B10AB1012000E0002060
:100BE0007047000000040140002123498279002A57
:100BF0003AD00A46126803689A430B461A600A1DE7
:100C0000126803689A430B1D1A60027911440A683E
:100C100003681A430A60184A0832126803689A4344
:100C2000154B08331A601A1D126803689A43124B59
:100C30000C331A604279102A0ED11A1F1268036809
:100C40001A430D4B08331A601A1D126803681A43C1
:100C5000094B0C331A600DE00749427911440A68C8
:100C600003681A430A6005E0027911440A680368C0
:100C70009A430A60704700000004014008B5012152
:100C80003C2001F06BF910208DF8030003208DF853
:100C900002000820ADF8000069461A4800F0DEF9AD
:100CA0001020ADF800006946174800F0D7F904207D
:100CB000ADF800006946134800F0D0F92020ADF8E7
:100CC00000006946104800F0C9F90820ADF800009E
:100CD00069460E4800F0C2F94FF47F40ADF80000BD
:100CE00004208DF8030003208DF8020069460848AF
:100CF00000F0B4F9082003491431086003491031A9
:100D0000086008BD000801400010014000140140C7
:100D1000000C014051B18200A2F1C042126842F0C1
:100D200001038200A2F1C042136009E08200A2F137
:100D3000C0421268034B1A408300A3F1C0431A60FB
:100D400070470000FEFF0F00D0E901121143C26896
:100D50001143026911434269114382691143C26917
:100D60001143026A1143426A1143826A1143C26A03
:100D70001143026B114302689200A2F1C04211605C
:100D8000816808290BD101688900A1F1C041096877
:100D900041F0400201688900A1F1C0410A60416B45
:100DA0000968426B526841EA0211426B926841EA5B
:100DB0000221426B928941EA0241426B128A41EA66
:100DC0000251426B127D41EA0261426B926911430A
:100DD0000268521C9200A2F1C0421160C16AB1F5D2
:100DE000804F1BD1816B0968826B526841EA021106
:100DF000826B926841EA0221826B128A41EA0251B7
:100E0000826B127D41EA0261826B92691143026832
:100E10009200A2F1C042C2F8041107E06FF07042E4
:100E200001688900A1F1C041C1F8042170470000A8
:100E30002DE9FC4107460D460026002400200090C5
:100E4000019008205D4908601020486040208860BB
:100E50000020C8604FF480600861084601F0A0FBE4
:100E60001020FFF757FD044614B12046BDE8FC8171
:100E700053480088000451490860372048604020EA
:100E800088600020C8604FF480600861084601F067
:100E900087FB3720FFF73EFD04460CB12046E5E70F
:100EA0004FF0FF30474908600820486030208860D4
:100EB0000220C8600020086101204861084601F056
:100EC000EDFA00203D4908603320486040208860EA
:100ED0000020C8604FF480600861084601F060FBA4
:100EE0003320FFF717FD04460CB12046BEE70CE0A7
:100EF0004FF4001001F002FB38B101F04BFB4DF84C
:100F00002600761C012E00D906E02F48406B40F2E7
:100F10002A6108400028EBD000BF082001F0EEFA5B
:100F200028B1082001F0A2FA042420469EE70220FE
:100F300001F0E4FA28B1022001F098FA02242046D8
:100F400094E7202001F0DAFA28B1202001F08EFA8F
:100F5000062420468AE74FF4007001F0CFFA30B142
:100F60004FF4007001F082FA072420467EE740F239
:100F7000FF5001F07BFA00980006009901F47F41D0
:100F800040EA0120009901F47F0140EA1120009914
:100F900040EA1160686001980006019901F47F4100
:100FA00040EA0120019901F47F0140EA11200199F2
:100FB00040EA11602860204658E70000081200202F
:100FC000100100201C1200200080014008B5012102
:100FD000302000F0C3FF4FF4F850ADF800000320BC
:100FE0008DF8020018208DF803006946094800F0CA
:100FF00035F80420ADF800006946074800F02EF8E7
:101000000121880200F09AFF0121022000F096FFE2
:1010100008BD0000001001400014014030B500225E
:101020008B071C0F0F2303FA04F20B4B8C1053F8A1
:1010300024309343084C8D1044F8253023468C10FF
:1010400053F824308C07240F00FA04F42343024C95
:101050008D1044F8253030BD080001402DE9F041E5
:10106000024600250026002000230024002791F8D6
:1010700003C00CF00F0591F803C00CF0100CBCF18C
:10108000000F03D091F802C04CEA050591F800C0AA
:10109000BCF1000F31D0146800202BE04FF0010CA0
:1010A0000CFA00F3B1F800C00CEA03069E4220D10E
:1010B00083004FF00F0C0CFA03F7BC4305FA03FC56
:1010C0004CEA040491F803C0BCF1280F06D14FF09C
:1010D000010C0CFA00FCC2F814C00AE091F803C03D
:1010E000BCF1480F05D14FF0010C0CFA00FCC2F81E
:1010F00010C0401C0828D1D31460B1F800C0BCF166
:10110000FF0F34DD546800202EE000F1080C4FF092
:10111000010808FA0CF3B1F800C00CEA03069E427D
:1011200021D183004FF00F0C0CFA03F7BC4305FAF2
:1011300003FC4CEA040491F803C0BCF1280F05D16C
:1011400000F1080C08FA0CF8C2F8148091F803C0FA
:10115000BCF1480F07D100F1080C4FF0010808FA64
:101160000CF8C2F81080401C0828CED35460BDE8AB
:10117000F0810246002093680B400BB1012000E093
:1011800000207047416170470161704700BFFEE772
:1011900010B504462CB14FF480510548FFF7F2FF1B
:1011A00004E04FF480510248FFF7EEFF10BD00004D
:1011B000001401402DE9F04106460F4614461D4635
:1011C0002B4622463946304600F01CFA04FB05F057
:1011D0000249098800F0BDF8BDE8F081EA0000206E
:1011E00001B502E00098401E009000980028F9D157
:1011F00008BD00002DE9F04F804689461646A6F14D
:1012000020001FFA80FA1E49096889881C4A126862
:10121000D28801FB02F0C11700EB5171C1F3C7077F
:101220001748006800680AFB070B15480068C38868
:101230001348006882884946404600F0E3F92C20B4
:1012400000F064FB002416E0002510E01BF8040009
:1012500080212941084020B10A48008800F05AFB4B
:1012600003E00948008800F055FB681CC5B2082D52
:10127000ECDB601CC4B2BC42E6DBBDE8F08F0000D2
:10128000E4000020E8000020EA00002070B50446D9
:101290000D46002624E03046134909688988084431
:1012A00012490988884205DD00260F480068C08879
:1012B000204484B220460C490968C98808440C4976
:1012C0000988884201DD002600242A78214630461C
:1012D000FFF790FF6D1C044800688088304486B298
:1012E00028780028D7D170BDE4000020DC00002061
:1012F000DE00002000B597B00121080200F01EFEBC
:1013000001200190042003908006079000200290A5
:101310000490059006900890099008200A901020EB
:101320000B9000200C900E900F9010904FF4805076
:101330001190002012901390149001A8159016900F
:1013400008A8FFF701FD01210020FFF7E3FC17B01B
:1013500000BD10B502460B4600242C2000F0D6FA42
:1013600000BF03E0184600F0D5FA641C9442F9D39C
:1013700010BD000008B50121602000F0EFFD032042
:101380008DF8020018208DF803004FF48040ADF86E
:10139000000069465B48FFF761FE4FF40040ADF87E
:1013A000000069465748FFF759FE0120ADF80000DC
:1013B00069465448FFF752FE0220ADF80000694626
:1013C0005048FFF74BFE8020ADF8000069464E48BC
:1013D000FFF744FE4FF48070ADF8000069464A48BC
:1013E000FFF73CFE4FF40070ADF800006946464838
:1013F000FFF734FE4FF48060ADF8000069464248C4
:10140000FFF72CFE4FF40060ADF8000069463E483F
:10141000FFF724FE4FF48050ADF8000069463A48CB
:10142000FFF71CFE4FF40050ADF800006946364847
:10143000FFF714FE4FF48040ADF8000069463248D3
:10144000FFF70CFE4FF40040ADF8000069462E484F
:10145000FFF704FE4FF48070ADF80000694629489C
:10146000FFF7FCFD4FF40070ADF800006946254819
:10147000FFF7F4FD4FF48060ADF8000069462148A5
:10148000FFF7ECFD03208DF8020018208DF8030013
:101490001020ADF8000069461A48FFF7DFFD202054
:1014A000ADF8000069461748FFF7D8FD8020ADF879
:1014B000000069461348FFF7D1FD4FF40060ADF816
:1014C000000069460F48FFF7C9FD10208DF80300A2
:1014D00003208DF802000220ADF8000069460A489A
:1014E000FFF7BCFD10208DF8030003208DF80200EB
:1014F0004FF48050ADF8000069460248FFF7AEFD9A
:1015000008BD0000001401400018014070B50446F9
:101510000D462946204600F0EFF900F0BDF90646D9
:10152000304670BD00B50246072A00DD00BD2848E0
:101530000270104602EBD0714910A2EB410139B99B
:10154000F020244908804FF4A0702349088006E069
:101550004FF4A0701F490880F0201F4908803620F2
:1015600000F0D4F9082141EA421000F0D3F92A2012
:1015700000F0CCF9002000F0CDF9002000F0CAF90D
:1015800014490988491EC1F3072000F0C3F9114925
:101590000978491EC8B200F0BDF92B2000F0B6F959
:1015A000002000F0B7F9002000F0B4F90A490988DA
:1015B000491EC1F3072000F0ADF907490978491E1B
:1015C000C8B200F0A7F92C2000F0A0F900BFADE7E9
:1015D000E0000020DC000020DE00002010B5FFF756
:1015E000C9FEFFF787FE0120FFF7D2FD00F070F97A
:1015F00000F034F802480078FFF794FF10BD0000B7
:10160000E000002030B504460D462A2000F07EF9A7
:10161000201200F07FF9E0B200F07CF9A118491E19
:10162000C1F30F2000F076F9A118491EC8B200F0EE
:1016300071F92B2000F06AF9281200F06BF9E8B27A
:1016400000F068F9E918491EC1F30F2000F062F9B3
:10165000E918491EC8B200F05DF930BD10B5CF20C1
:1016600000F054F9002000F055F9812000F052F903
:10167000302000F04FF9ED2000F048F9642000F030
:1016800049F9032000F046F9122000F043F98120C7
:1016900000F040F9E82000F039F9852000F03AF92F
:1016A000102000F037F9782000F034F9CB2000F05A
:1016B0002DF9392000F02EF92C2000F02BF9002014
:1016C00000F028F9342000F025F9022000F022F97A
:1016D000F72000F01BF9202000F01CF9EA2000F0B0
:1016E00015F9002000F016F9002000F013F9B120E0
:1016F00000F00CF9002000F00DF91B2000F00AF9B1
:10170000B62000F003F90A2000F004F9A22000F04E
:1017100001F9C02000F0FAF8352000F0FBF8C120F4
:1017200000F0F4F8112000F0F5F8C52000F0EEF814
:10173000452000F0EFF8452000F0ECF8C72000F05D
:10174000E5F8A22000F0E6F8F22000F0DFF8002033
:1017500000F0E0F8262000F0D9F8012000F0DAF8D7
:10176000E02000F0D3F80F2000F0D4F8262000F09D
:10177000D1F8242000F0CEF80B2000F0CBF80E209A
:1017800000F0C8F8092000F0C5F8542000F0C2F8B5
:10179000A82000F0BFF8462000F0BCF80C2000F0B4
:1017A000B9F8172000F0B6F8092000F0B3F80F20C0
:1017B00000F0B0F8072000F0ADF8002000F0AAF823
:1017C000E12000F0A3F8002000F0A4F8192000F0B8
:1017D000A1F81B2000F09EF8042000F09BF81020D8
:1017E00000F098F8072000F095F82A2000F092F811
:1017F000472000F08FF8392000F08CF8032000F02B
:1018000089F8062000F086F8062000F083F83020E2
:1018100000F080F8382000F07DF80F2000F07AF812
:10182000362000F073F8C82000F074F82A2000F089
:101830006DF8002000F06EF8002000F06BF800203A
:1018400000F068F8EF2000F065F82B2000F05EF85B
:10185000002000F05FF8002000F05CF8012000F0AC
:1018600059F83F2000F056F83A2000F04FF8552084
:1018700000F050F8112000F049F80348FFF7B0FCE1
:10188000292000F043F810BDFCBF02000148008889
:10189000704700000000026010B500220023002401
:1018A0002E2000F033F8FFF7F1FF0246FFF7EEFFBE
:1018B0000246FFF7EBFF0446FFF7E8FF0346D012AE
:1018C000C002991240EA411040EAE42010BD000035
:1018D00010B502210748FFF755FC40F6FF20FFF73F
:1018E0007FFC02210348FFF74FFC40F6FF20FFF783
:1018F00077FC10BD0018014030B504460D460123A9
:101900001A4629462046FFF77DFE30BD4FF0C04104
:10191000088070470149088070470000000002609D
:101920002DE9F04781468A4614461D462B4622463D
:1019300051464846FFF766FE2C20FFF7E7FF0026DA
:1019400020E000271AE000BF4FF0000820200F49D8
:1019500048610F48006800F47F4820200861486112
:101960000B480068C0F3072040EA080820200861FF
:1019700000BF4046FFF7CEFF781C87B2AF42E2DBE4
:10198000701C86B2A642DCDBBDE8F0870010014087
:10199000080C014008B50121142000F0DFFA0120F5
:1019A000ADF8000004208DF8030069460748FFF7F2
:1019B00055FB4FF40050ADF8000004208DF80300F3
:1019C00069460348FFF74AFB08BD000000080140D4
:1019D0000010014070B504460D4629462046FFF729
:1019E000C8FB012808D100BF29462046FFF7C1FBEC
:1019F0000128F9D0012070BD0020FCE701480068F3
:101A000070470000E4000020024A1080024A118062
:101A100070470000E8000020EA000020014908604B
:101A200070470000E400002008B50121082000F004
:101A300095FA2020ADF8000010208DF80300032057
:101A40008DF8020069460F48FFF708FB0120ADF84A
:101A5000000069460B48FFF701FB0220ADF80000CB
:101A600069460848FFF7FAFA20210648FFF78CFB81
:101A700001210448FFF788FB02210248FFF784FB9D
:101A800008BD0000000C014000BFFEE7704708B52C
:101A90004FF4C06000F048F831208DF800000020BD
:101AA0008DF801008DF8020001208DF803006846D2
:101AB00000F002F808BD000070B5002100230F22DD
:101AC000C47804B3154C246804F4E064C4F5E064FD
:101AD000210AC1F10403CA40447804FA03F184786E
:101AE0001440214309010E4C0678A155047804F0F6
:101AF0001F050124AC4005786D11AD0005F1E0250E
:101B0000C5F8004109E0047804F01F050124AC4049
:101B1000044D0678761145F8264070BD0CED00E0C6
:101B200000E400E080E100E002490143024A116064
:101B3000704700000000FA050CED00E070B50646A5
:101B4000301D092821D2DFE800F01D1A1714110EEC
:101B50000B080500482406251AE03824062517E05E
:101B60002824062514E01824062511E0082406255B
:101B70000EE008240E250BE018240E2508E028248A
:101B80000E2505E038240E2502E000BF00BF00BF8F
:101B900000BF21469B2000F0B3FB2946AB2000F09C
:101BA000AFFB70BD10B5044614F1040F0EDB042C1E
:101BB0000CDC201D0007010EA72000F0A1FB201D5A
:101BC0000007010EA82000F09BFB01E000BF00BF52
:101BD00010BD10B5044614F1040F0BDB042C09DC16
:101BE000C4F104003022A2EB8000C1B29C2000F0BE
:101BF00087FB01E000BF00BF10BD10B500F044FA44
:101C0000FFF73CF801F02CFD10BD000038B50024B2
:101C1000002000908021122000F072FB08B9002003
:101C200038BD0B220121684600F06AFA08B900208D
:101C3000F6E79DF80000212814D100240DE00B4A9E
:101C400002EB44025178094A12F8140000F058FBE4
:101C500008B90020E4E7601C84B20548007884429B
:101C6000EDDB01E00020DBE70120D9E73E000020AA
:101C7000D800002010B50446062C79D2DFE804F025
:101C800003142D465F79FF21132000F039FB6521F5
:101C90000E2000F035FB00212D2000F031FB00214B
:101CA0002E2000F02DFB70E0FD21132000F028FB1A
:101CB0005A21012000F024FB5C21022000F020FBCF
:101CC00065210E2000F01CFB00212D2000F018FBE8
:101CD00000212E2000F014FB57E0FD21132000F01E
:101CE0000FFB5821012000F00BFB6021022000F0C7
:101CF00007FB65210E2000F003FB00212D2000F0E2
:101D0000FFFA00212E2000F0FBFA3EE0FD21132017
:101D100000F0F6FA8421012000F0F2FA4C210220B2
:101D200000F0EEFA65210E2000F0EAFA00212D20E5
:101D300000F0E6FA00212E2000F0E2FA25E0FD2175
:101D4000132000F0DDFA9621012000F0D9FA40219D
:101D5000022000F0D5FA65210E2000F0D1FA002112
:101D60002D2000F0CDFA00212E2000F0C9FA0CE061
:101D700008E0FF21132000F0C3FAE5210E2000F057
:101D8000BFFA02E000BF00BF00BF00BF10BD10B52A
:101D90000446072C58D2DFE804F004111E2B384506
:101DA00052000621A62000F0ABFA8021602000F04E
:101DB000A7FA8021612000F0A3FA48E02621A6209E
:101DC00000F09EFA8021602000F09AFA80216120C4
:101DD00000F096FA3BE01E21A62000F091FAA02127
:101DE000602000F08DFA4021612000F089FA2EE099
:101DF0001E21A62000F084FA4021602000F080FA25
:101E0000A021612000F07CFA21E01E21A62000F034
:101E100077FA8021602000F073FAC021612000F081
:101E20006FFA14E01E21A62000F06AFA602108462D
:101E300000F066FA6021612000F062FA07E04621B6
:101E4000A62000F05DFA02E000BF00BF00BF00BFA7
:101E500010BD2DE9F84306460F4614461D46DDF831
:101E60002080B8F1000F04D14621122000F048FA7A
:101E700003E00621122000F043FA172201216846F0
:101E800000F03EF99DF8000000EBA60000F0FF090D
:101E90004946172000F034FAC4F38701182000F0F7
:101EA0002FFA19220121684600F02AF99DF8000056
:101EB00000EB670000F0FF094946192000F020FA06
:101EC000C5F347011A2000F01BFA322201216846AF
:101ED00000F016F904F003009DF80010084305F027
:101EE000010140EA810006F0030140EA011007F019
:101EF000010140EA81194946322000F001FAC4F399
:101F00008701292000F0FCF9C5F347012C2000F0DF
:101F1000F7F92A220121684600F0F2F804F00300E4
:101F20009DF80010084305F0010140EA8109494687
:101F30002A2000F0E5F9BDE8F883704729B1064A88
:101F400052690243044B5A6104E0034A52698243D6
:101F5000014B5A61704700000010024029B1064A47
:101F600092690243044B9A6104E0034A92698243F6
:101F7000014B9A61704700000010024030B500210B
:101F80000022002400232D4D6D6805F00C0121B1C5
:101F9000042905D0082923D105E0294D056022E058
:101FA000274D05601FE0254D6D6805F47012234D27
:101FB0006D6805F48034022505EB92421CB9214D71
:101FC000554305600BE01D4D6D6805F400351DB1EE
:101FD0001C4D5543056002E0194D5543056002E074
:101FE000174D056000BF00BF144D6D6805F0F0018E
:101FF0000909154D6B5C0568DD4045600F4D6D6846
:1020000005F4E061090A104D6B5C4568DD408560B0
:102010000A4D6D6805F46051C90A0B4D6B5C45684B
:10202000DD40C560054D6D6805F44041890B074DE5
:102030006B5CC568B5FBF3F5056130BD001002406F
:1020400000127A0000093D00140000202400002046
:1020500010B540210B48FFF795F800F071F9802189
:102060000848FFF78FF800F06BF940210548FFF7AB
:102070008BF800F065F940210248FFF783F800F083
:102080005FF910BD0010014008B501211020FFF7D5
:1020900065FF4020ADF8000003208DF802001420F9
:1020A0008DF8030069460748FEF7D8FF012110208C
:1020B000FFF754FF8020ADF8000069460148FEF7A5
:1020C000CDFF08BD0010014010B540210B48FFF7BF
:1020D00059F800F035F980210848FFF755F800F06D
:1020E0002FF940210548FFF74FF800F029F940216A
:1020F0000248FFF747F800F023F910BD0010014037
:1021000070B505460C46164600F08EF808B900205A
:1021100070BD422000F05CF800F0CCF818B900F077
:10212000ADF80020F4E7304600F052F800F0C2F8B5
:1021300000F0A4F800F078F808B90020E8E74320A0
:1021400000F046F800F0B6F818B900F097F8002053
:10215000DEE70CE000F012F82870012C02D1FFF746
:10216000B3FF01E0FFF774FF6D1C601E84B2002C0A
:10217000F0D100F083F80120CAE7000070B508250F
:10218000002480211148FEF7FFFF14E06006040ED2
:1021900040210E48FEF7F6FF00F0D2F840210B4830
:1021A000FEF7F2FF00F0CCF880210848FEF7E1FFCF
:1021B00008B144F001042800A5F10101CDB2E5D138
:1021C00040210248FEF7DEFF204670BD00100140AE
:1021D00070B5044608251BE040211248FEF7D2FFE7
:1021E00000F0AEF804F0800020B180210D48FEF729
:1021F000CBFF03E080210B48FEF7C4FF6006040E0E
:1022000000F09EF840210748FEF7BEFF00F098F866
:102210002800A5F10101CDB2DED140210148FEF731
:10222000B1FF70BD0010014010B580211248FEF7CB
:10223000ABFF40211048FEF7A7FF00F081F8802196
:102240000D48FEF796FF08B9002010BD80210A480E
:10225000FEF798FF00F074F880210748FEF789FF29
:1022600008B10020F1E780210348FEF78BFF00F062
:1022700067F80120E9E700000010014010B5402197
:102280000B48FEF77FFF00F05BF880210848FEF75F
:1022900079FF00F055F840210548FEF775FF00F082
:1022A0004FF880210248FEF76FFF00F049F810BD9B
:1022B0000010014010B540211048FEF763FF00F008
:1022C0003FF880210D48FEF75FFF00F039F840210C
:1022D0000A48FEF759FF00F033F880210748FEF75F
:1022E00048FF28B140210548FEF74CFF002010BDF3
:1022F00040210248FEF746FF0120F8E700100140A8
:1023000070B504460D46FFF78FFF08B9002070BD79
:102310004220FFF75DFFFFF7CDFF18B9FFF7AEFFD3
:102320000020F4E7E0B2FFF753FFFFF7C3FF2846B2
:10233000FFF74EFFFFF7BEFFFFF7A0FF0120E6E724
:102340004FF4C87001E0411E88B20028FBD17047ED
:102350007CB50546002400200090019000F0E2F8D2
:1023600000F0007010B10E2420467CBD3D49098864
:1023700088B26946FEF75CFD04460CB12046F4E7DE
:10238000012D36D1019800F4802000282ED0354848
:102390000088000434490860372048604020886085
:1023A0000020C860A8020861084600F0F9F837204C
:1023B000FEF7B0FA04460CB12046D6E702202A49BF
:1023C000086006204860402088600020C8604FF404
:1023D00080600861084600F0E3F80620FEF79AFAEC
:1023E00004460CB12046C0E72046BEE7252420461F
:1023F000BBE7019800F4803078B31A4800880004E5
:102400001949086037204860402088600020C86073
:102410004FF480600861084600F0C2F83720FEF7EC
:1024200079FA04460CB120469FE700200E49086067
:1024300006204860402088600020C8604FF480601B
:102440000861084600F0ACF80620FEF763FA04467F
:102450000CB1204689E7204687E7FFE72524204680
:1024600083E7000010010020081200200149886362
:1024700070470000008001400149886370470000F8
:10248000008001400149086070470000A000304210
:1024900001490860704700008C05304200210A4B5A
:1024A00002685A6242689A621A46D16A21F0F701BC
:1024B000D0E902231A4303691A4343691A431143BB
:1024C000014AD162704700000080014000200649A7
:1024D000086048608860C86048628862C8620348D3
:1024E00088630020C863704700800140FF07C00078
:1024F00001480069C0B270470080014001460020D9
:10250000034A526B0A400AB1012000E000207047E4
:10251000008001400248006800F00300704700009E
:102520000080014008B501460020009002480844A0
:1025300000900098006808BD1480014010B500F0BC
:1025400027FC10BD29B1064AD26B0243044BDA6363
:1025500004E0034AD26B8243014BDA637047000008
:102560000080014000210A4A516847F6FF6291430A
:10257000027D83681A4343681A43C3681A43036899
:102580001A4303691A431143014A5160704700001E
:1025900000800140014800687047000080800140D1
:1025A0000021094B02689A601A46D1686FF30A014C
:1025B000D0E901231A43C3681A4303691A4311433C
:1025C000014AD16070470000008001400549096858
:1025D00021F00301034A11601146096801431160AB
:1025E000704700000080014010B50248FEF776FAFF
:1025F00010BD00000020001030B58BB005460C4621
:102600001348FEF751FA00211248FEF75BFA124810
:102610000090019500200290A008039000200490F3
:102620008020059080000690800007900020089090
:102630004FF40050099000200A9069460548FEF7C3
:1026400063FA01210348FEF73DFA0BB030BD0000EC
:1026500000F00010440402408080014030B58BB08F
:1026600005460C461348FEF71FFA00211248FEF7F4
:1026700029FA12480090019510200290A0080390BA
:102680000020049080200590800006908000079034
:10269000002008904FF40050099000200A906946ED
:1026A0000548FEF731FA01210348FEF70BFA0BB09B
:1026B00030BD000000F00010440402408080014062
:1026C00070B50446002521480068032802D127255B
:1026D000284670BD1D48006838B11C4800680128B4
:1026E00003D01A48006802282ED1B4F5805F02D1C9
:1026F00027252846EDE7B4F5006F14D10120FFF738
:1027000027FE054605BB0120114908750020086019
:10271000486088604FF40060C86000200861084687
:10272000FFF720FF10E00020FFF712FE05465DB91D
:102730000120074908750020086048608860C8606B
:1027400008610846FFF70EFF2846C2E70C0100208B
:10275000F011002030B5014600200022AC4B1B7860
:1027600081F84E30AB4B1B88A1F84C30AA4B1B684C
:102770001A0E93090B70C2F383034B7002F003032C
:102780008B70A54B1B68C3F30742CA70A24B1B8812
:10279000C3F307220A71A04B1A784A715B681A0EBC
:1027A0001301CB809C4B5B68C3F30742CB8843EAA1
:1027B0001213CB8002F00F030B72974B9B88C3F36D
:1027C0000722D3094B72C2F380138B72C2F34013FA
:1027D000CB72C2F300130B7300234B738C4B1B683B
:1027E0001BB18B4B1B68012B3CD193071B0D0B615D
:1027F000894B1A790B6943EA82030B61864B9B680C
:102800001A0E0B6943EA92130B61C2F3C2030B75F4
:1028100002F007034B75804B9B68C3F307425309D3
:102820008B75C2F38203CB7593075B0F0B767A4BE4
:102830001B89C3F307220B7E43EAD2130B760B6985
:102840005B1C4B640C7E4B6CA41C0125A5406B43A8
:102850004B640C7A0123A3408B64D1E911346343A8
:102860004B6421E06A4B1B68022B1DD16A4B1A791D
:1028700093069B0A0B61684B9B681A0E0B6943EA2F
:1028800002230B61644B9B68C3F307420B6913433C
:102890000B61614B1B89C3F307220B695B1CDB04D3
:1028A0004B644FF400738B64C2F3801301F8193F3B
:1028B00093065B0E4B70584B1A7A4B7843EAD2134F
:1028C0004B7002F07F038B70534BDB681A0ED309F9
:1028D000CB70C2F341130B71C2F382034B719307A8
:1028E0001B0F8B714C4BDB68C3F307428B7943EAB8
:1028F00092138B71C2F34013CB7100230B7202F061
:1029000001034B72444B9B89C3F30722D3098B729B
:10291000C2F38013CB72C2F340130B73C2F30013E4
:102920004B73C2F381038B7302F00303CB733A4BF7
:102930001A7B53080B7401234B74384B1B681A0E17
:10294000CA741939354B1B68C3F307421402CC858E
:10295000324B1B88C3F30722CB8D1343CB852F4B00
:102960001A7814060C635B681A0E0B6B43EA024478
:102970000C632A4B5B68C3F307420B6B43EA0224E8
:102980000C63264B9B88C3F307220B6B13430B632B
:10299000224B1A7934235A54204B9B681A0E352344
:1029A0005A541E4B9B68C3F3074214068C631B4B9F
:1029B0001B89C3F307228B6B43EA02448C63174BDA
:1029C0001A7A8B6B43EA02248C63144BDB681A0E71
:1029D0008B6B13438B63114BDB68C3F307423C23C0
:1029E0005B5C43EA12143C235C5413071C0DCC8738
:1029F0000A4B9B89C3F30722CB8F1343CB87074B2B
:102A00001A7B540840235C54012441235C5430BD9C
:102A10000C01002010010020701100208011002006
:102A200008B500200090684600F06CFA08B1FF205D
:102A300008BD0098C0F34320FAE710B50424FFF75F
:102A4000EFFF0446042C01D1002010BDFF2C01D162
:102A50000220FAE70120F8E710B50024FFF717F885
:102A6000FEF7B4FAFFF732FD00F0CEF804460CB1E1
:102A7000204610BD00F02AF804460CB12046F8E7C5
:102A80000120104908750020086048608860C8600F
:102A900008610846FFF766FD1CB90B48FFF75AFEB0
:102AA000044634B90849B1F84C10080400F010FA93
:102AB000044624B94FF40060FFF702FE04462046A6
:102AC000D7E70000F0110020A011002038B5002445
:102AD00001200090FFF71EFD10B92524204638BDC7
:102AE00044480068042828D0002043490860022098
:102AF0004860C02088600020C8604FF48060086192
:102B00000846FFF74DFDFDF719FF04460CB12046BE
:102B1000E5E70020FFF706FD384908600420FFF7CD
:102B200001FD364948600820FFF7FCFC3349886006
:102B30000C20FFF7F7FC3149C8602E48006858B1F7
:102B40002C480068012807D02A480068062803D0CE
:102B500028480068022816D1002027490860032071
:102B60004860402088600020C8604FF480600861A1
:102B70000846FFF715FD69460320FDF721FF0446CF
:102B80000CB12046ABE71B48006804282ED0BDF8E6
:102B900000001B490860BDF80000000416490860E9
:102BA00009204860C02088600020C8604FF4806021
:102BB00008610846FFF7F4FCFDF7C0FE04460CB1BF
:102BC00020468CE70020FFF7ADFC0E49086004208A
:102BD000FFF7A8FC0B4948600820FFF7A3FC094950
:102BE00088600C20FFF79EFC0649C8600024204640
:102BF00075E700000C010020081200208011002061
:102C000010010020701100202DE9F0410024002661
:102C100000250027A046B220594908750020086009
:102C200048608860C86008610846FFF79BFC032085
:102C3000FFF7CCFC0120FFF725FC0020514908607C
:102C400048608860C8604FF4806008610846FFF7FC
:102C5000A7FCFDF748FE044614B12046BDE8F0810C
:102C60004FF4D570474908600820486040208860CC
:102C70000020C8604FF4806008610846FFF790FCB0
:102C8000FDF7ECFE04462CB901203F4908604FF0E7
:102C9000804812E000203B4908603720486040200F
:102CA00088600020C8604FF4806008610846FFF724
:102CB00077FC3720FDF72EFE0446002031490860DE
:102CC00037204860402088600020C8604FF4806052
:102CD00008610846FFF764FC3720FDF71BFE044639
:102CE000002C4AD136E00020264908603720486091
:102CF000402088600020C8604FF48060086108466A
:102D0000FFF74EFC3720FDF705FE04460CB12046C8
:102D1000A4E71E4848EA00001A49086029204860D4
:102D2000402088600020C8604FF480600861084639
:102D3000FFF736FCFDF728FE04460CB120468DE770
:102D40000020FFF7EFFB0646012080EAD67080F0F6
:102D500001076D1C1FB94FF6FF708542C3D34FF6B4
:102D6000FF70854202D31B24204677E706F080409F
:102D7000060002D002200449086020466EE70000E9
:102D8000F0110020081200200C010020000010802B
:102D900010B51148006801280BD100200F49886048
:102DA00040F24C40C8600C20FDF7B4FD0C4908709F
:102DB00002E000200A4908704FF48070FFF75CFBC6
:102DC00000214FF48070FFF7BDFB0120054908602A
:102DD0000348007810BD000014010020008001406D
:102DE000180100201C0100202DE9F04180460D460D
:102DF00014461E46002700202E4908702E49086000
:102E000001202E49086000202D49C8622D48006825
:102E1000022801D104026D0A2B48046010202A49BF
:102E20004860402088600020C8604FF480600861DE
:102E30000846FFF7B5FB1020FDF76CFD074617B1FC
:102E40003846BDE8F0814FF0FF302049086006FBAE
:102E500004F04860902088600220C860002008616B
:102E6000012048610846FFF719FB1748056012204A
:102E700015494860402088600020C8604FF4806099
:102E800008610846FFF78CFB1220FDF743FD07465B
:102E90000FB13846D5E701210802FFF753FB0120A7
:102EA000FFF7F6FA06FB04F14046FFF7A5FB3846AC
:102EB000C7E70000180100201C01002014010020B9
:102EC000008001400C010020081200201C1200208C
:102ED00070B5044600250A48046007200849486088
:102EE000402088600020C8604FF480600861084678
:102EF000FFF756FB0720FDF70DFD0546284670BD80
:102F00000812002070B5044600250A480088000415
:102F10000949886040F24D40C8600D20FDF7FAFC79
:102F200005460DB1284670BD03484069206028461B
:102F3000F9E70000100100200080014010B50024D6
:102F400000BFFFF751FB30B90748006818B90748C0
:102F500000780028F5D00548007810B103480078C3
:102F600010BD2046FCE700001C01002018010020D5
:102F700010B5002400BFFFF737FB30B909480068DF
:102F800018B9094800780028F5D00748007810B132
:102F90000548007810BD40F2FF50FFF767FA204661
:102FA000F8E700001C010020180100202DE9F8437B
:102FB00080460F4615461E460024002000904549D5
:102FC00008704549086001204449086000204449D0
:102FD000C86244480068022801D105027F0A4248BD
:102FE0000560102040494860402088600020C8608B
:102FF0004FF4806008610846FFF7D2FA1020FDF711
:1030000089FC044614B12046BDE8F883374800889F
:10301000000435490860372048604020886000205F
:10302000C8604FF4806008610846FFF7B9FA37209E
:10303000FDF770FC04460CB12046E5E72A4806601F
:10304000172029494860402088600020C8604FF45C
:10305000806008610846FFF7A3FA1720FDF75AFCC5
:1030600004460CB12046CFE71F48076019201E49CF
:103070004860402088600020C8604FF4806008618C
:103080000846FFF78DFA1920FDF744FC04460CB101
:103090002046B9E74FF0FF301549086006FB05F000
:1030A0004860902088600020C86008610120486165
:1030B0000846FFF7F3F901210802FFF743FA012060
:1030C000FFF7E6F906FB05F14046FFF7C7FA204691
:1030D0009AE70000180100201C01002014010020C4
:1030E000008001400C010020081200201001002087
:1030F0001C120020704700002DE9FF4F95B01446C8
:103100001D4638225DA107A8FDF72EF8002001908A
:103110002046E11704EB91718910A4EB810204FBB6
:1031200005F101EB410105FB021101F13607F8B28F
:103130008DF81E00380A8DF81F00380C8DF820001D
:10314000380E8DF82100A04608F0FF008DF82E0003
:103150004FEA18208DF82F004FEA18408DF8300004
:103160004FEA18608DF83100A94609F0FF008DF88C
:1031700032004FEA19208DF833004FEA19408DF8DC
:1031800034004FEA19608DF835000A224948229927
:1031900001F0D0FC48490870464801F08CFC02223E
:1031A0004448229901F0C6FC43490870084600785B
:1031B000002860D102AB362207A93E4801F0D1FDBC
:1031C0003D4908702046E11704EB91718910A4EB8A
:1031D000810101F0FF0B002644E00020069032E060
:1031E000169A2A44521E921B91B2069B159A1A44B3
:1031F00090B2FEF78BF982464FEADA20C0000590C4
:10320000CAF34510800004904FEACA60000E039094
:1032100002AB012203A9274801F0A3FD264908704B
:1032200002AB012204A9234801F09BFD224908704A
:1032300002AB012205A91F4801F093FD1E49087049
:103240000698401C06900698A042C9DBBBF1000F0F
:1032500007D05A4602AB01A9164801F082FD164973
:103260000870761CAE42B8DB124801F024FC002046
:1032700019B0BDE8F08F4FF0FF30F9E7424D000084
:1032800000000000000036000000280000000000E0
:103290000000000000000100180000000000000015
:1032A000000000000000000000000000000000001E
:1032B00000000000F41500202001002010B500F0EF
:1032C00001F810BD0CB50020019000903348006853
:1032D00040F480303149086000BF3048006800F495
:1032E000003000900198401C0190009818B9019896
:1032F000B0F5A06FF1D12948006800F4003010B19A
:103300000120009001E0002000900098012843D1A6
:103310002348006840F01000214908600846006812
:1033200020F0030008600846006840F002000860D2
:103330001A4840681949486008464068486008468D
:10334000406840F4806048600846406820F47C1083
:1033500048600846406840F4E81048600846006845
:1033600040F08070086000BF0C48006800F00070FA
:103370000028F9D00948406820F003000749486058
:103380000846406840F00200486000BF03484068BB
:1033900000F00C000828F9D10CBD0000001002401C
:1033A0000020024010B500F083F800F079F8002406
:1033B0000CE0084850F8240030B1064850F82400CA
:1033C000401E044941F82400601CC4B2032CF0DB09
:1033D00010BD00003401002030B5164800684FF4DD
:1033E0007A72B0FBF2F1B1F1807F01D301201DE0D0
:1033F00021F07F40401E4FF0E022506150170F2215
:10340000002807DA13071D0E0B4B00F00F04241FD2
:103410001D5503E013071C0E084B1C5400BF002071
:103420004FF0E022906107201061002008B100BF3A
:10343000FEE730BD0000002018ED00E000E400E0F1
:1034400010B51348006840F00100114908600846B3
:103450004068104908400E494860084600680E4917
:1034600008400B4908600846006820F48020086086
:103470000846406820F4FE0048604FF41F00886052
:10348000FFF71CFF4FF000600449086010BD00000A
:10349000001002400000FFF8FFFFF6FE08ED00E01C
:1034A00002480068401C014908607047080100207C
:1034B0000448006820B103480068401E01490860C4
:1034C000704700000401002021B1828942F40052BB
:1034D000828104E082894DF6FF731A408281704731
:1034E00000B585B001210420FEF738FD01218803D5
:1034F000FEF734FD4FF40070ADF8100018208DF881
:10350000130003208DF8120004A91348FDF7A6FD4F
:103510004FF48060ADF8100004208DF8130004A96A
:103520000D48FDF79BFD4FF4E13000900020ADF811
:103530000400ADF80600ADF80800ADF80C000C2052
:10354000ADF80A006946054800F018F80121034863
:10355000FFF7BAFF05B000BD000801400038014088
:1035600002460020B1F5007F00D100BF13880B4058
:103570000BB1012000E00020704700002DE9F0476A
:1035800086B005460E460024A24600BFA14600278D
:10359000B08900B100BF2F462C8A4CF6FF70044062
:1035A000F08804432C82AC894EF6F3100440B088B6
:1035B00031890843718908430443AC81AC8A4FF6D2
:1035C000FF400440B0890443AC8201A8FEF7D6FC5A
:1035D0001F48874202D1DDF810A001E0DDF80CA001
:1035E000A88900F4004040B10AEBCA0000EB0A10C1
:1035F00031684900B0FBF1F807E00AEBCA0000EBC4
:103600000A1031688900B0FBF1F86420B8FBF0F0D3
:1036100004012009642101FB1089A88900F40040FD
:1036200040B1322000EBC900B0FBF1F000F0070020
:10363000044308E0322000EB09106421B0FBF1F0F4
:1036400000F00F0004432C8106B0BDE8F0870000B5
:1036500000380140C1F308028280704700BFFEE7D6
:103660001FB501214120FEF779FC0820ADF80C00C0
:1036700004208DF80F0003208DF80E0003A91648D2
:10368000FDF7ECFC03210220FDF7C8FC08200190A7
:1036900000208DF808000C208DF8090001208DF81D
:1036A0000A0001A8FDF7A0FA0820FDF781FA4FF4FF
:1036B000C060FEF739FA09208DF8000000208DF86F
:1036C000010003208DF8020001208DF803006846F8
:1036D000FEF7F2F91FBD0000001001400FB4054BCA
:1036E00010B503A9044A029800F0DEF810BC5DF89A
:1036F00014FB000001550008300100200FB4084BF6
:1037000010B504A902AA039800F0CEF8044602A955
:10371000002000F060FC204610BC5DF814FB0000A7
:10372000D73F000802E008C8121F08C1002AFAD1DA
:1037300070477047002001E001C1121F002AFBD131
:10374000704700002DE9FF5FDDE90220010DDDF883
:1037500038B0024318D044F61050A1F2FF31414373
:103760000D140F98012820D0A5EB0B00401C5FEA38
:10377000000A4FF00004474EDFF81C91A046504667
:1037800016D5CAF1000728E00F98012443A20128AA
:1037900008D0002100980F9BC0E90021C0E9024336
:1037A000BDE8FF9F6FEA0B01F4E7CBF10000DEE715
:1037B000074612E0F80707D02246334640464946FE
:1037C000FCF7B2FE8046894622463346104619462B
:1037D000FCF7AAFE04460E467F10002FEAD1DDE971
:1037E0000201BAF1000F42464B4602DAFCF79CFE9A
:1037F00001E0FCF70BFF04460E460022284BFCF7C5
:103800008DFF03D84FF0FF30014607E00022254B23
:1038100020463146FCF7E1FDFCF767FF102409E084
:10382000002C0ADB0A220023FCF76FFD019B3032DB
:103830001A55641E50EA0102F2D1641C019AC4F1C7
:10384000110314440F9A012A03D0012208430DD119
:103850000AE0084304D000204FF0110B0F9080E7DE
:10386000A3EB0B056D1E0DE05B4504DD4FF0000280
:1038700005F1010504E003DA4FF00002A5F10105AE
:10388000002AECD000980F99C0E90231C0E9004548
:1038900086E70000000024400000F03F30000000F8
:1038A0000000F0430000E03F2DE9FF4F95B09B463C
:1038B0008946064600250FE2252877D100242746B1
:1038C000F84A0121059400E0044316F8013F203B2B
:1038D00001FA03F01042F7D130782A2811D06FF0A6
:1038E0002F033078A0F13002092A16D8059A44F047
:1038F000020402EB820203EB42021044761C0590A4
:10390000EFE759F8042B0592002A03DA504244F4F9
:103910000054059044F00204761C30782E2816D10D
:1039200016F8010F44F004042A280DD06FF02F027E
:103930003078A0F13003092B09D807EB870302EB9D
:103940004303C718761CF3E759F8047B761C3078DC
:103950006C280FD006DC4C2817D068280DD06A28B8
:1039600014D104E0742810D07A280FD10DE044F46B
:1039700000140AE044F4801401E044F44014727826
:10398000824202D104F58014761C761C30786628B9
:103990000BD013DC582877D009DC002875D04528D7
:1039A000F6D04628F4D047281AD19DE118E06328C4
:1039B00035D0642879D0652812D195E1702873D06C
:1039C00008DC6728F1D069286FD06E280DD06F28E9
:1039D00006D1B5E073282CD0752875D0782874D01E
:1039E0005A46179990476D1C75E1C4F3025002289E
:1039F00009D003280DD0D9F8001004280DD00D608F
:103A000009F1040967E1D9F80010EA17C1E9005289
:103A1000F6E7D9F800100D80F2E70D70F0E719F81D
:103A2000041B8DF8001000208DF80100EA460120EB
:103A300003E059F804AB4FF0FF3061074FF000018D
:103A400002D40DE008F101018846B9420FDA804541
:103A5000F8DB1AF808100029F4D108E008F1010198
:103A600088468142FADB1AF808100029F6D1059839
:103A70005B46A0EB080721463846179A00F094FAF7
:103A8000284400EB080507E04DE029E10DE01AF8B5
:103A9000010B5A4617999047B8F10108F7D25B46D7
:103AA00021463846179A13E142E00A220092C4F3F5
:103AB00002524FF0000A022A08D059F804CB032A18
:103AC0004FEAEC710AD00DE029E02AE009F1070184
:103AD00021F00702F2E802C1914609E00FFA8CFCDE
:103AE0004FEAEC71042A03D14FFA8CFC4FEAEC71D7
:103AF000002907DA0A460021DCF1000C61EB020123
:103B00002D2202E0220504D52B228DF8042001226B
:103B100003E0E20701D02022F7E7904659E00A21AE
:103B200002E010220DE010214FF0000A00910BE09E
:103B300010224FF0000A44F004040827009203E02A
:103B400008224FF0000A0092C4F30252022A05D064
:103B500059F804CB0021032A08D009E009F1070134
:103B600021F00702F2E802C1914605E01FFA8CFC41
:103B7000042A01D10CF0FF0C4FF00008220728D5D1
:103B8000702806D0009B83F0100353EA0A0305D087
:103B90000EE040228DF80420012208E05CEA0102D8
:103BA00006D030228DF804208DF8050002229046C0
:103BB000009B83F0080353EA0A030AD15CEA01027E
:103BC00001D1620705D530228DF804204FF001089D
:103BD0007F1E582804D034A003900EA802900DE058
:103BE00036A0F9E753466046009AFCF78EFB844600
:103BF0000398825C0298401E029002705CEA010009
:103C0000F0D1029806A9081A00F1200A600702D52F
:103C100024F4803400E00127574502DDA7EB0A00B9
:103C200000E0002000EB0A01009005984144401A92
:103C30000590E00306D45B462146179A059800F0EC
:103C4000B3F90544002706E001A85A46C05D17995C
:103C500090476D1C7F1C4745F6DBE0030CD55B46A7
:103C60002146179A059800F09FF9054404E030209A
:103C70005A46179990476D1C0099481E00900029DC
:103C8000F5DC08E0029802995A460078491C029136
:103C9000179990476D1CBAF10001AAF1010AF1DCF5
:103CA00065E1000009280100303132333435363700
:103CB0003839616263646566000000003031323378
:103CC0003435363738394142434445460000000018
:103CD00000F058F90544761C307800287FF4ECADEC
:103CE00019B02846BDE8F08F620700D4062709F115
:103CF000070222F0070CFCE80223E14603F000482B
:103D00005FEA080C02D00FF2702C0DE05FEA045C51
:103D100002D50FF2682C07E05FEAC47C02D00FF2F4
:103D2000602C01E0AFF2700C4FF0FF3823F000433D
:103D3000CDF850C065280CD006DC452809D04628AF
:103D40001DD047283DD13DE0662818D067287ED198
:103D500038E00021112F01DB112000E0781CCDE9B3
:103D6000000106A90EA8FFF7EDFCDDE90F010E9A90
:103D700003910021009207F1010A04914DE04FF0F8
:103D800000400097CDE9011006A90EA8FFF7DAFC64
:103D9000DDE90F0203920E9B11990022DDF80CA0C1
:103DA0000093049211B9791C00EB010AB7EB0A00E9
:103DB00004D4C0F1FF3007F1010A0490AAEB070018
:103DC000019044E0012F00DA01270021112F01DDCD
:103DD000112000E03846CDE9000106A90EA8FFF742
:103DE000B1FCDDE90F010E9A0391002104910092CC
:103DF000BA4621070CD40399514500DA8A46BAF134
:103E0000010F05DD009AAAF10101515C302908D0AB
:103E1000B84202DA10F1040F06DA0121CDE90110EF
:103E200015E0AAF10101E9E7002805DC0499014445
:103E30000491AAEB000102E0411C514500DD8A46D5
:103E40000499401A401C01904FF000400290200756
:103E500004D40198504501DBCDF8048000208DF892
:103E60004F0002980DF14F07B0F1004F25D02B20E5
:103E70000E9002984FF0020800280CDA404202909F
:103E80002D200E9007E00A210298FCF728FA303125
:103E9000029007F8011DB8F10001A8F10108F2DC59
:103EA00002980028EFD1791E0E980870307800F043
:103EB000200040F0450007F8020D12A8C01B00F1D9
:103EC00007081498007800B1012000EB0A0101985E
:103ED00001EBE07105984144401A401E0590E00353
:103EE00006D45B462146179A059800F05DF8054414
:103EF0001498007818B15A46179990476D1CE00342
:103F000024D55B462146179A059800F04DF80544E4
:103F10001CE00498002807DBDDE90301884203DD8B
:103F20000098405C179901E0179930205A46904755
:103F3000049805F10105401C04900198401E019071
:103F400004D12E205A46179990476D1CBAF10001F2
:103F5000AAF1010ADDDC05E017F8010B5A461799B2
:103F600090476D1CB8F10001A8F10108F4DC5B4634
:103F70002146179A0598ABE62D0000002B000000A3
:103F8000200000002DE9F041044600251E4617469A
:103F9000880404D405E039462020B0476D1C641E17
:103FA000F9D52846BDE8F0812DE9F0410446002509
:103FB0001E469046C80301D5302700E0202788041C
:103FC00004D505E041463846B0476D1C641EF9D55E
:103FD0002846BDE8F0810A68531C0B6010707047DA
:103FE00070B504460D4600202071401EE06229464F
:103FF000204601F003FE08B1032070BD94F82E1294
:1040000094F82F0241EA00204AF65521884201D057
:104010000220F2E794F86900010694F8680041EA8A
:10402000004194F8670041EA002094F866100843C4
:1040300020F07F400D49884201D10020DDE794F84F
:104040008500010694F8840041EA004194F8830059
:1040500041EA002094F88210084320F07F40034991
:10406000884201D10020C8E70120C6E7464154003C
:10407000024600E0521C107810B110788842F9D145
:10408000107870470246891E5069801E884201D808
:10409000002070479378906A01FB0300F9E7000065
:1040A0002DE9F04780460C46A17EE07E41EA0020E3
:1040B00010B10020BDE8F087207800F03F00401EDE
:1040C00000EB800101EBC0064FF00109002524E060
:1040D0001A48405D205C1949495D2144497840EA0D
:1040E0000127B9F1000F11D0FF2E0BD2384600F096
:1040F00065FF82463146761C38F8110000F05EFFFD
:10410000824501D00020D5E7B94605E04FF6FF70A3
:10411000874201D00020CDE76D1C0D2DD8D320782B
:1041200000F0400038B1B9F1000F04D038F81600A3
:1041300008B10020BEE70120BCE70000809B00081A
:104140002DE9F04704468946B9F1000F06D1E7682A
:1041500017B16069B84215D8012713E049462046D7
:1041600001F03AFA0646022E02D20120BDE8F0879D
:10417000701C08B93046F9E76069B04201D9304691
:10418000F4E74F463D4600BF6D1C6069A84204D865
:104190000225BD4201D90020E8E72946204601F06A
:1041A0001BFA064606B909E0701C08B1012E01D1C0
:1041B0003046DBE7BD42E7D10020D7E700BF6FF014
:1041C00070422946204601F033FD8046B8F1000FC9
:1041D00008D1B9F1000F05D02A464946204601F022
:1041E00027FD8046B8F1000F0BD1E5602069401C27
:1041F00078B12069401E2061607940F00100607153
:1042000007E0B8F1010F02D14FF0FF3000E00120CC
:1042100005462846AAE700002DE9F34F83B0824601
:104220000498D0F800B001E00BF1010B9BF80000FE
:104230002F28F9D09BF800005C28F5D0DAF81C9004
:1042400000252E4600BF3046761C1BF80040202C6F
:1042500003DB2F2C01D05C2C00D11CE0FF2D03D3FD
:10426000062005B0BDE8F08FE4B20121204600F041
:104270007FFE04460CB90620F3E7802C06DA2146BF
:104280006BA0FFF7F5FE08B10620EAE728466D1C93
:1042900029F81040D7E700BF0BEB06010498016036
:1042A000202C01DA042000E00020074608E0681E08
:1042B00039F81040202C02D02E2C00D002E06D1EC8
:1042C000002DF4D100BF0DB90620CAE7002029F85F
:1042D00015000B222021DAF8180001F085FC0026D9
:1042E00000E0761C39F816002028FAD039F81600BC
:1042F0002E28F6D00EB147F0030700E06D1E25B161
:10430000681E39F810002E28F8D14FF00008CDF8BB
:1043100008800820019000BF3046761C39F8104014
:1043200004B955E0202C03D02E2C04D1AE4202D08B
:1043300047F00307F0E7DDE90110884201D2AE4201
:1043400016D101980B2802D147F0030740E0AE4296
:1043500001D047F00307AE4200D939E02E460820CD
:1043600002900B2001904FEA88604FEA1068D3E773
:10437000802C0BDB0021204600F0FAFD04461CB126
:10438000A4F180002D490C5C47F0020700BF24B166
:1043900021462BA0FFF76CFE18B15F2447F00307FE
:1043A0000FE0412C04DB5A2C02DC48F0020808E044
:1043B000612C06DB7A2C04DC48F00108A4F1200013
:1043C00084B2DAF818300298411C02911C54A3E719
:1043D00000BFDAF818000078E52803D10520DAF8E4
:1043E000181008700198082803D14FEA88604FEA36
:1043F000106808F00C000C2803D008F00300032814
:1044000001D147F0020707F0020058B908F0030095
:10441000012801D147F0100708F00C00042801D151
:1044200047F00807DAF81800C772002019E7000003
:10443000222A3A3C3E3F7C7F00000000009B00089F
:104440002B2C3B3D5B5D00002DE9F04104460E4600
:104450000021204600F0CDF90546EDB9002700BF48
:104460002169206801F0CAFB054605B113E06069C7
:104470000078E52802D06069007820B9781C0746EA
:10448000B04201D107E000270121204600F07FF86B
:104490000546002DE4D000BF042D00D10725284695
:1044A000BDE8F0812DE9F04704460021204600F0E8
:1044B000A0F9074617B13846BDE8F0874FF0FF096D
:1044C000CA464FF6FF70208400BF2169206801F0C2
:1044D00095FB074607B157E065692E780EB90427AA
:1044E00052E0E87A00F03F08E52E05D008F0080019
:1044F00040B1B8F10F0F05D04FF0FF094FF6FF7034
:1045000020843AE0B8F10F0F1CD1E06978B306F0CF
:10451000400030B195F80DA026F04006B146E08885
:1045200020844E450AD1687B504507D12946E06971
:10453000FFF7B6FD10B1A9F1010000E0FF2000F087
:10454000FF091AE0B9F1000F05D1284601F072FC0D
:10455000504500D118E0A069C07A00F0010038B9D8
:104560000B222846A16901F01FFB08B90CE004E00A
:104570004FF0FF094FF6FF7020840021204600F025
:1045800006F80746002FA0D000BF384694E72DE973
:10459000F04104468846E088461CB0B208B1206964
:1045A00010B90420BDE8F08121684889C11700EBEB
:1045B000D1614911B6FBF1F201FB1261002971D101
:1045C0002069401C2061E06828B920680089B04259
:1045D00068D80420E6E721684889C11700EBD1615B
:1045E0004911B6FBF1F122689278521E1140002960
:1045F00058D1E168206800F0EFFF0546012D01D891
:104600000220CFE7681C08B90120CBE72068406989
:10461000A84241D8B8F1000F01D10420C2E7E168F7
:104620002068FFF78DFD05460DB90720BAE7012D7B
:1046300001D10220B6E7681C08B90120B2E7206862
:1046400001F06CFC08B10120ACE721684A8901F156
:104650003000002101F0C8FA29462068FFF712FD5A
:104660002168C86200270EE00120216808712068D7
:1046700001F054FC08B1012094E72068C06A401C96
:104680002168C8627F1C20688078B842ECD8206816
:10469000C06AC01B2168C862E56029462068FFF730
:1046A000F1FC2061E68021684889C11700EBD161E7
:1046B0004911B6FBF1F201FB12612268303202EBC4
:1046C0004111616100206DE72DE9FE4F0446D4F8E9
:1046D0001880D4F81C900C224146684601F077FA05
:1046E00000BF9DF80B0000F0010020B3002088F807
:1046F0000B00E06101260CE033464A46694640461D
:1047000000F010FF2046FFF7CDFE054605B102E0A0
:10471000761C642EF0D300BF642E02D10720BDE8C2
:10472000FE8F042D01D02846F9E79DF80B0088F88C
:104730000B00C4F81C909DF80B0000F0020060B163
:10474000002600E0761C39F816000028FAD106F1A0
:1047500019000D21B0FBF1F700E001273946204692
:10476000FFF772FE054645BB781E070025D0E0889E
:10477000C11B204600F03DF80546F5B9A06901F0DF
:1047800059FB824600BF2169206801F037FA0546CF
:1047900005B111E0FAB253466169E06900F028FE04
:1047A00001202168087100212046FFF7F0FE054630
:1047B00015B9781E0700E6D100BFC5B92169206888
:1047C00001F01CFA054695B920220021606901F02C
:1047D0000BFA0B22D4E9050101F0F9F9A069C07ABE
:1047E00000F01800616908730120216808712846EB
:1047F00095E72DE9F04104460E46E680A568012DB7
:1048000003D020684069A84202D80220BDE8F081A8
:104810002DB920680078032801D12068456A45B980
:1048200020680089B04201D80220EFE72068476A7B
:1048300024E021684889C11700EBD1614911226841
:10484000927801FB02F812E02946206800F0C4FECD
:104850000546681C08B90120D8E7022D03D320685B
:104860004069A84201D80220D0E7A6EB08064645D9
:10487000EAD229462068FFF705FC0746E5600FB934
:104880000220C3E721684889C11700EBD1614911B3
:10489000B6FBF1F13944216121684889C11700EB69
:1048A000D1614911B6FBF1F201FB1261226830328D
:1048B00002EB411161610020A8E770B504460125B3
:1048C00014B1012C09D107E0FEF7C6F810B925F0A4
:1048D000010500E0012502E001E0012500BF00BF65
:1048E000284670BD30B50346042013B1012B1CD1FE
:1048F0001AE0A9B101290BD0022902D0032910D155
:1049000003E04FF4007414800BE00124146008E00D
:10491000084C646C074DAD6CB4FBF5F4146000E01A
:1049200000BF00BF002002E001E0042000BF00BF84
:1049300030BD0000A01100202DE9F047ADF5007D4D
:1049400006460C4615461F464FF0040A4FF0000875
:1049500016B1012E41D13FE004F0030000B34FF047
:10496000000913E02A466D1C012369460020FFF769
:10497000E3FF8146B9F1000F00D00BE04FF4007265
:1049800069462046FBF7F0FB04F500743800A7F1F8
:104990000107E7D100BF48460DF5007DBDE8F0876F
:1049A00069023B464FF400722046FEF71DFA80462E
:1049B000B8F1000F07D1FEF7C1FA804600BFFEF73D
:1049C0003CF80028FBD1B8F1000F02D04FF0040AE8
:1049D00001E04FF0000A03E002E04FF0040A00BFDC
:1049E00000BF5046D8E70146012011B1012904D18A
:1049F00002E020F0010002E001E0012000BF00BF62
:104A000070472DE9F047ADF5007D07460C46154689
:104A10001E464FF0040A4FF0000826B904200DF599
:104A2000007DBDE8F08717B1012F3ED13CE004F0D6
:104A30000300E8B14FF0000913E04FF40072214683
:104A40006846FBF791FB2A466D1C0123694600204E
:104A5000FFF7D7FF8146B9F1000F00D005E004F55C
:104A600000743000A6F10106E7D100BF4846D6E742
:104A7000690233464FF400722046FEF797FA8046EB
:104A8000B8F1000F07D1FEF773FA804600BFFDF7BB
:104A9000D4FF0028FBD1B8F1000F02D04FF0040A78
:104AA00001E04FF0000A03E002E04FF0040A00BF0B
:104AB00000BF5046B3E770B50546284600F0F9F848
:104AC000044634B9284601F052FA04460CB90020D5
:104AD0002860204670BD0000F7B582B016460398E6
:104AE000019001A800F01CFE0546002D02DA0B2003
:104AF00005B0F0BD0E4850F825400CB100202070E4
:104B0000029810B10020029908700949029841F8F2
:104B10002500029808B1012E01D00020E8E700220C
:104B200003A902A800F078FA07463846E0E700003B
:104B3000240100202DE9F743ADF50C7D054616460E
:104B400025B909200DF50F7DBDE8F0830020286010
:104B500006F01F0626F001028DA983A800F05CFA7A
:104B60000746002F74D180A88990CDF828D283A859
:104B70008D9900F07DFC0746889C0FB904B9062783
:104B800006F01C0000285CD04FB1042F03D183A88D
:104B9000FFF79AFD074646F00806889C09E0E07A90
:104BA00000F0110008B1072703E006F0040000B18F
:104BB0000827002F55D106F00800002851D000F03A
:104BC000ABFD804684F80E804FEA1821E1734FEA6E
:104BD000184121744FEA1861617484F816804FEA15
:104BE0001821E1754FEA184121764FEA1861617684
:104BF0000020E072207700216177A177E1772146DC
:104C0000839800F0B2FD81460021204601F00AF9A8
:104C1000012083990871B9F1000F22D08398D0F850
:104C20002C804946839801F0C7F80746CFB9A9F10F
:104C300001008399C8604146839800F0DFFF074672
:104C40000FE077B9E07A00F0100010B1042708E017
:104C50002DE006F0020020B1E07A00F0010000B182
:104C6000072747B906F0080008B146F020068398E8
:104C7000C06AE8612C62D7B9AE710020E8712146A4
:104C8000839800F072FD2861E07F0106A07F41EA71
:104C90000041607F41EA0020217F0843E860002056
:104CA000A860A861839828602868C088A8803846D2
:104CB00048E72DE9F0410446204601F058F907463F
:104CC000002F4CD1A07900F02000002847D0A07917
:104CD00000F0400078B121684878012304F12401F4
:104CE000A269FFF78EFE10B10120BDE8F081A07926
:104CF00020F04000A071E169206800F07FFF0746C6
:104D0000002F2CD1256AE87A40F02000E872207B41
:104D10002877A089010A6977E068010CA977E06823
:104D2000010EE9772846216901F07CF800F0F4FCD7
:104D30000646AE75310AE975310C2976310E697671
:104D40000020A8740021E974A07920F02000A0714F
:104D5000012021680871206801F07CF80746384678
:104D6000C3E72DE9FF4F83B0044615469B460498E0
:104D700001900020CBF80000204601F0F8F80290E6
:104D8000029818B1029807B0BDE8F08FE07908B139
:104D9000E079F8E7A07900F0020008B90720F2E70F
:104DA000A0682844A168884200D20025CFE021688D
:104DB0004989A068B0FBF1F201FB120000287ED106
:104DC00021684989A068B0FBF1F021688978491E03
:104DD000084000F0FF0ABAF1000F1ED1A06838B9F0
:104DE000276957B900212068FFF7AAF9074604E0B0
:104DF00061692068FFF7A4F9074607B9AAE0012F07
:104E000002D10220E071BEE7781C10B90120E071E8
:104E1000B9E76761206900B92761A07900F0400017
:104E200078B121684878012304F12401A269FFF7D1
:104E3000E8FD10B10120E071A5E7A07920F0400065
:104E4000A07161692068FFF71DF9064616B90220B6
:104E5000E07198E7564420684089B5FBF0F9B9F154
:104E6000000F31D00AEB090021688978884203D904
:104E700020688078A0EB0A09216848784B463246C2
:104E80000199FFF7BEFD10B10120E0717BE7A06939
:104E9000801B484511D2A069831B2068B0F80AC066
:104EA000019803FB0C012068428904F1240000F002
:104EB0008EFEA07920F04000A071206800E017E08D
:104EC000408900FB09F835E0A069B0420FD0D4E971
:104ED000020188420BD2216848780123324604F14E
:104EE0002401FFF729FD10B10120E0714BE7A66115
:104EF00021684989A068B0FBF1F201FB120021682A
:104F00004989A1EB0008A84500D9A846216849892C
:104F1000A068B0FBF1F201FB120104F12400084487
:104F200042460090019900F052FEA07940F0400006
:104F3000A07100BF019840440190A0684044A06067
:104F4000DBF800004044CBF80000A5EB0805002D7D
:104F50007FF42DAF00BFD4E90201884201D9A068D7
:104F6000E060A07940F02000A07100200BE7000075
:104F700010B50246802A01DA10461BE051B1FF2A23
:104F800001DD002304E0A2F180030B4C34F8133060
:104F900018460FE0002007E0074B33F8103093422B
:104FA00000D103E0431C98B28028F5DB00BF00F17C
:104FB0008003D8B210BD0000BA9B000830B580282D
:104FC00007DA612823DB7A2821DCA0F12005A8B2CA
:104FD0001DE00C2200234FF4F77400BFE51A03EB29
:104FE00055010B4D35F81150854200D10AE0084DAE
:104FF00035F81150854201DA0B4600E00C46551E8B
:105000002A00EBD100BF12B1024D35F8110030BDBE
:10501000BA9C000896A000082DE9F74F8AB000213D
:105020000A9801600B9800F07BFB09900998002812
:1050300003DA0B200DB0BDE8F08FE949099851F86B
:1050400020400CB90C20F5E70A980460207878B16C
:105050006078FFF7C8FC814609F0010040B90C9860
:1050600020B109F0040008B10A20E3E70020E1E7DD
:1050700000202070099860706078FFF71EFC814660
:1050800009F0010008B10320D4E70C9820B109F021
:10509000040008B10A20CDE7607804F10A02022179
:1050A000FFF720FC38B96089B0F5007F03DB608929
:1050B000B0F5805F01DD0120BCE7002739462046BE
:1050C000FEF78EFF0546012D01D09DBB32E0002684
:1050D0001AE004F5F77000EB061898F8040070B1B8
:1050E00098F80B00010698F80A0041EA004198F888
:1050F000090041EA002098F80810084300E0002069
:1051000002A941F82600761C042EE2D3002606B13F
:10511000761E00BF02A850F8267027B139462046F7
:10512000FEF75EFF00E0022005461DB1701C06463A
:105130000428EFD3032D01D101207BE70DB10D2011
:1051400078E73B20015D94F83C0041EA002061894A
:10515000884201D00D206DE74620015D94F847009C
:1051600041EA002ABAF1000F0ED194F85700010667
:1051700094F8560041EA004194F8550041EA0020B5
:1051800094F8541040EA010AC4F818A04020005DC9
:10519000E070E078012804D0E078022801D00D20EA
:1051A00048E7E0780AFB00FA3D20005DA070A07897
:1051B00018B1A078411E084008B10D203AE74120FF
:1051C000015D94F8420041EA002020816089C11706
:1051D00000EBD1614911228992FBF1F301FB13210C
:1051E00009B10D2026E74320015D94F8440041EA0F
:1051F00000200890089870B994F85300010694F8BC
:10520000520041EA004194F8510041EA002094F82C
:105210005010084308903E20015D94F83F0041EA99
:1052200000200190019808B90D2003E76089C1179B
:1052300000EBD1614911228992FBF1F201995144AD
:1052400011440791DDE90710884201D20D20F1E6F3
:10525000DDE90710401AA178B0FBF1FBBBF1000FAC
:1052600001D10D20E6E6012540F6F670834500D316
:1052700002254FF6F670834500D303250BF102009B
:105280006061E76101983844206207983844A06261
:10529000032D16D1208908B10D20CBE694F85F00CC
:1052A000010694F85E0041EA004194F85D0041EA8D
:1052B000002094F85C1008436062606980000690EA
:1052C00014E0208908B90D20B4E6206A50446062D9
:1052D000022D02D16069400007E0207D00F001004E
:1052E000616901EB410100EB510006906089401EAD
:1052F000069908446189B0FBF1F0A169884201D99F
:105300000D2097E64FF0FF302061E0608020607153
:10531000032D5AD194F8601094F8610041EA0020FE
:10532000012852D1791C204600F068FCE8BB00201F
:10533000607194F82E1294F82F0241EA00204AF688
:105340005521884241D13320005D01063220005DA5
:1053500041EA00413120005D41EA002094F830101C
:1053600008432049884230D194F81702010694F886
:10537000160241EA004194F8150241EA002094F82F
:1053800014120843184988421FD194F81B020106E1
:1053900094F81A0241EA004194F8190241EA002007
:1053A00094F818120843206100E00EE094F81F0200
:1053B000010694F81E0241EA004194F81D0241EAF8
:1053C000002094F81C120843E0602570074800880C
:1053D000401C80B205490880E08000202AE60000D9
:1053E0002401002052526141727241612C0100205F
:1053F000F0B504461D464D730F27CF7200270F737B
:105400008F76BC4681F81BC0571E07EB870C0CEB50
:10541000C706002738463B4600BF4FF6FF77B84225
:1054200003D03746761C34F81700DFF840C01CF86C
:1054300003C001F80C000712DFF830C01CF803C0ED
:105440008C448CF8017008B94FF6FF705F1C3B4626
:105450000D2FE2D34FF6FF77B84202D034F8167022
:105460000FB942F040020A70F0BD0000809B0008B6
:105470002DE9F3410446019800782F2803D00198C4
:1054800000785C2802D10198401C01900020A060A7
:1054900001980078202807D200212046FFF7A9F9BB
:1054A00005460020606128E000BF01A92046FEF704
:1054B000B3FE054605B11FE02046FEF7F3FF0546A3
:1054C000A069C67A3DB1042D04D100BF06F00400E6
:1054D00000B9052510E006F0040000B10CE0676992
:1054E000F87A00F0100008B9052505E03946206873
:1054F00000F03BF9A060D8E700BF2846BDE8FC817A
:1055000070B504460D46E1B20548FEF7A3F800BFAA
:1055100080210348FEF724F80028F9D0204670BD0A
:10552000003801402DE9FF4F83B0814690461D466B
:105530000B224846049900F04AFB052D18D92F4646
:1055400011E038F802BB00240BE0584667F35F0017
:1055500007464FEA6B0B07F4803008B11D484740FF
:10556000641C102CF1D3B8F800000028E9D13D46A6
:10557000072400BF05F00F0000F1300ABAF1390F1F
:1055800003DD0AF1070000F0FF0A2046641E01A9AE
:1055900001F800A02D09002DECD17E200855002631
:1055A00000E0761CA64203D219F806002028F8D1A4
:1055B00000BF082C04D22046641C01A9085C00E04E
:1055C00020203146761C09F80100082EF1D307B0DF
:1055D000BDE8F08F211001002DE9F05F04460D4673
:1055E000022D02D36069A84202D84FF001098FE072
:1055F0004FF0FF392078012804D002283CD003283E
:105600007ED157E02F4607EB57076089B7FBF0F0D4
:10561000216A00EB010A5146204600F0EFFA00B182
:1056200075E038467F1C6189B0FBF1F201FB120185
:1056300004F1300010F801806089B7FBF0F0216AB6
:1056400000EB010A5146204600F0D8FA00B15EE0B6
:105650006089B7FBF0F100FB117104F13000405C90
:1056600048EA002805F0010010B14FEA181001E0E7
:10567000C8F30B0081464AE0B4F80AA00AEBDA70DE
:105680004010B5FBF0F0216A00EB010B59462046B3
:1056900000F0B4FA00B13AE068006189B0FBF1F2C1
:1056A00001FB120104F130000E183078717840EAE5
:1056B00001292CE0B4F80AA04FEAEA700AEB9070D6
:1056C0008010B5FBF0F0216A00EB010B5946204633
:1056D00000F094FA00B11AE0A8006189B0FBF1F281
:1056E00001FB120104F130000E18F0780006B178C9
:1056F00040EA0140717840EA01203178084300E037
:1057000002E020F0704902E04FF0010900BF00BF45
:105710004846BDE8F09F0000004870470000214661
:1057200070B502464FF0FF301568E5B1116800E032
:10573000491C0D78202D02D30D783A2DF8D10D7823
:105740003A2D0FD1146814F8015BA5F130030A2B30
:1057500007D28C4205D1022B03D218464D1C294694
:10576000156070BD002000BFFBE710B502468C7EBF
:10577000CB7E44EA03201378032B05D10C7D4B7DAF
:1057800044EA032340EA034010BD00008CB000252A
:105790000024FBF723FF0320FBF7C4FEA748FCF718
:1057A0003DF900214FF47840FCF72EF9A448038816
:1057B000A448028800210846FBF7FCFCFCF71EF910
:1057C0000026A1A13046FBF761FDFDF789FEFCF73D
:1057D0002BF9FCF7DFF8FDF7FFFD01229FA1A048A0
:1057E000FFF77AF99F4908700846007810B19EA02B
:1057F000FDF774FFA7A0FDF771FFFCF7FEF920206D
:10580000AE490860012008600220091D086011E00F
:10581000601CC4B2052C0DDDA9A0FDF75FFFFCF7ED
:10582000EDF8C0884004060CACA13046FBF72EFD15
:1058300000BFFEE7FCF7EAF90128E9D1AE49C87CD0
:10584000FCF7A5FAAC49C87BFCF714FAAA4991F910
:105850001000FCF7A7F9A84991F91100FCF76EF9BF
:10586000A54991F91200FCF7B4F9A349C87CFCF7EB
:105870008EFAA1480078A04E00903389F288B18852
:105880007088FCF7E6FA3146887BFBF74BFEFCF7A5
:10589000B5F8C0884004060C98A13046FBF7F6FC2A
:1058A0009DA0FDF71BFF0020A2490870C4E0A1489D
:1058B0000078022820D14FF07E512846FAF766FC86
:1058C000054600BF04209C49086020209B49486190
:1058D000086104209849091F086020209749486101
:1058E000086100BF844E3389F288B1897089FCF762
:1058F00017F800208F49087001218F481438FCF7F1
:1059000069F801283ED18E480078401C8C49087007
:10591000084602788BA102A8FDF7F0FE2020674917
:105920000860012008600220091D086089A0FDF7B9
:10593000D5FE7149887BFBF7F5FD02A80090404831
:1059400003884048028800210846FDF7D5FB60B96E
:1059500084A0FDF7C3FE2020584908600120091DDE
:1059600008600220091F08600BE082A0FDF7B6FE68
:1059700020205249091D08600120091F08600220EB
:10598000086000BF4FF400516C48FCF723F8012871
:105990003DD1002058490870488088804FF4A0709D
:1059A000C880F02008810020488188810320887306
:1059B0000020C8730874487488740120C874C87CB7
:1059C000FCF7E5F94C49C87BFCF754F94A4991F9D1
:1059D0001000FCF7E7F8484991F91100FCF7AEF820
:1059E000454991F91200FCF7F4F84349C87CFCF7EB
:1059F000CEF941480078404E00903389F288B18852
:105A00007088FCF726FA3146887BFBF78BFD5D48F2
:105A1000006888B95C492846FAF710FC8046FAF716
:105A20004BFC064632460B4658A0FDF757FE0025B4
:105A300042F210705349086039E70000EC00002082
:105A4000DE000020DC0000204248204F563737326D
:105A50003520546573742044656D6F00303A000042
:105A600040010020280000200D0AC7EBB8F8BFAAAB
:105A7000B7A2B0E5B2E5C8EBD2D1B8F1CABDBBAFB1
:105A8000B3C9666174B8F1CABDB5C45344BFA8A117
:105A9000A30D0A000D0A202A2A204F563737323527
:105AA000C9E3CFF1CDB7CAB5CAB1D2BABEA7CFD478
:105AB000CABEC0FDB3CC2A2A200D0A00100C01403A
:105AC0000D0AC3BBD3D0BCECB2E2B5BD4F563737DD
:105AD0003235C9E3CFF1CDB70D0A00004E6F204F2C
