:020000040800F2
:10000000C804002045010008AD120008AF12000826
:10001000B3120008B7120008BB120008000000006D
:10002000000000000000000000000000BF120008F7
:10003000C112000800000000C3120008C512000829
:100040005F0100085F0100085F0100085F01000810
:100050005F0100085F0100085F0100085F01000800
:100060005F0100085F0100085F0100085F010008F0
:100070005F0100085F0100085F0100085F010008E0
:100080005F0100085F0100085F0100085F010008D0
:100090005F0100085F0100085F010008C712000847
:1000A0005F0100085F0100085F0100085F010008B0
:1000B0005F0100085F0100085F0100085F010008A0
:1000C0005F0100085F0100085F0100085F01000890
:1000D0005F0100085F0100085F0100085F01000880
:1000E0005F0100085F0100085F0100085F01000870
:1000F0005F0100085F0100085F0100085F01000860
:100100005F0100085F0100085F0100085F0100084F
:100110005F0100085F0100085F0100085F0100083F
:100120005F0100085F0100085F0100085F0100082F
:10013000DFF80CD002F018F9004800474D12000813
:10014000C80400200648804706480047FEE7FEE74F
:10015000FEE7FEE7FEE7FEE7FEE7FEE7FEE7FEE777
:1001600047020008310100080CB500200190009002
:100170006C48006840F480306A49086000BF6948F4
:10018000006800F4003000900198401C0190009835
:1001900018B90198B0F5A06FF1D16248006800F479
:1001A000003010B10120009001E000200090009884
:1001B000012843D15C48006840F010005A490860AB
:1001C0000846006820F0030008600846006840F018
:1001D0000200086053484068524948600846406839
:1001E00048600846406840F48060486008464068BF
:1001F00020F47C1048600846406840F4E8104860ED
:100200000846006840F08070086000BF45480068FC
:1002100000F000700028F9D04248406820F0030048
:10022000404948600846406840F00200486000BF0E
:100230003C48406800F00C000828F9D10CBD10B50E
:10024000FFF792FF10BD10B53648006840F001007E
:1002500034490860084640683449084031494860DC
:1002600008460068324908402E4908600846006880
:1002700020F4802008600846406820F4FE004860B2
:100280004FF41F008860FFF7DAFF4FF00060294944
:10029000086010BD10B5002100200022214B5B68D2
:1002A00003F00C0121B1042906D0082928D107E068
:1002B000214B224C236027E01F4B204C236023E07E
:1002C000184B5B6803F47010164B5B6803F48032C4
:1002D000022303EB904022B9194B4343174C236090
:1002E0000DE0104B5B6803F4003323B1144B434320
:1002F000124C236003E0104B4343104C236003E097
:100300000D4B0E4C236000BF00BF064B5B68C3F370
:1003100003130C4CE15C094B1B68CB40074C23607A
:1003200010BD000000100240002002400000FFF855
:10033000FFFFF6FE08ED00E000127A00000000204A
:1003400000093D000400002031490143314A116099
:10035000704770B5002100230F22C47804B32D4CE0
:10036000246804F4E064C4F5E064210AC1F10403E4
:10037000CA40447804FA03F1847814402143090107
:10038000254C0678A155047804F01F050124AC40E3
:1003900005786D11AD0005F1E025C5F8004109E0D3
:1003A000047804F01F050124AC401C4D067876113A
:1003B00045F8264070BD1A4A0A400243154B1B1FE0
:1003C0001A60704739B1134A121D12680243114B6B
:1003D0001B1D1A6006E00F4A121D126882430D4B66
:1003E0001B1D1A607047042808D14FF0E0210969ED
:1003F00041F004014FF0E022116107E04FF0E021ED
:10040000096921F004014FF0E022116170470000FA
:100410000000FA050CED00E000E400E080E100E0FF
:1004200080FFFF1F002044490860091D0860091D66
:100430000860091D086041483F4914310860704751
:1004400000213D498279002A3AD00A4612680368A1
:100450009A430B461A600A1D126803689A430B1DE3
:100460001A60027911440A6803681A430A60324A22
:100470000832126803689A432F4B08331A601A1D1A
:10048000126803689A432C4B0C331A604279102A85
:100490000ED11A1F126803681A43274B08331A60DB
:1004A0001A1D126803681A43234B0C331A600DE0BF
:1004B0002149427911440A6803681A430A6005E039
:1004C000027911440A6803689A430A607047002160
:1004D000016001710C214171002181717047164941
:1004E000103109680143144A103211607047014607
:1004F0000020114A143212680A400AB1012000E0BB
:10050000002070470C4914310860704701460020F4
:100510000022094B1B6803EA0102074B14331B68D6
:100520000B4013B10AB1012000E0002070470249DE
:10053000143108607047000000040140FFFF0F0005
:1005400030B943F2DB028100A1F1C0410A6005E04D
:1005500043F2D2028100A1F1C0410A606FF0704203
:10056000411C8900A1F1C0410A608100A1F1C04194
:10057000C1F80421704710280AD118214FF02042F9
:100580001166402151664FF0FC319166D16610E052
:100590001821F74A116040214FF02042C2F8841020
:1005A0004FF0FC31F24A083211604FF02042C2F89D
:1005B0008C1070471820EE49203108600020090691
:1005C000C1F8A4004FF0FC30E94928310860091D4A
:1005D0000860091D08607047D0E901121143C26824
:1005E0001143026911434269114382691143C2698F
:1005F0001143026A1143426A1143826A1143C26A7B
:100600001143026B114302689200A2F1C0421160D3
:10061000816808290BD101688900A1F1C0410968EE
:1006200041F0400201688900A1F1C0410A60416BBC
:100630000968426B526841EA0211426B926841EAD2
:100640000221426B928941EA0241426B128A41EADD
:100650000251426B127D41EA0261426B9269114381
:100660000268521C9200A2F1C0421160C16AB1F549
:10067000804F1BD1816B0968826B526841EA02117D
:10068000826B926841EA0221826B128A41EA02512E
:10069000826B127D41EA0261826B926911430268AA
:1006A0009200A2F1C042C2F8041107E06FF070425C
:1006B00001688900A1F1C041C1F80421704730B53B
:1006C000002100220023446844F0080485682C437C
:1006D000C5682C4305692C43456944EA452485696E
:1006E00044EA4531C4692468C5696D6844EA052453
:1006F000C5692D8944EA0544C5692D7B44EA056234
:10070000046A2468056A6D6844EA0524056A2D892F
:1007100044EA0544056A2D7B44EA05630468102C0D
:1007200005D14FF020442166A266E36608E0904CB4
:1007300021604FF02044C4F888208D4C0C34236095
:1007400030BD016841F01001426841EA42218268EF
:1007500041EA4231864A20321160C1680968C268A4
:10076000526841EA0221C268128941EA0241C26824
:10077000127B41EA02617E4A2832116001690968F0
:100780000269526841EA02210269128941EA024182
:100790000269127B41EA0261754A2C32116041699B
:1007A00009684269526841EA02214269128941EAB4
:1007B00002414269127B41EA02614FF02042C2F8D5
:1007C000B01070470021016002214160002181606A
:1007D000C160016141618161C16101624FF4805179
:1007E0004162490081620021C16201630F21426BB5
:1007F0001160426B5160FF21426B91600F21426B8F
:10080000D160426B1161426B51610021426B916179
:100810000F21826B1160826B5160FF21826B9160AE
:100820000F21826BD160826B1161826B516100215B
:10083000826B9161704710210160002141608160ED
:10084000C160016141618161FC21C2691160C269BD
:100850005160C2699160C269D160026A1160026A26
:100860005160026A9160026AD160704700210160A4
:1008700041608160FC21C2681160C2685160C26839
:100880009160C268D16002691160026951600269B9
:1008900091600269D16042691160426951604269A8
:1008A00091604269D160704751B18200A2F1C042AB
:1008B000126842F001038200A2F1C042136009E015
:1008C0008200A2F1C04212682A4B1A408300A3F1B1
:1008D000C0431A60704799B1102808D14FF02042E8
:1008E000126E42F004024FF020431A661DE0204AC7
:1008F000126842F004024FF02043C3F8802014E055
:10090000102809D14FF02042126E1A4BDB1E1A40FC
:100910004FF020431A6608E0154A1268154BDB1E9B
:100920001A404FF02043C3F88020704748B1104967
:100930002031096841F004014FF02042C2F8A010B4
:1009400009E00B49203109680A4AD21E11404FF0D4
:100950002042C2F8A0107047B9B110280CD14FF056
:100960002042126E42F040024FF020431A661FE010
:10097000800000A0FEFF0F00724A126842F04002A1
:100980004FF02043C3F8802012E0102808D14FF028
:100990002042126E6C4B1A404FF020431A6607E05B
:1009A000684A1268684B1A404FF02043C3F8802011
:1009B000704701460020102903D14FF02042506FAC
:1009C00002E0604A14321068704710B5F2B1102886
:1009D00007D14FF020435B6E0B434FF0204463661A
:1009E00032E0B0F5807F08D1564B1B1D1B680B43CE
:1009F0004FF02044C4F8843026E0524B24331B6867
:100A00000B434FF02044C4F8A4301DE0102807D158
:100A10004FF020435B6E8B434FF02044636613E03E
:100A2000B0F5807F08D1474B1B1D1B688B434FF0EF
:100A30002044C4F8843007E0424B24331B688B43C6
:100A40004FF02044C4F8A43010BD10B50246002079
:100A50000023102A03D14FF02044636E09E0B2F561
:100A6000807F03D1374C241D236802E0354C2434A9
:100A7000236803EA01040CB1012000E0002010BD4E
:100A8000102807D14FF02042526E8A434FF0204386
:100A90005A6613E0B0F5807F08D12A4A121D126809
:100AA0008A434FF02043C3F8842007E0254A2432CC
:100AB00012688A434FF02043C3F8A420704770B5F2
:100AC00002460020002300240025102A03D14FF005
:100AD0002046736E09E0B2F5807F03D1194E361DB2
:100AE000336802E0174E2436336803EA010403EA50
:100AF000D10514B10DB1012000E0002070BD102817
:100B000008D14FF02042526E22EAD1024FF020432A
:100B10005A6615E0B0F5807F09D10A4A121D1268A5
:100B200022EAD1024FF02043C3F8842008E0054AAE
:100B30002432126822EAD1024FF02043C3F8A420E5
:100B400070470000800000A0BFFF0F0010B50446F2
:100B5000CC48844208D10121042000F02DFB002163
:100B6000042000F029FB46E0C748844208D1012157
:100B7000082000F021FB0021082000F01DFB3AE0D6
:100B8000C248844208D10121102000F015FB002149
:100B9000102000F011FB2EE0BD48844208D1012155
:100BA000202000F009FB0021202000F005FB22E0BE
:100BB000B848844208D10121402000F0FDFA00210C
:100BC000402000F0F9FA16E0B348844208D1012130
:100BD000802000F0F1FA0021802000F0EDFA0AE018
:100BE000AE48844207D10121801500F0E5FA0021CA
:100BF000A01500F0E1FA10BD10B50121084600F083
:100C0000DBFA0021012000F0D7FA10BD2DE9F041F8
:100C1000024600250026002000230024002791F82A
:100C200003C00CF00F0591F803C00CF0100CBCF1E0
:100C3000000F03D091F802C04CEA050591F800C0FE
:100C4000BCF1000F31D0146800202BE04FF0010CF4
:100C50000CFA00F3B1F800C00CEA03069E4220D162
:100C600083004FF00F0C0CFA03F7BC4305FA03FCAA
:100C70004CEA040491F803C0BCF1280F06D14FF0F0
:100C8000010C0CFA00FCC2F814C00AE091F803C091
:100C9000BCF1480F05D14FF0010C0CFA00FCC2F872
:100CA00010C0401C0828D1D31460B1F800C0BCF1BA
:100CB000FF0F34DD546800202EE000F1080C4FF0E7
:100CC000010808FA0CF3B1F800C00CEA03069E42D2
:100CD00021D183004FF00F0C0CFA03F7BC4305FA47
:100CE00003FC4CEA040491F803C0BCF1280F05D1C1
:100CF00000F1080C08FA0CF8C2F8148091F803C04F
:100D0000BCF1480F07D100F1080C4FF0010808FAB8
:100D10000CF8C2F81080401C0828CED35460BDE8FF
:100D2000F0814FF6FF710180022181700421C170B2
:100D300070470246002093680B400BB1012000E091
:100D4000002070470146886880B270470246002044
:100D5000D3680B400BB1012000E000207047014632
:100D6000C86880B2704701617047416170470AB13D
:100D7000016100E041617047C16070474FF480320B
:100D80000A43826181618261826982697047024699
:100D90000020434B18684FF68073184040EA021059
:100DA00008433F4B186070473E49C8617047F0B533
:100DB0000A46002300240021002500F00046B6F179
:100DC000004F02D1364EF16901E0354E7168C0F333
:100DD000034583B200F44016B6F5401F08D121F058
:100DE00070612F4E766826F070662D4F7E6012E09F
:100DF00000F48016B6F5801F06D1032606FA05F426
:100E0000A14341F0706106E0460D360103FA06F693
:100E1000B14341F0706122B1460D360103FA06F686
:100E2000314300F00046B6F1004F02D11C4EF16193
:100E300001E01B4E7160F0BD30B500228B071C0F26
:100E40000F2303FA04F2164B08338C1053F82430A6
:100E50009343134C08348D1044F8253023468C10EE
:100E600053F824308C07240F00FA04F423430C4C6D
:100E700008348D1044F8253030BD0A49DC31086053
:100E80007047000000080140000C014000100140C4
:100E90000014014000180140001C014000200140E6
:100EA0000000014000002042DF48006840F00100DF
:100EB000DD49086008464068DC490840DA49486076
:100EC00008460068DA490840D749086008460068C3
:100ED00020F4802008600846406820F4FE00486046
:100EE0004FF41F0088607047CF49096821F48031B2
:100EF000CD4A11601146096821F480211160B0F5D6
:100F0000803F03D0B0F5802F0ED106E0C6490968B6
:100F100041F48031C44A116007E0C349096841F4D3
:100F2000A021C14A116000E000BF00BF704710B5AA
:100F300001460022002300204A11012A02D1BA4CA6
:100F4000236806E0022A02D1B74C236A01E0B64CBE
:100F5000636A01F01F02012494401C400CB101207F
:100F600000E0002010BD38B50020009000240025CE
:100F700000BF3120FFF7DBFF05460098401C0090C2
:100F80000098B0F5A06F01D0002DF2D03120FFF70E
:100F9000CEFF08B1012400E00024204638BD014600
:100FA0000020A14A106820F0F80040EAC10010605B
:100FB0007047A04908607047024600209A4B586865
:100FC00020F47C1042EA01031843974B58607047A5
:100FD00098490866704701460020934A506820F0FF
:100FE00003000843506070478F48406800F00C00D1
:100FF0007047014600208C4A506820F0F0000843FA
:101000005060704701460020874A506820F4E06035
:1010100008435060704701460020834A506820F41E
:10102000605040EAC1005060704729B17E4A527A50
:1010300002437D4B5A7204E07B4A527A82437A4BD8
:101040005A7270477B49D8310860704701460020CA
:10105000754A506820F440400843506070470021B2
:10106000714A20321170704A82F82010012802D093
:1010700004280AD104E001216B4A2032117005E0F6
:101080000521694A2032117000E000BF00BF70479F
:101090006949086070476449096A0143624A1162FC
:1010A0007047654944390860704730B50021002217
:1010B000002400235C4D6D6805F00C0121B104296A
:1010C00005D0082923D105E05C4D056022E05B4D89
:1010D00005601FE0544D6D6805F47012524D6D6847
:1010E00005F48034022505EB92421CB9544D55435A
:1010F00005600BE04C4D6D6805F400351DB1504D99
:101100005543056002E04D4D5543056002E04B4DEF
:10111000056000BF00BF444D6D6805F0F00109098E
:10112000484D6B5C0568DD4045603F4D6D6805F4DA
:10113000E061090A434D6B5C4568DD4085603A4DCE
:101140006D6805F46051C90A3E4D6B5C4568DD4031
:10115000C560354D6D6805F44041890B3A4D6B5CB7
:10116000C568B5FBF3F5056130BD29B12E4A52695A
:1011700002432D4B5A6104E02B4A526982432A4BA9
:101180005A61704729B1284A92690243264B9A61F5
:1011900004E0254A92698243234B9A61704729B142
:1011A000214AD2690243204BDA6104E01E4AD26927
:1011B00082431D4BDA61704729B11B4AD268024352
:1011C000194BDA6004E0184AD2688243164BDA60A1
:1011D000704729B1144A12690243134B1A6104E0A3
:1011E000114A12698243104B1A6170471249403903
:1011F000086070470F49C86470470B49C871704751
:101200000948406A40F080700749486270470146CB
:101210000020054A92680A400AB1012000E000203F
:101220007047014988727047001002400000FFF8C3
:10123000FFFFF6FE000042428004424200127A00A4
:1012400000093D00140000202400002001F088F86F
:1012500000F0CFF800BF00F019F90128FBD100F031
:101260000DF900200E49087019E00D480078022899
:1012700015D100BF04200B49086020200A494861AD
:10128000086104200749091F0860202006494861B9
:10129000086100BF00F02AF9002001490870E4E766
:1012A000C30000201408014000100140704700BF37
:1012B000FEE700BFFEE700BFFEE700BFFEE77047A6
:1012C00070477047704710B52020FFF71FF900B333
:1012D0001048007878B910200F49486108200F495C
:1012E000086001200B49087008200C490860102094
:1012F000094908610AE007480078012806D108205A
:101300000649091D08600220024908702020FFF7E5
:101310000EF910BDC3000020001001401014014060
:1013200008B501210420FFF72DFF4FF48070ADF8C0
:10133000000010208DF8030003208DF8020069469C
:101340008048FFF763FC4FF480717E48FFF70BFD88
:1013500001212020FFF716FF0820ADF800006946A4
:101360007948FFF753FC01211020FFF70BFF1020F5
:10137000ADF8000069467548FFF748FC01210420DC
:10138000FFF700FF0420ADF8000069466D48FFF745
:101390003DFC01210420FFF7F5FE0820ADF8000018
:1013A00069466848FFF732FC01211020FFF7EAFE8A
:1013B0002020ADF8000069466448FFF727FC0121B2
:1013C0000820FFF7DFFE4FF47F40ADF80000042057
:1013D0008DF8030003208DF8020069465C48FFF792
:1013E00015FC08205749143108605749103108602E
:1013F00008BD10B500F0B4F8FFF792FF10BD08B5B6
:1014000001214020FFF7BEFE2020ADF8000004209F
:101410008DF8030003208DF8020069464D48FFF760
:10142000F5FB08BD08B54FF4C060FEF78DFF17202F
:101430008DF8000000208DF8010003208DF80200D7
:1014400001208DF803006846FEF783FF08BD1CB538
:1014500005210420FFF7F0FC2020009000208DF8EB
:1014600004000C208DF8050001208DF80600684668
:10147000FEF7E6FF2020FFF732F81CBD10B5FFF79E
:10148000BEFFFFF7E4FFFFF7CDFF10BD38B5002426
:10149000002000908021122000F073F908B900208C
:1014A00038BD0B220121684600F08BF908B90020F5
:1014B000F6E79DF80000212814D100240DE0264A0B
:1014C00002EB44025178244A12F8140000F059F952
:1014D00008B90020E4E7601C84B220480078844208
:1014E000EDDB01E00020DBE70120D9E770B5022049
:1014F00000F092FB002421E000261AE000BF002546
:1015000020201249486112480830006800F47F45E5
:101510002020086148610E4808300068C0F30720A9
:1015200005432020086100BF284600F037FF701CEB
:1015300086B2B6F5A07FE1DB601C84B2F02CDBDB69
:1015400070BD00000008014000140140001001407F
:10155000000C01400018014028000020C2000020BB
:1015600008B501211020FFF70DFE4020ADF8000066
:1015700003208DF8020014208DF803006946AF485F
:10158000FFF744FB01211020FFF7FCFD8020ADF8A0
:1015900000006946A948FFF739FB08BD4FF4C87041
:1015A00001E0411E88B20028FBD1704710B58021B0
:1015B000A248FFF7D8FB4021A048FFF7D4FBFFF774
:1015C000EDFF80219D48FFF7B4FB08B9002010BD56
:1015D00080219A48FFF7C9FBFFF7E0FF8021974879
:1015E000FFF7A7FB08B10020F1E780219348FFF740
:1015F000BCFBFFF7D3FF0120E9E710B540218F487E
:10160000FFF7B3FBFFF7CAFF80218C48FFF7ADFB64
:10161000FFF7C4FF40218948FFF7A5FBFFF7BEFF96
:1016200080218648FFF79FFBFFF7B8FF10BD10B57C
:1016300040218248FFF799FBFFF7B0FF80217F48E8
:10164000FFF793FBFFF7AAFF40217C48FFF78BFBD6
:10165000FFF7A4FF40217948FFF787FBFFF79EFFC4
:1016600010BD10B540217548FFF77FFBFFF796FFCF
:1016700080217248FFF777FBFFF790FF40216F480A
:10168000FFF771FBFFF78AFF40216C48FFF76DFB06
:10169000FFF784FF10BD10B540216848FFF765FBD8
:1016A000FFF77CFF80216548FFF75DFBFFF776FFC2
:1016B00040216248FFF757FBFFF770FF80215F482A
:1016C000FFF737FB28B140215C48FFF74EFB0020B5
:1016D00010BD40215948FFF748FB0120F8E770B5DD
:1016E000044608251BE040215448FFF73EFBFFF766
:1016F00055FF04F0800020B180215048FFF733FBF4
:1017000003E080214D48FFF730FB6006040EFFF731
:1017100045FF40214948FFF726FBFFF73FFF280020
:10172000A5F10101CDB2DED140214448FFF71DFBF8
:1017300070BD70B50825002480214048FFF713FBD9
:1017400014E06006040E40213C48FFF70EFBFFF753
:1017500025FF40213948FFF706FBFFF71FFF8021D7
:101760003648FFF7E6FA08B144F001042800A5F175
:101770000101CDB2E5D140213048FFF7F6FA20460D
:1017800070BD70B504460D46FFF710FF08B9002084
:1017900070BD4220FFF7A3FFFFF77DFF18B9FFF7E9
:1017A0002CFF0020F4E7E0B2FFF799FFFFF773FF8B
:1017B0002846FFF794FFFFF76EFFFFF71EFF01209B
:1017C000E6E770B505460C461646FFF7EFFE08B98A
:1017D000002070BD4220FFF782FFFFF75CFF18B9C1
:1017E000FFF70BFF0020F4E73046FFF778FFFFF725
:1017F00052FFFFF702FFFFF7D9FE08B90020E8E724
:101800004320FFF76CFFFFF746FF18B9FFF7F5FE1F
:101810000020DEE70CE0FFF78CFF2870012C02D1DE
:10182000FFF71FFF01E0FFF702FF6D1C601E84B28F
:10183000002CF0D1FFF7E1FE0120CAE700100140C3
:1018400001B502E00098401E009000980028F9D1F0
:1018500008BD08B501210846FFF794FC012160206E
:10186000FFF790FC03208DF8020018208DF803008C
:101870004CF20370ADF800006946FE48FFF7C6F968
:101880004FF68070ADF800006946FB48FFF7BEF9DF
:1018900003208DF8020018208DF803001020ADF809
:1018A00000006946F348FFF7B1F92020ADF80000C9
:1018B0006946F048FFF7AAF901210802FFF762FC28
:1018C0004FF48050ADF800006946EC48FFF79EF9F0
:1018D00001214020FFF756FC0420ADF800006946C6
:1018E000E548FFF793F910208DF8030003208DF8E9
:1018F000020001210802FFF745FC4FF40060ADF83B
:1019000000006946DD48FFF781F910208DF80300DB
:1019100003208DF8020001210802FFF733FC40206C
:10192000ADF800006946D548FFF770F908BD00B56D
:1019300097B001210802FFF718FC02200190002057
:1019400002900520039000200490059006904FF02F
:1019500080500790062008900020099008200A90E7
:1019600010200B9000200C900E900F9010904FF4D0
:1019700080501190002012901390149001A815909F
:10198000169008A8FEF728FE01210620FEF78CFF1E
:1019900017B000BD10B5CF2000F0FCFC002000F017
:1019A000FDFC812000F0FAFC302000F0F7FCED2077
:1019B00000F0F0FC642000F0F1FC032000F0EEFCED
:1019C000122000F0EBFC812000F0E8FCE82000F0A1
:1019D000E1FC852000F0E2FC102000F0DFFC782024
:1019E00000F0DCFCCB2000F0D5FC392000F0D6FC68
:1019F0002C2000F0D3FC002000F0D0FC342000F0BC
:101A0000CDFC022000F0CAFCF72000F0C3FC20202F
:101A100000F0C4FCEA2000F0BDFC002000F0BEFC99
:101A2000002000F0BBFCB12000F0B4FC002000F06E
:101A3000B5FC1B2000F0B2FCB62000F0ABFC0A2085
:101A400000F0ACFCA22000F0A9FCC02000F0A2FC39
:101A5000352000F0A3FCC12000F09CFC112000F018
:101A60009DFCC52000F096FC452000F097FC452029
:101A700000F094FCC72000F08DFCA22000F08EFC4A
:101A8000F22000F087FC002000F088FC262000F007
:101A900081FC012000F082FCE02000F07BFC0F20A4
:101AA00000F07CFC262000F079FC242000F076FC7D
:101AB0000B2000F073FC0E2000F070FC092000F0F9
:101AC0006DFC542000F06AFCA82000F067FC462062
:101AD00000F064FC0C2000F061FC172000F05EFCBC
:101AE000092000F05BFC0F2000F058FC072000F0FC
:101AF00055FC002000F052FCE12000F04BFC0020DF
:101B000000F04CFC192000F049FC1B2000F046FCC2
:101B1000042000F043FC102000F040FC072000F0FF
:101B20003DFC2A2000F03AFC472000F037FC392029
:101B300000F034FC032000F031FC062000F02EFC05
:101B4000062000F02BFC302000F028FC382000F0AC
:101B500025FC0F2000F022FC362000F01BFCC820E2
:101B600000F01CFC2A2000F015FC002000F016FC00
:101B7000002000F013FC002000F010FCEF2000F02B
:101B80000DFC2B2000F006FC002000F007FC0020DC
:101B900000F004FC012000F001FC3F2000F0FEFBFF
:101BA0003A2000F0F7FB552000F0F8FB112000F080
:101BB000F1FB3348FFF744FE292000F0EBFB10BD9A
:101BC00010B54FF400612D48FFF7CFF82C48FFF710
:101BD00037FE4FF400612948FFF7C5F82848FFF7A2
:101BE0002FFE10BD10B5044624B140212348FFF755
:101BF000BCF803E040212148FFF7B5F810BD10B54F
:101C0000FFF727FEFFF793FE0120FFF7EBFFFFF73B
:101C1000D7FFFFF7BFFE10BD10B50446012C06D05C
:101C2000022C32D0032C55D0042C2DD177E0362055
:101C300000F0B0FBC82000F0B1FB2A2000F0AAFBA6
:101C4000002000F0ABFB002000F0A8FB002000F01B
:101C5000A5FBEF2000F0A2FB2B2000F09BFB002057
:101C600000F09CFB002000F099FB012000F096FBA7
:101C70003F2007E00014014000180140002001400F
:101C8000FCBF020000F08AFB6EE0362000F082FB11
:101C9000682000F083FB2A2000F07CFB002000F08D
:101CA0007DFB002000F07AFB012000F077FB3F2055
:101CB00000F074FB2B2000F06DFB002000F06EFBA9
:101CC000002000F06BFB002000F068FBEF2000F02C
:101CD00065FB49E0362000F05DFB282000F05EFB4C
:101CE0002A2000F057FB002000F058FB002000F0F5
:101CF00055FB012000F052FB3F2000F04FFB2B2052
:101D000000F048FB002000F049FB002000F046FBFB
:101D1000002000F043FBEF2000F040FB24E03620E1
:101D200000F038FB482000F039FB2A2000F032FB9D
:101D3000002000F033FB002000F030FB002000F01A
:101D40002DFBEF2000F02AFB2B2000F023FB0020CE
:101D500000F024FB002000F021FB012000F01EFB1E
:101D60003F2000F01BFB00BF00BF2C2000F012FB47
:101D700010BD2DE9F04104460D4616461F462A20A7
:101D800000F008FB201200F009FBE0B200F006FBB7
:101D9000A119491EC1F30F2000F000FBA119491E33
:101DA000C8B200F0FBFA2B2000F0F4FA281200F081
:101DB000F5FAE8B200F0F2FAE919491EC1F30F2072
:101DC00000F0ECFAE919491EC8B200F0E7FABDE8E4
:101DD000F08170B504460D4601231A462946204677
:101DE000FFF7C7FF70BD70B504460D4600262C20D6
:101DF00000F0D0FA00BF03E0284600F0CFFA761CCE
:101E0000A642F9D370BD2DE9F04106460F461446AF
:101E10001D46DDF818802B46224639463046FFF72E
:101E2000A8FF04FB05F04146FFF7DDFFBDE8F081A8
:101E300070B506460C461546B6F5A07F09DAF02CBB
:101E400007DA21463046FFF7C4FF29460120FFF795
:101E5000CAFF70BD70B50024002500262E2000F0BA
:101E600099FA00F093FA044600F090FA044600F064
:101E70008DFA064600F08AFA0546E012C002A91261
:101E800040EA411040EAE62070BD70B504460D46B8
:101E900029462046FFF79DFFFFF7DCFF0646304648
:101EA00070BD2DE9FF4F85B081468A464FF0000B8B
:101EB000002001900798A0EB09050898A0EB0A06FE
:101EC000CDF80C90CDF808A0002D01DD012705E02C
:101ED0000DB9002702E04FF0FF376D42002E02DD02
:101EE0004FF0010806E016B94FF0000802E04FF08D
:101EF000FF387642B54201DD2C4600E03446002032
:101F000004901EE0129ADDE90210FFF791FFAB4446
:101F1000019830440190A34505DDABEB040B039819
:101F2000384480B203900198A04206DD0198001B5E
:101F300001900298404480B202900498401C80B204
:101F40000490611C04988842DCDD09B0BDE8F08F84
:101F50002DE9F84304460D4616461F46DDE908897B
:101F6000B9F1000F08D03B46324629462046CDF84D
:101F70000080FFF748FF2FE0A019401E82B22B46D9
:101F800029462046CDF80080FFF78BFFE819401E58
:101F900083B2A019401E82B2E819401E81B22046C9
:101FA000CDF80080FFF77DFFE819401E83B222467E
:101FB00029462046CDF80080FFF773FFE919491E36
:101FC0008BB2A119491E8AB2A119491E88B22946AD
:101FD000CDF80080FFF765FFBDE8F8832DE9F05FDD
:101FE00005460E4691469B4600240FFA89F70320CA
:101FF000A0EB49000FFA80FA97E00A98002848D031
:10200000A04643E006EB080291B22A1990B25A4664
:10201000FFF70EFF06EB080291B22A1B90B25A4658
:10202000FFF706FF321991B2A5EB080290B25A46AB
:10203000FFF7FEFE321B91B2A5EB080290B25A46A2
:10204000FFF7F6FEA6EB080291B22A1B90B25A46A1
:10205000FFF7EEFEA6EB080291B22A1990B25A469B
:10206000FFF7E6FE321B91B205EB080290B25A462A
:10207000FFF7DEFE321991B205EB080290B25A4624
:10208000FFF7D6FE08F101000FFA80F8B845B9DD78
:1020900037E0F21991B22A1990B25A46FFF7C8FEFA
:1020A000F21991B22A1B90B25A46FFF7C1FE3219BB
:1020B00091B2EA1B90B25A46FFF7BAFE321B91B2B8
:1020C000EA1B90B25A46FFF7B3FEF21B91B22A1BED
:1020D00090B25A46FFF7ACFEF21B91B22A1990B2A9
:1020E0005A46FFF7A5FE321B91B2EA1990B25A4642
:1020F000FFF79EFE321991B2EA1990B25A46FFF7E5
:1021000097FE601C04B2BAF1000F05DAA000801D32
:1021100050440FFA80FA07E0E01B80000A30504478
:102120000FFA80FA781E07B200BFBC427FF765AF96
:10213000BDE8F09F2DE9F05F81468A4615461E46B0
:10214000A5F1200000F0FF0B10230822514648465D
:10215000FFF70FFE2C2000F01DF900241AE07F4845
:1021600000EB0B10075D4FF000080EE007F00100D8
:1021700018B10A9800F012F902E0304600F00EF9AA
:102180007F1008F1010000F0FF08B8F1080FEDDB47
:10219000601CC4B2102CE2DBBDE8F09F2DE9F843CF
:1021A00005460E4614461F46DDF820801AE02846F4
:1021B0000830B0F5A07F03DD002506F1100086B2DF
:1021C00030461030F02801DD00250026CDF80080D3
:1021D00022783B4631462846FFF7ACFF641C05F1E8
:1021E000080085B220780028E1D1BDE8F8832DE908
:1021F000F04F89B08046894693461E46DDF848A0D8
:1022000010231A4649464046FFF7B3FD2C2000F044
:10221000C1F8002422E001A810F814504FF6FF7016
:1022200000EA0525012000EB440001A9085C0543F4
:1022300000270FE005F4004018B1504600F0AEF85A
:1022400002E0304600F0AAF84FF6FF7000EA4505BC
:10225000781CC7B2102FEDDB601CC4B2102CDADB87
:1022600009B0BDE8F08F2DE9F84305460E46144647
:102270009846DDF820901FE028461030B0F5A07F8A
:1022800003DD002506F1100086B230461030F0283C
:1022900001DD002500262788380200EB272087B2C1
:1022A00043463A4631462846CDF80090FFF79FFF57
:1022B00005F1100085B2A41C20780028DCD1BDE80F
:1022C000F8832DE9F84305460E4614469946DDF895
:1022D00020803EE020787E281BDC28460830B0F5C0
:1022E000A07F03DD002506F1100086B230461030D5
:1022F000F02801DD00250026CDF8008022784B462D
:1023000031462846FFF716FF05F1080085B2641C28
:102310001FE028461030B0F5A07F03DD002506F150
:10232000100086B230461030F02801DD002500266E
:102330002788380200EB272087B24B463A463146C1
:102340002846CDF80080FFF752FF05F1100085B256
:10235000A41C20780028BDD1BDE8F883C223000862
:1023600010B5FFF74CFC10BD064C074D06E0E068C9
:1023700040F0010394E8070098471034AC42F6D3CC
:10238000FDF7DAFEB4290008D42900084FF0DA403E
:10239000008870474FF0D841088070474FF0DA410D
:1023A0000880704702E008C8121F08C1002AFAD14D
:1023B00070477047002001E001C1121F002AFBD1C5
:1023C0007047000000000000000000000000000056
:1023D00000000000000002020202020200020000EF
:1023E00000000000000006060000000000000000E1
:1023F0000000000000000C0C0F0E0F06060000008D
:102400000000000000040E0606060C0C0C0E040072
:10241000000000000000170D0D0F3C2C2C3A0000AE
:102420000000000000000E0A2A242B11112E0000CB
:102430000000000000000202000000000000000098
:10244000000000000000020202020202020202007A
:10245000000000000000010202020202020201006C
:102460000000000000000202020000000000000066
:10247000000000000000000004040E04040000003E
:102480000000000000000000000000000101010049
:102490000000000000000000000000060000000036
:1024A000000000000000000000000000000100002B
:1024B0000000000000000404020202020201010008
:1024C00000000000000006090909090909060000CA
:1024D000000000000000040604040404040E0000D0
:1024E000000000000000060908080402010F0000B7
:1024F000000000000000060908060808090700009F
:1025000000000000000004060605050F040400009A
:102510000000000000000E02020608080806000085
:102520000000000000000E02010709090906000072
:102530000000000000000F08040404040202000070
:10254000000000000000060909060D090906000048
:10255000000000000000060909090E080407000039
:102560000000000000000000000100000001000069
:102570000000000000000000000100000101010057
:102580000000000000000000080406020C0000002B
:102590000000000000000000000E000E000000001F
:1025A000000000000000000002040C08060000000B
:1025B0000000000000000704040402020002000002
:1025C00000000000000038245A5656563E043800D9
:1025D00000000000000004060A0A0A0E11110000A3
:1025E0000000000000000E0A0A060A0A0A0600009F
:1025F0000000000000001C0201010101120E000099
:102600000000000000000E1A121212120A0E000042
:102610000000000000000E02020E0202020E000086
:102620000000000000000E0202020E020202000082
:102630000000000000000C1201011911121E000020
:102640000000000000001212121E121212120000EE
:102650000000000000000702020202020207000060
:10266000000000000000040404040404040200004C
:102670000000000000000A0A060606060A0A00001A
:10268000000000000000020202020202020E00002E
:102690000000000000004666665656564A4A000092
:1026A00000000000000026262A2A2A3232220000DA
:1026B0000000000000001E1221212121121E000036
:1026C000000000000000060A0A0A060202020000DA
:1026D0000000000000001E1221212121121E0830DE
:1026E0000000000000000E1212120E0A122200005A
:1026F0000000000000000E0101020C0809060000A5
:102700000000000000001F0404040404040400008E
:10271000000000000000121212121212120C00002F
:1027200000000000000011110A0A0A0A0604000055
:1027300000000000000049495955353323220000AC
:10274000000000000000110A0A04040A0A11000037
:10275000000000000000090A0A0604040404000046
:102760000000000000000F0804040202010F000036
:10277000000000000000060202020202020202063D
:102780000000000000000101020202020204040035
:102790000000000000000302020202020202020323
:1027A00000000000000004060A0A0000000000000B
:1027B0000000000000000000000000000000000712
:1027C0000000000000000102000000000000000006
:1027D0000000000000000000000F080F090F0000BB
:1027E0000000000000000202020E0A0A0A0E0000A9
:1027F0000000000000000000000E0101010E0000BA
:102800000000000000000808080E0909090E000079
:1028100000000000000000000006090F010E00008B
:10282000000000000000060202070202020200008F
:102830000000000000000000000E0909090E080752
:102840000000000000000202020E0A0A0A0A00004C
:10285000000000000000020000020202020200006C
:102860000000000000000200000202020202020357
:102870000000000000000202020A0606060A00002C
:102880000000000000000202020202020202000038
:102890000000000000000000007E4A4A4A4A000092
:1028A0000000000000000000000E0A0A0A0A0000F2
:1028B00000000000000000000006090909060000F1
:1028C0000000000000000000000E0A0A0A0E0202CA
:1028D0000000000000000000000E0909090E0808B1
:1028E00000000000000000000006020202020000DA
:1028F00000000000000000000007010604070000BF
:1029000000000000000000020207020202060000B0
:102910000000000000000000000A0A0A0A0E000081
:10292000000000000000000000090505060200008C
:1029300000000000000000000029292F1A120000EA
:102940000000000000000000000906020609000067
:102950000000000000000000000905060602020356
:102960000000000000000000000702020107000054
:10297000000000000000060202020102020202063C
:102980000000000000000202020202020202020233
:10299000000000000000030202020402020202031F
:1029A00000000000000000000000161A00000000F7
:1029B00000000000D429000800000020C40000002E
:1029C000A4230008982A0008C40000200404000082
:1029D000B423000800A24A04000000000000000028
:1029E00001020304060708090000000001020304B5
:1029F0000102030406070809020406081100124632
:102A0000173F185019031A78320029502C782A00E1
:102A1000427F4D0963E064FF65206600670013F0A4
:102A20000D810FC5142122FF23012434253C26A14A
:102A30002B006BAA13FF695D900A9101920193012B
:102A4000945F95539611971A983D995A9A1E9B0038
:102A50009C25A765A8659E81A6067E0C7F16802A08
:102A6000814E8261836F847B8586868E879788A45A
:102A700089AF8AC58BD78CE88D20A980AA80ACFF4E
:102A80003300229923034A00491347084B144C177B
:082A900046050CD00EF54D00C7
:0400000508000131BD
:00000001FF
